:10100000977100009381017F17812000130181EC0B
:10101000176500001305C57F976500009385457F20
:101020001386418363FCC5008322050023A055007D
:101030001305450093854500E3E8C5FE138541830C
:101040009385016E6378B5002320050013054500E4
:10105000E36CB5FEEF00000CEF10C0126F00000053
:0410600067800000A5
:10106400B367B50093F737006392070803A7050039
:10107400B7867F7F9386F6F7B377D700B387D70019
:10108400B3E7E700B3E7D7001306F0FF639EC70694
:10109400130605001308F0FF130646009385450068
:1010A400232EE6FE03A70500B377D700B387D70046
:1010B400B3E7E700B3E7D700E38007FF83C7050082
:1010C40003C7150083C625002300F600638A0700C2
:1010D400A300E600630607002301D600639406001C
:1010E40067800000A30106006780000093070500E5
:1010F40003C705009387170093851500A38FE7FEA8
:10110400E31807FE67800000130605006FF01FFB5D
:10111400130101FF2324810023202101176400000F
:101124001304C46E176900001309496E330989401A
:10113400232611002322910013592940630E09002C
:1011440093040000832704009384140013044400D0
:10115400E7800700E31899FE176400001304046B8A
:10116400176900001309896A330989401359294012
:10117400630E090093040000832704009384140081
:1011840013044400E7800700E31899FE8320C1009C
:101194000324810083244100032901001301010178
:1011A40067800000130101FF23248100232611001E
:1011B400937735001304050063960706032705009B
:1011C4003706FFFE1306F6EFB307C700B786808025
:1011D4001347F7FF93860608B3F7E700B3F7D70082
:1011E400639207041305450003270500B307C700EE
:1011F4001347F7FFB3F7E700B3F7D7006394070289
:101204001305450003270500B307C7001347F7FF7D
:10121400B3F7E700B3F7D700E38607FC6F0080005D
:101224001305150083470500E39C07FEEFF05FE319
:10123400130504008320C10003248100130101016C
:10124400678000009377350013070500639C07044B
:10125400B7867F7F9386F6F79305F0FF1307470061
:101264000326C7FFB377D600B387D700B3E7C70019
:10127400B3E7D700E384B7FE8346C7FFB307A740AD
:101284000346D7FF0345E7FF63800604630A0602AB
:101294003335A0003305F5001305E5FF6780000032
:1012A400E38806FA8347070013071700937637008D
:1012B400E39807FE3307A7401305F7FF6780000094
:1012C4001385D7FF678000001385C7FF6780000080
:1012D40093952500B385A50023A0C5006780000071
:1012E400939575003385A500935556009395250075
:1012F4003305B500B72500003305B500930710008A
:10130400B397C700638A060003260500B3E7C70046
:101314002320F500678000000326050093C7F7FF2C
:10132400B3F7C7002320F500678000009395C5003C
:10133400B385A50037052000B385A50023A0C5000B
:10134400678000009395C500B385A500370520008C
:1013540013054500B385A50003A5050067800000BB
:101364009395C500B385A5003705200013054500F6
:10137400B385A50023A0C5006780000003254500B0
:10138400135505011375F50F67800000130101FF64
:101394002326110023248100232291001304050035
:1013A4009384050013050400EFF05FFDE30C05FED4
:1013B400232094008320C10003248100832441005E
:1013C4001301010167800000130101FF23261100AE
:1013D4002324810023229100930405001384050033
:1013E40083450400638A0500130414001385040074
:1013F400EFF0DFF96FF0DFFE8320C10003248100EA
:101404008324410013010101678000009395750056
:10141400B385A50003A5C5021375150067800000F8
:10142400130101FF23261100B78500009385058170
:10143400370501F8EFF05FF96F000000130101FFB9
:1014440023261100232481006F000003930500006C
:10145400370510F8EFF09FFB63120504EF00504AC4
:101464006F00C003EFF0DFFB1306040093050000D8
:101474003705C0F8EFF0DFEE930500003705C0F83C
:10148400EFF05FEC13040500630A050293071001F3
:10149400E31AF4FC83C75183E39A07FA83C74183B1
:1014A400E38407FC93051000370510F8EFF01FF6EE
:1014B400E31C05FAEF0090346FF01FFB8320C1009A
:1014C400032481001301010167800000130101FF5F
:1014D40023261100F327203463D2070213F7F70001
:1014E4009307B000631AF700EFF05FF58320C100A3
:1014F4001301010167800000EFF09FF2EFF05FF24B
:10150400130101FF232611001306000093050000B8
:101514003705C0F8EFF09FE19306100013061001A1
:10152400930500003705C0F8EFF09FDB13061000A9
:10153400930510013705C0F8EFF09FD9930610000A
:1015440013060001930500003705C0F8EFF05FD9DA
:1015540013061000930500013705C0F8EFF05FD7BC
:10156400B73700009387875E73905730B717000032
:101574009387078073A04730B7270000938787803D
:10158400739007308320C1001301010167800000BC
:10159400939575003385A5002320C5009386F6FF37
:1015A400B71700001387F7FFB3F6E600B3E6F600BB
:1015B4002326D50067800000939575003385A50028
:1015C4002328C5009386F6FFB71700001387F7FF9B
:1015D400B3F6E600B3E6F600232ED50067800000DC
:1015E400939575003385A5002324C500630E070079
:1015F400B7270000638E060037470000B3E7E70013
:101604002326F50067800000930700006FF09FFE1B
:10161400130700006FF09FFE939575003385A500B6
:1016240093968600B3E6C60013170701B3E6E600F7
:10163400232CD50063840700B7270000232EF50070
:1016440067800000939575003385A5001306F6FFA7
:101654002320C50263880600930730002326F50281
:1016640067800000930710006FF05FFF939575008B
:101674003385A5009307F0FF232AF5042328C50426
:101684006780000093957500B385A50003A5C50286
:10169400137515006780000093957500B385A50048
:1016A40093968600B3E6C60023A2D50467800000A3
:1016B40003254500135505011375F50F67800000D8
:1016C400130101FF2326110023248100232291000A
:1016D400130405009384050013050400EFF05FFD77
:1016E400E30C05FE232094008320C1000324810021
:1016F400832441001301010167800000B7470F00F4
:1017040093870724B3D5F502B7C70000938787FFF3
:101714003306F600832706003385A5023305F5005A
:1017240083270600B307F540E3DC07FE678000006B
:10173400130101FF2326110093050500370501F865
:10174400EFF01FF88320C10013010101678000003E
:10175400130101FF23261100232481001304050033
:10176400034504006308050013041400EFF05FFC54
:101774006FF01FFF8320C1000324810013010101C6
:1017840067800000130101FF232611002324810038
:1017940023229100930405001304C0016F0040024A
:1017A400B3D7840013F7F700B78700009387C78285
:1017B400B387E70003C50700EFF09FF71304C4FFE6
:1017C400E35004FE8320C1000324810083244100EC
:1017D4001301010167800000130101FF232611009A
:1017E4002324810023229100930405001304C001E3
:1017F4006F004002B3D7840013F7F700B7870000E7
:1018040093870784B387E70003C50700EFF05FF20F
:101814001304C4FFE35004FE8320C10003248100A9
:10182400832441001301010167800000130101FFBB
:10183400232611001375F50FEFF09FEF8320C100ED
:101844001301010167800000130101FF2326110029
:10185400EFF01FF08320C100130101016780000035
:10186400130101FD23261102232481022322910264
:101874009304050063460500130401006F00C002D1
:101884001305D002EFF09FFAB30490406FF0DFFE2F
:101894001307A000B3E7E402938707032300F400CF
:1018A400B3C4E40213041400E39404FE9307010098
:1018B400E300F4FE6F0000011304F4FF0345040089
:1018C400EFF0DFF693070100E318F4FE8320C10272
:1018D4000324810283244102130101036780000071
:1018E400130101FF23261100130700009307700062
:1018F40063C0E70293162700930700FFB397D7004E
:10190400B377F50063860700130717006FF01FFE17
:10191400EFF09FEC8320C1001301010167800000F8
:10192400130101FF23261100130700009307700021
:1019340063C0E70293162700930700FFB397D7000D
:10194400B377F50063860700130717006FF01FFED7
:10195400EFF05FE38320C100130101016780000001
:101964000F50000067800000130101FF23261100BF
:101974002324810013040500EFF0DF8C1305F5FF29
:101984009307000063D4A702B306F40003C606005D
:101994003307A400834507002380B6002300C70053
:1019A400938717001305F5FF6FF0DFFD8320C10057
:1019B400032481001301010167800000130101FF6A
:1019C40023261100634805001306050013080000D0
:1019D4006F0040013306A0406FF05FFF13880800DA
:1019E400138607009307A000B366F6029308180055
:1019F40033870501938606032300D700B347F60215
:101A040013079000E34CC7FC63400502B38815013B
:101A14002380080013850500EFF01FF58320C10023
:101A24001301010167800000B38815019307D002F8
:101A34002380F800930828006FF05FFD130101FE76
:101A4400232E1100232C8100232A91002328210115
:101A5400232631012324410113090500938905003C
:101A6400130A060013840600EF20D03D93040500FA
:101A7400EF20904513060500938605001305090021
:101A840093850900EF20403413090500938905006C
:101A940093050A0013850400EFF05FF29307E00258
:101AA4002300F400130A14001305090093850900A8
:101AB400EF20507DEF20106D03A6818183A6C181A4
:101AC400EF10504BEF20107C9304050093050000A9
:101AD400EF20D057634A0506130440006352800880
:101AE40013850400EF20106A13090500938905008B
:101AF4001304F4FF13050400EF20103D1306050042
:101B04009386050003A5018283A54182EF3000205E
:101B14001306050093860500130509009385090043
:101B2400EF105035E35C05FA9305000013850400BB
:101B3400EF209045E354A0FA930700032300FA0032
:101B4400130A1A006FF09FF99307D002A300F40060
:101B5400130A2400B7070080B3C497006FF0DFF7BF
:101B640013850400EF20D05A93050A00EFF01FE517
:101B74008320C1010324810183244101032901013C
:101B84008329C100032A8100130101026780000038
:101B9400130101FC232E1102232C81029306C100A0
:101BA40013068101EFF09FE90347D1009307D002A8
:101BB4006306F706130400009305C10013058101B1
:101BC400EFF04FDE034781019307D0026304F7006F
:101BD4006312040813058101EFF09FB78320C1034A
:101BE4000324810313010104678000001387F7FFB6
:101BF40093060103B386F60083C6C6FD13060103EC
:101C04003307E600230ED7FC9387170013079000D1
:101C1400E35EF7FC130410006FF01FFA9307200033
:101C24006FF0DFFE1387170093060103B386F600F7
:101C340083C686FE130601033307E6002304D7FE9A
:101C44009387F7FFE3D007FE9307D002230CF1003C
:101C54006FF05FF8930730016FF0DFFE130101FCB2
:101C6400232E1100232C8100232A910093040500C4
:101C74002322B1022324C1022326D1022328E10214
:101C8400232AF102232C0103232E1103930741027B
:101C94002326F100130400006F00C0018327C10054
:101CA400138747002326E10003A50700EFF01FB8C0
:101CB40013041400B387840003C50700630C050CE8
:101CC400930750026306F506EFF05FB66FF05FFE10
:101CD4008327C100138747002326E10003A50700DB
:101CE400EFF09FB66FF0DFFC8327C1001387470036
:101CF4002326E10003A50700EFF09FB66FF05FFB1A
:101D04008327C100138747002326E10003A50700AA
:101D1400EFF01FC16FF0DFF98327C100138747007D
:101D24002326E10003A50700EFF09FBB6FF05FF8E7
:101D340013041400B387840083C70700E38A07F6FB
:101D440013073006E38CE7F413073007E382E7F860
:101D540013074006E38AE7F813078005E382E7FAEE
:101D640013078007E38AE7FA13076006E392E7FCA8
:101D74008327C1009387770093F787FF1387870032
:101D84002326E10003A5070083A54700EFF05FE0E9
:101D94006FF01FF28320C1010324810183244101D8
:101DA4001301010467800000B70711F83305F5003B
:101DB4000325050067800000130101FF232611009D
:101DC4009396C600B7770000B3F6F60013168600A4
:101DD40013760670B3E6C6009395450093F50507A0
:101DE400B3E6B60013751500B3E6A600B70711F8FD
:101DF40023A0D7003706B0F8B7E5F505938505109D
:101E040013055000EFF09F8F8320C10013010101DF
:101E140067800000B7374700938707103305F50242
:101E2400B70710013305F50067800000130101FEB8
:101E3400232E1100232C8100232A91002328210121
:101E440023263101232441012322510113040500D7
:101E5400938A050013890600130A07009384070078
:101E6400930908009306000193050500370510F84F
:101E7400EFF00FF293071000130700009306000021
:101E840013860A0093050400370510F8EFF0CFF825
:101E9400631C0A04638409069306100013060900F0
:101EA40093050400370510F8EFF0CFF9638C0400B4
:101EB40093050400370510F8EFF0CFFCE31A05FE94
:101EC400EFF01FAA8320C10103248101832441016F
:101ED400032901018329C100032A8100832A4100C7
:101EE40013010102678000001306400093050400FB
:101EF400370510F8EFF08FF76FF0DFF99306000065
:101F04001306090093050400370510F8EFF08FF36A
:101F14006FF0DFF9130101FE232E1100232C810041
:101F2400232A91002328210123263101232441015E
:101F34002322510113040500930A060013890600A5
:101F4400130A07009384070093090800130700008D
:101F5400930610001386050093050500370510F855
:101F6400EFF00FE89306000113860A0093050400BE
:101F7400370510F8EFF04FE4631C0A046384090684
:101F8400930610001306090093050400370510F8A2
:101F9400EFF04FEB638C040093050400370510F851
:101FA400EFF04FEEE31A05FEEFF09F9B8320C10193
:101FB4000324810183244101032901018329C100F0
:101FC400032A8100832A4100130101026780000073
:101FD4001306400093050400370510F8EFF00FE9ED
:101FE4006FF0DFF99306000013060900930504005F
:101FF400370510F8EFF00FE56FF0DFF9130101FF7B
:102004002326110023248100232291003785000018
:1020140013054585EFF09FC483C77183939627000A
:1020240037870000130707823307D700032407000C
:1020340003C7618313061700238BC1821377F7014B
:10204400630C070003C5A183A38DA182EFF09FDC7D
:10205400930600006F0080049387170093F5F70F31
:10206400A38BB18213972500B7870000938707825B
:10207400B387E70003A407003785000013058585AF
:10208400EFF0DFBD03C7718393072000E3FCE7FA99
:10209400A38B01826FF01FFB938616009307704396
:1020A40063C0D7029307000013077043E346F7FEAB
:1020B4002320850093871700130545006FF0DFFE8A
:1020C40003C5B183EFF01FD5130800009307000088
:1020D40013071000B7364700938606101306050051
:1020E4009305000013051000EFF05FD48320C100B6
:1020F400032481008324410013010101678000004F
:10210400130101FF2326110083C6C183238DD182CD
:10211400930700006F0080009387170013073000B7
:10212400634EF70003C7B183E308F7FEE386F6FEC8
:1021340003C79183E302F7FE238EF18203C5C183B3
:10214400EFF05FCD130800009307000013071000A1
:10215400B736470093860610130605009305000062
:1021640013050000EFF01FDBB70711F81307100089
:1021740023A8E7008320C100130101016780000048
:10218400130101FE232E1100232C8100232A910028
:102194002328210123263101378500001305858674
:1021A400EFF0DFABEF10003FEF00C07A378900009B
:1021B40013050987EFF09FAA370411F89304100060
:1021C400232294003785000013058587EFF01FA9AB
:1021D40093064000130630009305500013051000C9
:1021E400EFF09FBDEFF0CFB193060000130600009F
:1021F40093053000370510F8EFF00FCA930600007E
:102204001306000093052000370510F8EFF0CFC83F
:10221400930600001306300093051000370510F8EC
:10222400EFF08FC79306000013060000930500002B
:10223400370510F8EFF04FC6378500001305C58742
:10224400EFF0DFA103C5B183EFF0DFBC130800009A
:102254009307000013071000B7394700938609104D
:10226400130605009305000013051000EFF01FBCD2
:10227400238A918213050987EFF05F9E3706B0F831
:10228400B7E5F5059385051037C52D001305056CD5
:10229400EFF0CFC6232604003785000013054589D7
:1022A400EFF0DF9B03C5C183EFF0DFB61308000036
:1022B4009307000013071000938609101306050006
:1022C4009305000013050000EFF0DFC4A38A918298
:1022D4002328940023280400930720002324F400D7
:1022E40013050987EFF09F97930700006F00000222
:1022F4003706B0F8B7E5F5059385051037150000E6
:1023040013058538EFF08FBF93070400138417007B
:1023140093F7F70FE39E07FC378500001305858AC2
:10232400EFF0DF936FF0DFFC032505041375150050
:102334006780000013070504930700212320F50498
:102344008327070093F70701E39C07FE67800000DB
:10235400130101FF23261100232481001304050027
:1023640013050400EFF05FFCE31C05FE8320C100AD
:10237400032481001301010167800000130101FFA0
:1023840023261100130700422320E504EFF05FFC2D
:102394008320C100130101016780000083274500E9
:1023A40093F70710E39C07FE67800000130101FF09
:1023B40023261100130710302322E500EFF01FFE3F
:1023C4008320C100130101016780000003258500FB
:1023D4001375F50F678000000325C5001375F50F0D
:1023E4003335A000678000000325C5001375F50F81
:1023F4001335150067800000130101FE232E110020
:10240400232C8100232A9100232821012326310132
:102414009304050093890500375501F8EFF09FF107
:10242400375901F837140000930704B22320F90048
:10243400375501F8EFF09FF7375501F8EFF0DFFA61
:10244400EF00507993D78400130404B0B3E78700F6
:102454002320F900375501F8EFF05FF5375501F8FF
:10246400EFF09FF8EF00107793F4F40FB3E48400D7
:1024740023209900375501F8EFF05FF3375501F841
:10248400EFF09FF6EF00107533E4890023208900F4
:10249400375501F8EFF09FF1375501F8EFF0DFF40D
:1024A400EF005073375501F8EFF05FED8320C10161
:1024B4000324810183244101032901018329C100EB
:1024C4001301010267800000130101FE232E110095
:1024D400232C8100232A9100232821012326310162
:1024E40093040500375501F8EFF0DFE4375901F89C
:1024F40037140000930704B22320F900375501F87C
:10250400EFF0DFEA375501F8EFF01FEEEF00906CC3
:1025140093D78400930904B0B3E737012320F9006B
:10252400375501F8EFF09FE8375501F8EFF0DFEB8E
:10253400EF00506A93F4F40FB3E4340123209900BC
:10254400375501F8EFF09FE6375501F8EFF0DFE972
:10255400EF005068375501F8EFF05FE2375501F8A6
:10256400EFF05FDD930714B22320F900375501F82B
:10257400EFF0DFE3375501F8EFF01FE7EF00906568
:102584001304F4BF23208900375501F8EFF01FE24C
:10259400375501F8EFF05FE4EF00D063375501F8E9
:1025A400EFF0DFE21374F50F375501F8EFF01FDD9C
:1025B400130504008320C101032481018324410104
:1025C400032901018329C10013010102678000006E
:1025D400130101FF232611002324810093055000D9
:1025E400373400001305B40EEFF01FE19305C0006B
:1025F4001305B40EEFF05FE09305F00F1305A4008C
:10260400EFF09FDF9305F00F1305B400EFF0DFDE6A
:10261400930550001305B40EEFF01FDE93059000F0
:102624001305B40EEFF05FDD8320C10003248100A5
:102634001301010167800000130101FF232611002B
:1026440023248100232291009304050013840500B0
:10265400935585001305C016EFF01FDA93F5F40FB8
:102664001305D016EFF05FD9935584001305E016D7
:10267400EFF09FD89375F40F1305F016EFF0DFD742
:102684008320C1000324810083244100130101013C
:1026940067800000130101FE232E1100232C81000A
:1026A400232A9100232821012326310193090500BF
:1026B40013890500930406001384060093558500CE
:1026C40013054016EFF05FD393F5F90F1305501679
:1026D400EFF09FD29355890013056016EFF0DFD118
:1026E4009375F90F13057016EFF01FD193D584007D
:1026F40013058016EFF05FD093F5F40F13059016D1
:10270400EFF09FCF935584001305A016EFF0DFCEB2
:102714009375F40F1305B016EFF01FCE8320C1019B
:102724000324810183244101032901018329C10078
:102734001301010267800000130101FF2326110029
:1027440023248100232291009304050013840500AF
:102754009355850013054016EFF01FCA93F5F40F47
:1027640013055016EFF05FC99355840013056016E6
:10277400EFF09FC89375F40F13057016EFF0DFC7E1
:102784008320C1000324810083244100130101013B
:1027940067800000130101FF232611002324810018
:1027A40023229100930405001384050093558500AA
:1027B40013058016EFF05FC493F5F40F130590161C
:1027C400EFF09FC3935584001305A016EFF0DFC20A
:1027D4009375F40F1305B016EFF01FC28320C100E8
:1027E4000324810083244100130101016780000058
:1027F400130101FF23261100232481001384050003
:102804009307200063F4A70013053000930720000A
:1028140063F4870013043000930505001305401783
:10282400EFF09FBD9305040013055017EFF0DFBCD4
:102834008320C1000324810013010101678000008B
:10284400130101FF23261100232481002322910078
:102854009304050013840500935585001305406215
:10286400EFF09FB993F5F40F13055062EFF0DFB862
:102874009355840013056062EFF01FB89375F40F4D
:1028840013057062EFF05FB78320C1000324810059
:10289400832441001301010167800000130101FE3C
:1028A400232E1100232C8100232A910023282101A7
:1028B40023263101130405009389050093040600BF
:1028C400138906009305000013050060EFF0DFB2E2
:1028D40063040400138409009305040013051060C5
:1028E400EFF09FB19305090013850400EFF05FF545
:1028F4008320C101032481018324410103290101AF
:102904008329C1001301010267800000130101FF44
:102914002326110023248100138405009305050058
:1029240013057015EFF05FAD9355840093F5F50032
:1029340013058015EFF05FAC9375F40F1305901534
:10294400EFF09FAB8320C100032481001301010138
:1029540067800000130101FF232611009305000086
:1029640013050010EFF05FA9EFF09FC69305100068
:1029740013054011EFF05FA89305000013058012C2
:10298400EFF09FA7930580011305A012EFF0DFA6D7
:10299400930500001305B012EFF01FA69305400045
:1029A40013050016EFF05FA59305900513051016A7
:1029B400EFF09FA49305D00013052016EFF0DFA3DA
:1029C4009305800713053016EFF01FA3B715000019
:1029D4009386F599130600009385F5CC1305802A98
:1029E400EFF05FCB9305804313050078EFF0DFC46D
:1029F4009305100013050017EFF01FA093051000B6
:102A040013051017EFF05F9F9305000013050000F6
:102A1400EFF01FDE9305A0001305C018EFF0DF9D53
:102A24009305A0001305D018EFF01F9D93055000E7
:102A340013051030EFF05F9C930510001305303040
:102A4400EFF09F9B9305300013054030EFF0DF9AC1
:102A54009305300013055030EFF01F9A93050000E2
:102A640013056030EFF05F99930590031305703000
:102A7400EFF09F989305A00013059030EFF0DF97D7
:102A8400930510001305B030EFF01F979305000075
:102A94001305C030EFF05F96930520071305D0307F
:102AA400EFF09F959305A00013059030EFF0DF94AD
:102AB400930510001305B030EFF01F949305000048
:102AC4001305C030EFF05F93930520071305D03052
:102AD400EFF09F929305100013050010EFF0DF91C3
:102AE400930500201305900BEFF05FE29305D000EF
:102AF40013052016EFF05F90930580071305301639
:102B0400EFF09F8F9305A00013050016EFF0DF8E02
:102B14009305800A13051016EFF01F8E9305A0008D
:102B24001305A015EFF05F8D930540051305B0154F
:102B3400EFF09F8C9305000013052017EFF0DF8B57
:102B44008320C100130101016780000003254500B3
:102B5400135505011375F50F678000000325450023
:102B64001355850167800000130101FF232611001E
:102B7400232481002322910013040500938405007B
:102B840013050400EFF09FFCE30C05FE23209400E2
:102B94008320C10003248100832441001301010127
:102BA40067800000130101FF232611002324810004
:102BB4002322910093040500138405008345040037
:102BC400638A05001304140013850400EFF0DFF991
:102BD4006FF0DFFE8320C1000324810083244100C1
:102BE4001301010167800000130101FF2326110076
:102BF400232481001304050013050400EFF01FF6DD
:102C0400E30C05FE032504001375F50F8320C100B2
:102C1400032481001301010167800000B7470F00FE
:102C240093870724B3D5F502B7C70000938787FFBE
:102C34003306F600832706003385A5023305F50025
:102C440083270600B307F540E3DC07FE6780000036
:102C5400130101FF2326110093050500370501F830
:102C6400EFF09FF08320C100130101016780000091
:102C7400130101FF232611002324810013040500FE
:102C8400034504006308050013041400EFF05FFC1F
:102C94006FF01FFF8320C100032481001301010191
:102CA40067800000130101FF232611002324810003
:102CB40023229100930405001304C0016F00400215
:102CC400B3D7840013F7F700B78700009387C78250
:102CD400B387E70003C50700EFF09FF71304C4FFB1
:102CE400E35004FE8320C1000324810083244100B7
:102CF4001301010167800000130101FF2326110065
:102D04002324810023229100930405001304C001AD
:102D14006F004002B3D7840013F7F700B7870000B1
:102D240093870784B387E70003C50700EFF05FF2DA
:102D34001304C4FFE35004FE8320C1000324810074
:102D4400832441001301010167800000130101FF86
:102D5400232611001375F50FEFF09FEF8320C100B8
:102D64001301010167800000130101FF23261100F4
:102D7400EFF01FF08320C100130101016780000000
:102D8400130101FD2326110223248102232291022F
:102D94009304050063460500130401006F00C0029C
:102DA4001305D002EFF09FFAB30490406FF0DFFEFA
:102DB4001307A000B3E7E402938707032300F4009A
:102DC400B3C4E40213041400E39404FE9307010063
:102DD400E300F4FE6F0000011304F4FF0345040054
:102DE400EFF0DFF693070100E318F4FE8320C1023D
:102DF400032481028324410213010103678000003C
:102E0400130101FF2326110013070000930770002C
:102E140063C0E70293162700930700FFB397D70018
:102E2400B377F50063860700130717006FF01FFEE2
:102E3400EFF09FEC8320C1001301010167800000C3
:102E4400130101FF232611001307000093077000EC
:102E540063C0E70293162700930700FFB397D700D8
:102E6400B377F50063860700130717006FF01FFEA2
:102E7400EFF05FE38320C1001301010167800000CC
:102E840083A705002324F50283A745002326F50222
:102E940083A785002328F50283A7C5002328F5040A
:102EA40083A70501232AF50483A74501232CF504F0
:102EB40067800000130101FF2326110023248100F1
:102EC40013040500EFE00FB81305F5FF93070000A6
:102ED40063D4A702B306F40003C606003307A400B4
:102EE400834507002380B6002300C700938717009B
:102EF4001305F5FF6FF0DFFD8320C100032481007B
:102F04001301010167800000130101FF2326110052
:102F14006348050013060500130800006F00400114
:102F24003306A0406FF05FFF138808001386070084
:102F34009307A000B366F6029308180033870501CF
:102F4400938606032300D700B347F60213079000C5
:102F5400E34CC7FC63400502B388150123800800D5
:102F640013850500EFF01FF58320C1001301010153
:102F740067800000B38815019307D0022380F8000E
:102F8400930828006FF05FFD130101FE232E11004A
:102F9400232C8100232A9100232821012326310197
:102FA400232441011309050093890500130A06002F
:102FB40013840600EF10006993040500EF10C0703D
:102FC400130605009386050013050900938509007F
:102FD400EF00905F130905009389050093050A002B
:102FE40013850400EFF05FF29307E0022300F4007E
:102FF400130A14001305090093850900EF109028A3
:10300400EF10501803A6818183A6C181EF0080765A
:10301400EF1050279304050093050000EF101003F0
:10302400634A0506130440006352800813850400B4
:10303400EF10501513090500938905001304F4FFDC
:1030440013050400EF10406813060500938605007D
:1030540003A5018283A54182EF10504B130605009E
:10306400938605001305090093850900EF0080602D
:10307400E35C05FA9305000013850400EF10C070AB
:10308400E354A0FA930700032300FA00130A1A007A
:103094006FF09FF99307D002A300F400130A2400F1
:1030A400B7070080B3C497006FF0DFF713850400FF
:1030B400EF10100693050A00EFF01FE58320C1010D
:1030C4000324810183244101032901018329C100CF
:1030D400032A81001301010267800000130101FC2F
:1030E400232E1102232C81029306C10013068101B1
:1030F400EFF09FE90347D1009307D0026306F70678
:10310400130400009305C10013058101EFE08F89CA
:10311400034781019307D0026304F7006312040894
:1031240013058101EFF0DFB48320C103032481037D
:1031340013010104678000001387F7FF930601035E
:10314400B386F60083C6C6FD130601033307E60003
:10315400230ED7FC9387170013079000E35EF7FC58
:10316400130410006FF01FFA930720006FF0DFFEC6
:103174001387170093060103B386F60083C686FE01
:10318400130601033307E6002304D7FE9387F7FFF2
:10319400E3D007FE9307D002230CF1006FF05FF831
:1031A400930730016FF0DFFE130101FC232E1100A1
:1031B400232C8100232A9100930405002322B102C9
:1031C4002324C1022326D1022328E102232AF10267
:1031D400232C0103232E1103930741022326F1001C
:1031E400130400006F00C0018327C1001387470048
:1031F4002326E10003A50700EFF05FB513041400D4
:10320400B387840003C50700630C050C93075002C1
:103214006306F506EFF09FB36FF05FFE8327C100EE
:10322400138747002326E10003A50700EFF0DFB36F
:103234006FF0DFFC8327C100138747002326E100DA
:1032440003A50700EFF0DFB36FF05FFB8327C10036
:10325400138747002326E10003A50700EFF05FBEB4
:103264006FF0DFF98327C100138747002326E100AD
:1032740003A50700EFF0DFB86FF05FF81304140044
:10328400B387840083C70700E38A07F61307300671
:10329400E38CE7F413073007E382E7F813074006EB
:1032A400E38AE7F813078005E382E7FA1307800748
:1032B400E38AE7FA13076006E392E7FC8327C10079
:1032C4009387770093F787FF138787002326E1000E
:1032D40003A5070083A54700EFF05FE06FF01FF23E
:1032E4008320C101032481018324410113010104CA
:1032F40067800000130101FF2326110023248100AD
:10330400232291009304050013840500B78500006F
:103314009385C58A370501F8EFF0DF88930700002D
:1033240063DE8700139727003387E4009306F0FFDA
:103334002320D700938717006FF09FFE8320C100DE
:1033440003248100832441001301010167800000EC
:10335400130101FF2326110023248100232291005D
:10336400232021011309050093840500B78500007B
:103374009385C58C370501F8EFF0DF821304000054
:10338400635A940293172400B307F90083A5070036
:10339400378500001305858EEFF01FE1B785000027
:1033A4009385858C370501F8EFF0CFFF13041400E3
:1033B4006FF01FFD8320C10003248100832441009A
:1033C40003290100130101016780000003250500A2
:1033D400678000006304050067800000130101FF9B
:1033E40023261100B78500009385C58E370501F8A3
:1033F400EFF04FFB6F00000063800502930710009D
:103404006382F5021307100063EAF5003307A7028D
:10341400938717006FF05FFF130710001305070071
:1034240067800000130705006FF05FFF130101FFC1
:1034340023261100370501F8EFF04FF2E30C05FEE7
:10344400370501F8EFF04FFA8320C10013010101A1
:1034540067800000130101FF232611003706B0F82E
:10346400B7E5F505938505109307803E3305F5020E
:10347400EFF0CFFA8320C10013010101678000003F
:10348400130101FF2326110023248100232291002C
:103494002320210193040000130900006F0000029F
:1034A400130900009307D0006308F40C93972400D9
:1034B400B387970093941700B3049900370501F874
:1034C400EFF0CFE9E30C05FE370501F8EFF0CFF19B
:1034D4001304050093050500370501F8EFF0CFE864
:1034E40093070003E30EF4FA930710036306F4044E
:1034F400930720036306F404930730036306F4047C
:10350400930740036306F404930750036306F4042B
:10351400930760036306F404930770036306F404DB
:10352400930780036306F40493079003E31CF4F603
:10353400130990006FF01FF7130910006FF09FF646
:10354400130920006FF01FF6130930006FF09FF588
:10355400130940006FF01FF5130950006FF09FF43A
:10356400130960006FF01FF4130970006FF09FF3EC
:10357400130980006FF01FF3138504008320C1003A
:103584000324810083244100032901001301010164
:1035940067800000130101FD232611029307300008
:1035A4002324F100B78701009387076A2326F100DB
:1035B400930720032328F1009307D007232AF1005F
:1035C400232CF1009307A00F232EF1009305810013
:1035D400375501F8EFF0DF8A8320C102130101039C
:1035E40067800000130101FC2320110023225100F5
:1035F40023246100232671002328A100232AB1007B
:10360400232CC100232ED1002320E1022322F10226
:1036140023240103232611032328C103232AD103CE
:10362400232CE103232EF103EFD05FEA8320010072
:1036340083224100032381008323C1000325010168
:1036440083254101032681018326C1010327010249
:1036540083274102032881028328C102032E010328
:10366400832E4103032F8103832FC103130101041C
:103674007300203013D74501B70710009387F7FF75
:1036840013D846011377F77F9308F07F33F3B7001D
:10369400130E0500B3F7D70093D5F501930E06007A
:1036A4001378F87F93D6F601630A170563021803AB
:1036B400631C07043365A3006316080233E6C700DE
:1036C4006312060293060000630205066F000002FF
:1036D400B3E8C700E38E08FC9306200013850600B8
:1036E4006780000063020504638ED504930610000E
:1036F400638E05029306F0FF6F0040033365A30059
:10370400E31C05FC6308E8026316080033E6C700FF
:10371400E30E06FCE39CD5FC6356E802E39C06FC3E
:10372400930610006F008000E38606FC13850600F4
:103734006780000033E6C700E30E06FC9306200012
:103744006FF0DFF9634A0701E3E267FA630CF30001
:1037540093060000E37CF3FCE38E05F893860500F2
:103764006FF0DFFCE3E4CEF993060000E370DEFDC6
:103774006FF09FFE130101FC93D74501232C8102B6
:1037840023282103232441031394C500232E11026B
:10379400232A910223263103232251032320610388
:1037A400232E710193F7F77F130905001354C40006
:1037B40013DAF501638C07141307F07F6388E7209D
:1037C400131534001354D9013364A4003705800061
:1037D4003364A40093143900138B17C093090000B9
:1037E400930B000093D746011399C60093F7F77F14
:1037F4001359C90093DAF601638207181307F07F9F
:10380400638CE704131539001359D6013369A900F1
:10381400938717C0370580003369A90093153600D4
:10382400330BFB0013080000B3465A019307F00062
:103834001385060013061B0063EC3721974700002D
:103844009387C70B93992900B389F90003A709004B
:103854003307F70067000700B365C900130BFB7F4C
:103864006390051C93E92900130900001308200044
:103874006FF09FFB930600009307F07F3704080066
:10388400930400001314C400939747011354C40015
:103894009396F6013364F4003364D4009305040072
:1038A4008320C10303248103138504000329010336
:1038B400832441038329C102032A8102832A41020A
:1038C400032B0102832BC101130101046780000053
:1038D40013850A001304090093840500930B080060
:1038E40093072000638CFB1493073000E384FBF8F8
:1038F40093071000930605006394FB4C93070000A4
:1039040013040000930400006FF0DFF7B364A40015
:10391400638E040E2326D1002324C10063080438D7
:1039240013050400EF104035032681008326C100EF
:1039340093070500930555FF1307D001938487FF70
:103944003307B740331494003357E90033648700D6
:10395400B3149900130BD0C0330BFB4093D746012B
:103964001399C60093F7F77F93090000930B0000A7
:103974001359C90093DAF601E39207E8B365C90065
:1039840063840506630C092E130509002324C10072
:10399400EF10802E0326810093070500930655FF40
:1039A4001307D001938587FF3307D7403319B90034
:1039B4003357E60033692701B315B600B307FB405C
:1039C400138BD7C0130800006FF01FE6B364A40084
:1039D400639404021304000093098000130BF07F26
:1039E400930B20006FF01FE093E919001309000006
:1039F400130810006FF05FE3930405009309C000FF
:103A0400130BF07F930B30006FF0DFDD1304000025
:103A140093094000130B0000930B10006FF09FDC20
:103A240093E9390093050600130830006FF0DFDFD7
:103A34009307200013050A00E398FBEA93060500A8
:103A44009307F07F13040000930400006FF09FE3DA
:103A5400370E01001307FEFF93D7040113D80501A5
:103A6400B3F4E400B3F5E500338795023383B7027A
:103A740013550701B3089802B3886800330515018C
:103A8400338F070363746500330FCF01B70E010052
:103A94009388FEFF93520901337919013373150199
:103AA4003377170113130301B30899023303E300B7
:103AB40013550501B38F270313DE0801B384920263
:103AC400B384F401B3049E003387570263F4F40112
:103AD4003307D701B7090100138EF9FFB377C40187
:103AE400B3FEC401935F040193D40401B3F8C80185
:103AF400B383F502338EE400939E0E01B38E1E0150
:103B04003305D5013307F80293D80301B385BF0207
:103B14003307B700B388E8003308F80363F4B80048
:103B240033083801370701001304F7FFB3F58800A1
:103B340093D80801B3880801B3F383009395050172
:103B44003308F902B385750033892F031354080130
:103B5400B387F202B3872701B307F400B38FF203EC
:103B640063F42701B38FEF00B70201009382F2FFE1
:103B740033F7570033785800131707013305E5016D
:103B840033070701B33ED5013307C7013305B50039
:103B94003304D701B335B50033081401330FB8002B
:103BA4003337C7013334D4013364870093D7070113
:103BB400B3381801B335BF003304F400B3E5B800DB
:103BC400931495003304B4003304F401B3E46400A3
:103BD40013179400B334900013547F0113557501E7
:103BE40093179F00B3E4A40033648700B3E4F400A4
:103BF4009317740063D0070293D7140093F414004E
:103C04001317F401B3E49700B3E4E400135414006D
:103C1400130B06001307FB3F6350E00C93F774008B
:103C24006380070293F7F40013064000638AC70019
:103C340093874400B3B4970033049400938407003B
:103C44009317740063DA0700B70700FF9387F7FF41
:103C54003374F40013070B409307E07F63CAE7143F
:103C640093D734009314D40113149400B3E4F400F0
:103C74001354C4009377F77F6FF0DFC01305060079
:103C84002324C100EF00507F930655011307C001A0
:103C94009307050203268100E354D7D0130585FF5B
:103CA400930500003319A6006FF05FD1EF00D07CBC
:103CB400930555011307C0019307050203268100EC
:103CC4008326C100E35AB7C6130585FF9304000099
:103CD4003314A9006FF01FC8130610003306E64022
:103CE400631007069307EB413397F400B317F4000E
:103CF400B3D4C400B3E497003337E000B3E4E40082
:103D040093F774003356C4006380070293F7F400FA
:103D140013074000638AE70093874400B3B4970015
:103D240033069600938407009317860063D407062E
:103D34009307100013040000930400006FF09FB475
:103D440093078003E3CCC7BA9307F001E3DCC7F819
:103D5400930710FE3387E740930700023357E400CC
:103D64006308F6009307EB43B317F400B3E4F400DD
:103D7400B3349000B3E4E40013F6740013040000B9
:103D84006300060293F7F4001307400013060000D3
:103D9400E394E7F8131496001354C4001316D601E1
:103DA40093D43400B3E4C400930700006FF09FADD4
:103DB4009307F07F13040000930400006FF09FAC9E
:103DC400130B06006FF01FE5370710001307F7FF0A
:103DD400130101FE3373B70093D846013377D7003C
:103DE400935ED601232C8100232A91001313330000
:103DF40093D445019357D50113173700232E11008F
:103E0400232821012326310193F8F87F130EF07F34
:103E140033E7EE0093F4F47F13D4F50133E3670042
:103E2400131F350093D6F601931E36006386C81D12
:103E340093C61600B38514416308D4166358B01CA6
:103E440063840820B70780003367F700638AC46778
:103E54009307800363C2B73E9307F00163CAB75464
:103E640093070002B387B740B3D9BE003318F700F5
:103E7400B39EFE00336838013357B700B339D0011D
:103E8400336838013303E340B3090F41B3373F01CB
:103E94003306F3409317860063D8072A3709800056
:103EA4001309F9FF3379260163060936130509005E
:103EB400EF00905C130785FF93070002B387E74088
:103EC400B3D7F9003316E900B3E7C700B399E900A3
:103ED4006344973233079740130617009306F001A3
:103EE40063CAC644130700023307C740B3D6C900E8
:103EF4003398E9003397E7003367D700333800017C
:103F0400B369070133D6C7009304000093F779001F
:103F14006380070293F6F90093074000638AF60072
:103F24009386490033B836013306060193890600A7
:103F34009317860063DE0720138714009307F07F2E
:103F4400137414006304F726B70780FF9387F7FF01
:103F5400B377F6001398D70193D939009397970054
:103F64003368380193D7C7001377F77F9396C70058
:103F74001317470193D6C6001314F401B3E6E60001
:103F8400B3E686008320C101032481018324410117
:103F9400032901018329C100130508009385060044
:103FA4001301010267800000635EB00A638A08148B
:103FB400B70780003367F700638CC433930780032B
:103FC40063C0B71C9307F00163DAB744138805FE96
:103FD40093070002B3590701638AF50093070004AD
:103FE400B385B7403317B700B3EEEE003338D001D2
:103FF400336838016F004019B367D7019385148083
:104004006394070093C61600630ED404639A0508EC
:104014009387140093F7E77F63920724B367E30160
:104024003368D701639C041863800746631E084CF9
:10403400131835009316D3011358380033E80601DA
:10404400935733006F008012B367D701638C071E48
:104054009387F5FF638A0744638CC529938507001A
:104064006FF01FDF639205229386140093F7E67FB7
:104074006396070AB367E3016396043E63880750B7
:10408400B367D70163900752131535001318D30192
:10409400135535003368A800935733006F00000DA3
:1040A400B385984063920426B367E301638E0738AF
:1040B4009387F5FF638E074A1305F07F638EA5246B
:1040C400938507009307800363CAB7309307F00111
:1040D40063CAB74693070002B387B7403318F300A7
:1040E4003356BF00B317FF003368C800B339F0007C
:1040F4003353B30033683801330767406F00802EB1
:10410400B367D701638007149387F5FF638E072491
:104114006380C537938507006FF05FEA9307F07FEC
:104124006384F608B30EDF0133B6EE01B307E30090
:10413400B387C7001398F70193DE1E00B369D80153
:1041440013D617009384060093F77900E39407DCF1
:104154009317D60113D839003368F8009385040007
:10416400935736001307F07F638AE5069397C700D9
:1041740093D7C70013F7F57F137414006FF01FDF94
:104184003367D7013338E000B309E801B3B7E90175
:104194003386670093178600E3D807FA93841400E4
:1041A4009307F07F6392F41E137414001307F07FD7
:1041B40093070000130800006FF05FDB6398071299
:1041C40063000846131836009317D70113583800B4
:1041D4003368F8001384060093573700B367F80078
:1041E400E38407FC130400001307F07FB7070800FB
:1041F400130800006FF09FD7370680FF1306F6FF01
:1042040033F6C70093F77900B384E440E39407D00E
:104214006FF01FF413850900EF00102613078501C2
:104224009307F001E3DAE7C8130685FFB397C900E3
:10423400930900006FF0DFC93368D70133380001F8
:104244006FF09FC4131835009317D3011358380027
:104254003368F800935733006FF0DFF0B309DF41A0
:104264003309E34033363F013309C94093178900CA
:1042740063C4072633E82901E31808C29307000042
:10428400130400006FF09FEEB38598406388041612
:10429400B70680009307F07F3363D300638AF82462
:1042A4009307800363CAB7289307F00163C4B73444
:1042B40093070002B387B7403318F300B356BF0027
:1042C400B317FF003368D800B339F0003353B30099
:1042D4003368380133076700B309D801B3B7D9018C
:1042E4003386E700938408006FF0DFEAE31C08EEEE
:1042F400131835009317D301135838003368F800A6
:10430400935733006FF09FED370580009307F07FDC
:104314003363A300E398F8DA131636001318D701B1
:10432400135636003368C8009357370013840600C9
:104334006FF0DFEA130717FE9306000233D7E70096
:10434400630AD600930600043386C6403396C7003A
:10435400B3E9C90033383001B369E800130600003B
:10436400930400006FF05FDEB309DF01B307E300DD
:1043740033BFE9013386E7019317860093041000E5
:10438400E3D407DC93042000B70780FF9387F7FF8B
:10439400B377F60013D7190013F81900336807012F
:1043A4009399F701B3E9090113D617006FF01FB60B
:1043B400138805FE93070002B3590701638AF500C9
:1043C40093070004B385B7403317B700B3EEEE008C
:1043D4003338D001336838016FF01FAB3363E30126
:1043E40033386000B3890E41B3B73E013306F7405A
:1043F40093840800138406006FF0DFA9B367E30118
:104404006388071C9387F5FF638407229306F07F74
:104414006380D50E938507006FF09FE89307000231
:10442400B387B740B3D9BE003318F700B39EFE007C
:10443400336838013357B700B339D00133683801D2
:104444003303E3006FF05FD4131836009317D701DA
:104454001358380033E807011384060093573700D4
:104464006FF05FD0638607083367D701E31C07D674
:10447400131535001318D301135535003368A800FC
:10448400935733006FF09FD5E30A08DE1318360004
:104494009317D701135838003368F80013840600C3
:1044A400935737006FF09FCCB309DF41B307E34064
:1044B400333F3F013386E741930410006FF09F9D23
:1044C400131835009316D3011358380033E8060146
:1044D400935733006FF09FD0B389EE4133066740A2
:1044E40033B93E0133092641138406006FF0DF9B84
:1044F400131636001318D701135636003368C80054
:10450400935737006FF09FCDB309DF41B307E34002
:1045140033363F013386C7409317860063D6070CB2
:10452400B389EE41B3076740B3BE3E013386D7413A
:10453400138406006FF09F9D3363E30133386000FA
:104544006FF09FD9138805FE93070002B359030146
:10455400638AF50093070004B385B7403313B300AF
:10456400336F6F003338E001336838016FF09FE731
:10457400B389EE41B3076740B3BE3E013386D741EA
:1045840013840600930410006FF0DF9013183600B4
:104594009317D701135838003368F800935737003E
:1045A4006FF0DFBCB309DF01B307E30033BFE901F8
:1045B4003386E70193178600E3D807B8B70780FF6F
:1045C4009387F7FF3376F600930410006FF0DFB79C
:1045D400131636001318D701135636003368C80073
:1045E400935737006FF01FB833E8C900E30808C8D1
:1045F4006FF09FB5138805FE93070002B3590301BA
:10460400638AF50093070004B385B7403313B300FE
:10461400336F6F003338E001336838016FF0DFCB5C
:10462400130400001307F07FB70708006FF01F940E
:10463400B309DF01B307E300B3BED9013386D70161
:104644006FF09FD393D74501B70610001387F6FF89
:1046540093F7F77F1306E03F3377B70093D5F5015F
:10466400635EF6001306D041635EF60037050080F2
:104674001345F5FF3385A50067800000130500008E
:1046840067800000130630433306F6401308F00138
:104694003367D7006350C80293063041B387F640AE
:1046A400B357F7003305F040E39C05FC138507007E
:1046B400678000009387D7BEB317F7003355C50052
:1046C400B3E7A7006FF01FFE130101FF23261100BB
:1046D4002324810023229100630A05049357F541A2
:1046E400B3C4A700B384F440130405001385040085
:1046F400EF0080589306E041B386A6409307A000DC
:104704001354F40193F6F67F63C4A7061307B000AD
:104714003307A740B3D7E400130555019397C700A7
:10472400B394A40093D7C7006F00400113040000A2
:104734009306000093070000930400009397C700BA
:104744009396460193D7C7001314F401B3E7D70037
:10475400B3E787008320C10003248100138504008C
:104764009385070083244100130101016780000041
:10477400130555FFB397A4009397C70093D7C700B9
:10478400930400006FF09FFB93567501B7078000F8
:104794009387F7FF13D6750193F6F60F1308F00FFE
:1047A400B3F8A7001357F501B3F7B7001376F60F64
:1047B40013D5F501638A060363020603639A0602AE
:1047C40063140600638A0704638208046300A7066F
:1047D40013051000631E070267800000E38007FED4
:1047E4001305E0FF67800000E39C08FE630CD6021B
:1047F40063140600E38E07FCE31CA7FC635AD6028D
:10480400631805001305100067800000E31605FC1B
:104814001305F0FF6780000013050000E39A08FA0F
:1048240067800000E38A07FC6FF09FFB930600009B
:1048340063C8C600E3EE17F913050000E3FEF8F8B9
:10484400E30807FC13050700678000009356750111
:10485400B70780009387F7FF13D6750193F6F60F19
:104864001308F00FB3F8A7001357F501B3F7B70017
:104874001376F60F13D5F50163820605630E060160
:104884006392060463100602639E0700130500008A
:10489400639E080067800000E38407FE1305200080
:1048A40067800000638E08026304A70413051000E8
:1048B400E30207FE1305F0FF67800000E39008FEA3
:1048C4006304D60263140600E38207FEE310A7FE26
:1048D4006352D602E31005FE130510006780000042
:1048E400E30A05FC67800000E38207FE6FF01FFB0C
:1048F4009306000063C8C600E3EA17FB1305000033
:10490400E3FAF8F8E30807FA1305070067800000E4
:1049140037068000135775019307F6FF1377F70FD7
:104924009305E007B3F6A7009357F50163FEE5008E
:104934009305D00963FEE500370500801345F5FFB4
:104944003385A7006780000013050000678000001E
:1049540093055009B3E6C60063C0E5021306600977
:104964003307E64033D7E6003305E040E39007FE23
:1049740013050700678000001307A7F63397E600C6
:104984006FF09FFE135775011377F70F130101FFA3
:104994009307170023248100232291001314950008
:1049A4002326110093F7E70F135494009354F50151
:1049B4006382070493573400130707381314D40190
:1049C4009397C7001317470193D7C7001395F401B2
:1049D400B3E7E700B3E7A7008320C1001305040091
:1049E40003248100832441009385070013010101FE
:1049F40067800000631207046308040613050400BB
:104A0400EF0080279307A00063C6A7061307B00032
:104A14003307A740930755013357E4003314F400D8
:104A24009317C700130790383307A74093D7C700DD
:104A34001377F77F6FF0DFF8630204021357340033
:104A4400B7070800B367F7009397C7001314D4019E
:104A540093D7C7001307F07F6FF09FF61307F07F1B
:104A6400930700006FF0DFF51307000093070000C1
:104A74006FF01FF5130755FF3317E400130400000C
:104A84006FF01FFA93D645019397C50093F6F67F0E
:104A940093D7C70013861600939737001357D50191
:104AA4001376E67F93D5F5013367F7009318350045
:104AB4006304060A138806C89307E00F63D4070348
:104AC40093070000139597009306F00F93967601D1
:104AD400135595009395F5013365D5003365B500FD
:104AE40067800000635E000F93176500131737009B
:104AF400B337F000B3E7E70093D8D801B3E7170161
:104B040013F777006306071613F7F70093064000C0
:104B14006304D700938747003707000433F7E7009F
:104B240063080714130718001306F00F9376F70FA2
:104B3400E308C7F89397670093D7970013959700F6
:104B440093967601135595009395F5013365D50039
:104B54003365B50067800000B3671701639A0602E6
:104B6400638E0704930750009397670093D79700C9
:104B74001395970093F6F60F9396760113559500C7
:104B84009395F5013365D5003365B5006780000062
:104B9400E38807F2B7074000139597009306F00FD8
:104BA4009396760193050000135595009395F501AE
:104BB4003365D5003365B5006780000093070000B6
:104BC400139597009306000093967601135595006C
:104BD4009395F5013365D5003365B5006780000012
:104BE400930790FE6342F8069307E00137068000BE
:104BF400B38707411305F0013366C700635AF50410
:104C04001307E0FF33070741130500023357E6009B
:104C14006388A700938626CAB316D600B3E8D800E3
:104C2400B3371001B3E7E70013F777001308000068
:104C3400E31C07EC1397570093061000E34C07EEB0
:104C4400930600006FF05FF2930600006FF09FF18F
:104C5400938626C83397D8003337E000B316D600BE
:104C6400B3D8F800B367D700B3E7F8006FF0DFFB01
:104C7400930608006FF05FEFB70701006374F50453
:104C84009307F00F1307000263EEA70097370000A5
:104C94009387C7CAB387A70003C507003305A74096
:104CA400678000001355850097370000938707C974
:104CB400B387A70003C50700130780013305A74086
:104CC40067800000B70700016362F5021355850190
:104CD40097370000938787C6B387A70003C50700EB
:104CE400130780003305A7406780000013550501B2
:104CF40097370000938787C4B387A70003C50700CD
:104D0400130700013305A74067800000130101FE6B
:104D1400232C8100232A91002328210123263101F9
:104D24002324410123225101232E110013090500DC
:104D3400938905001304060093840600EF00002401
:104D44009387018103A707009307F0FF130A050067
:104D5400938A05006306F70813060400938604008B
:104D64001305040093850400EF20D023631A05067D
:104D740013060900938609001305090093850900A9
:104D8400EF20502213060000930600006310050E66
:104D94001305090093850900EF20500863180506E0
:104DA4001306000093060000130504009385040015
:104DB400EF20D0066304050C13050400938504005A
:104DC400EF104045630E0500130600009306000033
:104DD4001305040093850400EFE0DF8963420512A4
:104DE4008320C1010324810113050A0093850A006D
:104DF40083244101032901018329C100032A81007D
:104E0400832A4100130101026780000013050A0090
:104E140093850A00EF100040630C0506130600009A
:104E24009306000013050A0093850A00EF20007F13
:104E3400E31805FA1305090093850900EF10803D76
:104E4400E30005FA1305040093850400EF10803C89
:104E5400E30805F8EF20501A930720022320F500F9
:104E6400130A0000930A00006FF09FF71305040073
:104E740093850400EF20807AE31405F69737000049
:104E8400938707BC03AA070083AA47006FF05FF566
:104E94001305090093850900EF10C037E30005F8F6
:104EA4001305040093850400EF10C036E30805F6EB
:104EB40013060A0093860A0013050A0093850A0064
:104EC400EF20500E63160508EF20101393072002FD
:104ED4002320F500130600009306000013050900C3
:104EE40093850900EFE00FF9634C05029737000042
:104EF400938707B603AA070083AA47006FF05FEE03
:104F0400EF20900F930710022320F500973700003D
:104F1400938787B303AA070083AA47006FF05FEC67
:104F24001305040093850400EF1080311306040078
:104F340093860400EF20806EE30A05FA9737000099
:104F4400938787B003AA070083AA47006FF05FE93D
:104F5400EF20900A93071002130600009306000046
:104F64002320F5009385060013050600EF10507307
:104F7400130A0500938A05006FF09FE63708008046
:104F8400130101F81348F8FF2328210733F9060118
:104F9400232E1106232C8106232A9106232631076A
:104FA400232441072322510723206107232E71055F
:104FB400232C8105232A91052328A1052326B10545
:104FC400B367C900638007103374B800B707F07F74
:104FD400938A0500130A050063DC8704370810C0B0
:104FE400330804013368A800B705F03F1305000037
:104FF4006314080E8320C107032481078324410717
:10500400032901078329C106032A8106832A41064D
:10501400032B0106832BC105032C8105832C410539
:10502400032D0105832DC1041301010867800000CD
:105034006300F40AE3C427FBB707F07F630EF92487
:105044009384050093090500930C0600938D0600D4
:10505400130D000063C40A0C63940C10B706F07FB0
:105064006306D91AB706F03F630AD91CB706004095
:10507400E380DD60B706E03F6394DD0E63C20A0E91
:10508400032481078320C10703290107032A81061A
:10509400832A4106032B0106832BC105032C8105BA
:1050A400832C4105032D0105832DC10413850900BB
:1050B400938504008329C106832441071301010851
:1050C4006F00506913050000B705F03F6FF09FF2C1
:1050D40063140500E35224F7032481078320C107E6
:1050E40083244107032901078329C106032A810672
:1050F400832A4106032B0106832BC105032C81055A
:10510400832C4105032D0105832DC10417250000BF
:105114001305457D130101086F104011B706404384
:105124006350D918B706F03F634AD90293564941F0
:10513400938616C013064001E358D6541306400361
:10514400B306D64033D6DC00B316D6006398960176
:105154001376160013032000330DC340E3840CF0D0
:105164001385090093850400EF10000A630C0A04F8
:1051740013DEF401130EFEFFB366CD01638606123F
:10518400B706E04163D42615B706F043E3DC2635C1
:105194003707F03F635AE40C63DC0D0897370000CF
:1051A4009387878D03A6070083A64700130506008F
:1051B40093850600EFE00FDC6FF0DFE3EF10C0042F
:1051C40063140A0E630A04009396240093D62600FF
:1051D4003706F03FE39EC6F863CC0D08E3DC0AE033
:1051E400B70710C0B307F400B3E7A701E396074E6F
:1051F4001306050093860500EFE01FBD13060500A6
:1052040093860500EF10D0496FF0DFDE370510C03C
:105214003305A40033653501E30605EA3707F03F9B
:10522400E342E42A93850D0013050000E3D40DDC6A
:1052340013050000930500006FF0DFDB1385090000
:1052440093850400E3D80DDA972700009387477FFE
:1052540003A5070083A5470013860900938604006D
:10526400EF1010446FF01FD9E34AB0F36FF05FFC06
:10527400172700001307C77C930C050093870500CC
:10528400032507008325470013860C009386070037
:10529400EF1010416FF09FF4E30406DA6FF01FD4AF
:1052A400130D20006FF05FDB138609009386040062
:1052B4001385090093850400EFE01FB11306050070
:1052C40093860500EF10D03D6FF0DFD2B706F07F74
:1052D400B3F49600130600006394040297260000BA
:1052E4009386067D03A6060083A646002324C101F7
:1052F400EFE04FC8032E8100138405001306B0FCB1
:10530400B7051000935E44411388F5FFB7A6030068
:10531400938E1EC033780401370CF03F9386E688E1
:10532400B38ECE00336C8801E3D8061BB7B60B00EE
:1053340093869667E3DE063B972A0000938A4A70B9
:10534400938E1E00330CBC4083A70A0003A84A00B6
:1053540023280100232A0100232C0102232E010209
:10536400930900002324F100232601010324810072
:105374008324C10093050C001306040093860400E3
:10538400232AD1032328C10313090500EFE0DFA377
:10539400130B0500938B0500130604009386040089
:1053A4001305090093050C00232481002326910092
:1053B400EF10C026130605009386050003A50A0016
:1053C40083A54A0093040000EF10902D13060500F6
:1053D40093860500232CA100232EB10013050B0096
:1053E40093850B00EFE00FB9135F1C40B706002054
:1053F400336FDF00B7060800330FDF00B3093F0146
:10540400130A05009386090013060000138504009F
:1054140013840500EFE00FB613060500938605001C
:1054240013050B0093850B00EFE01F9A0326810000
:105434008326C100130B0500938B050013050000A0
:1054440093850900EFE05F98130605009386050035
:105454001305090093050C00EFE01F971386040061
:1054640093060400EFE00FB11306050093860500D0
:1054740013050B0093850B00EFE01F9503288101B2
:105484008328C101972B0000938B0B661306080039
:1054940093860800EFE00FAE13060A00930604009B
:1054A4002324A1002326B10013050A009305040058
:1054B400EFE04FAC972600009386066003A6060033
:1054C40083A646001309050093890500EFE08FAA1F
:1054D400972600009386C65E03A6060083A64600B0
:1054E400130B0000130C0000EF1040131306090007
:1054F40093860900EFE00FA8972600009386C65C08
:1055040003A6060083A64600EF1040111306090007
:1055140093860900EFE00FA6972600009386465B6A
:1055240003A6060083A64600EF10400F13060900E9
:1055340093860900EFE00FA4972600009386C659CE
:1055440003A6060083A64600EF10400D13060900CB
:1055540093860900EFE00FA2972600009386465831
:1055640003A6060083A64600EF10400B13060900AD
:1055740093860900232CA100232EB10013050900F2
:1055840093850900EFE00F9F032781018327C10161
:10559400130605009386050013050700938507008D
:1055A400EFE04F9D1309050093890500138604005D
:1055B4009306040013050A0093050400EF10000687
:1055C400032681008326C100EFE0CF9A1306090069
:1055D40093860900EF1080041309050093890500E0
:1055E4001386040093060400138504009305040045
:1055F400EFE04F9803A60B0083A64B002324A102DF
:105604002326B102EF1080011306090093860900D6
:10561400232C2101232E3101EF10400013890500B2
:1056240013060B00938605001385040093050400FC
:10563400EFE04F9403A60B0083A64B002320A102A6
:105644002322B10213050B0093050900EFE0CFF705
:10565400032F8102832FC10213060F0093860F00CC
:10566400EFE08FF6130605009386050003258101FC
:105674008325C101EFE04FF513060A0093060400E9
:10568400EFE04F8F13040500938405000325810088
:105694008325C10013060B0093060900EFE08F8DEC
:1056A4001306050093860500130504009385040082
:1056B400EF00D076032B0102832B41021304050073
:1056C40093840500130605009386050013050B005B
:1056D40093850B00EF009074972600009386464153
:1056E40003A6060083A6460013050C00138A0500D2
:1056F400EFE04F88130905009389050013060B009A
:1057040093860B0013050C0093050A00EFE0CFEB22
:105714001306050093860500130504009385040011
:10572400EFE08FEA972600009386063D03A6060065
:1057340083A64600EFE00F84972600009386463C3C
:1057440003A6060083A646001304050093840500FF
:1057540013050C0093050A00EFE0CF811306050042
:10576400938605001305040093850400EF00106B75
:10577400032681038326C103EF00506A832E41036D
:10578400130B0500938B050013850E00EFE0DFF388
:10579400130405009384050013060B0093860B0085
:1057A4001305090093850900EF00506703260101E2
:1057B40083264101EF0090661306040093860400DB
:1057C400EF00D0651306000013050600938604005D
:1057D400130604009384050013040500EFE0CFDEF4
:1057E4000326010183264101EFE00FDE13060900C1
:1057F40093860900EFE04FDD13060500938605004C
:1058040013050B0093850B00EFE00FDC032E01035F
:1058140013090500938905001303FDFF336EC301CB
:1058240063180E48972600009386862483A70600F3
:1058340003A846002324F10023260101130C0000D1
:1058440013060C0093860D0013850C0093850D0040
:10585400EFE08FD71306040093860400EFD09FF186
:10586400130B0500938B050013860C0093860D0023
:105874001305090093850900EFD0DFEF1306050037
:105884009386050013050B0093850B00EF00105958
:10589400130905009389050013060C0093860D0077
:1058A4001305040093850400EFD0DFEC1306050014
:1058B400938605001304050093840500130509006D
:1058C40093850900EF009055B7079040130A05002F
:1058D400138B0500938B050063C4F536B387F5403D
:1058E400B3E7A7006394075E972700009387C72157
:1058F40003A6070083A64700130509009385090042
:10590400EF00D051130D0500938D0500130604001C
:105914009386040013050A0093050B00EFE0CFCA39
:10592400130605009386050013050D0093850D00ED
:10593400EF109057634CA05893D74B4193F7F77FE0
:1059440037051000938727C0B357F540B387770115
:1059540013D747411377F77F130717C0130AF5FFCF
:10596400B355EA4093C5F5FFB3F5F50033FA4701A3
:1059740093074001336AAA003387E7401306000007
:1059840093860500335AEA4063D40B00330A40413E
:105994001305040093850400EFE00FC3130605000C
:1059A400938605001304050093840500130509007C
:1059B40093850900EF009046138B0500931D4A015F
:1059C40017270000130747150326070083264700FF
:1059D400130C000013050C0093050B00EFD09FD9A6
:1059E400130D0B00938B0500130B05001306040025
:1059F4009386040013050C0093050D00EFE0CFBC63
:105A04001306050093860500130509009385090014
:105A1400EFE08FBB1727000013078710032607004A
:105A240083264700EFD01FD5172700001307C70FA1
:105A3400032607008326470013040500938405000A
:105A440013050C0093050D00EFD0DFD213060500FB
:105A5400938605001305040093850400EF00103CB1
:105A640013090500938905001306050093860500B4
:105A740013050B0093850B00EF00503A13060B003F
:105A840093860B001304050093840500EFE0CFB365
:105A94001306050093860500130509009385090084
:105AA400EFE08FB2130B0500938B0500130604007F
:105AB400938604001305040093850400EFD09FCB64
:105AC400972700009387C70603A6070083A647000D
:105AD4001309050093890500EFD0DFC9972700005B
:105AE4009387870503A6070083A64700EFE0CFADA1
:105AF4001306090093860900EFD0DFC7972700003B
:105B04009387070403A6070083A64700EF0010311C
:105B14001306090093860900EFD0DFC5972700001C
:105B24009387870203A6070083A64700EFE0CFA967
:105B34001306090093860900EFD0DFC397270000FE
:105B44009387070103A6070083A64700EF00102DE3
:105B54001306090093860900EFD0DFC11306050080
:105B6400938605001305040093850400EFE0CFA598
:105B74001306050093860500130C0500938C05009D
:105B84001305040093850400EFD0DFBE97260000C0
:105B9400938686FC03A6060083A646001309050027
:105BA4009389050013050C0093850C00EFE0CFA149
:105BB4001306050093860500130509009385090063
:105BC400EF10002E130905009389050013060B003E
:105BD40093860B001305040093850400EFD09FB94E
:105BE40013060B0093860B00EF00502313060500E9
:105BF400938605001305090093850900EFE0CF9C07
:105C04001306040093860400EFE00F9C93860500BE
:105C14001306050083A54A0003A50A00EFE0CF9A06
:105C2400B387BD0093D647416350D03293850700B4
:105C3400032681008326C100EFD0DFB36FF08FBB52
:105C440093971500B7D6904093D717009386F6BF65
:105C540063D2F626B7376F3F93870740B387F500C3
:105C6400B3E7A700639007021306040093860400B9
:105C7400EFE08F951306090093860900EF10D022F8
:105C8400E34C05CA17240000130484E80326040027
:105C940083264400032581008325C100EFD09FADF6
:105CA4000326040083264400EFD0DFAC6FF08FB4EA
:105CB40083A70A0003A84A002324F1002326010134
:105CC4006FF0DFB763D60DD6B7050080130500006B
:105CD400B3C5B5016FF00FB2972A0000938A4AD674
:105CE4006FF08FE6B706F03F1386E6FF635686CA69
:105CF40063CC86D6972A0000938A8AD403A60A0026
:105D040083A64A002328C101EFE00F8C97260000E8
:105D1400938606D703A6060083A64600130405004F
:105D240093840500EFD01FA5972600009386C6D55F
:105D340003A6060083A646001309050093890500FF
:105D44001305040093850400EFD0DFA2972600001A
:105D5400938606D403A6060083A646002324A10046
:105D64002326B1001305040093850400EFD09FA0FF
:105D74009386050097250000938505D21306050038
:105D840003A5050083A54500EFE00F841306040076
:105D940093860400EFD01F9E93860500972500008C
:105DA400938505D01306050003A5050083A54500CA
:105DB400EFE08F81130B0500938B0500130604009D
:105DC400938604001305040093850400EFD09F9A82
:105DD400130605009386050013050B0093850B003D
:105DE400EFD05F9997260000938606CC03A60600A1
:105DF40083A64600EFD01F98032781008327C100A4
:105E04001306050093860500130507009385070014
:105E1400EFD09FFB1306050093860500130B0500C6
:105E2400938B05001305090093850900EF00007F9B
:105E340013060000938609001305060013040600E8
:105E44001306090093840500EFD01FF8130605001C
:105E54009386050013050B0093850B00EFD0DFF646
:105E64001309050093890500032E01016FF0DF9AE1
:105E740013860900138509009386040093850400A2
:105E8400EFD05F8F6FF00F97639A0CB2B306D640D2
:105E94003356D940B316D600138D0C006384260103
:105EA4006FF04F9C1376160013032000330DC3408C
:105EB4006FF04F9B3707E03F930D0000130A00007B
:105EC400E350F7B093D747416FF09FA71724000022
:105ED400130484BA6FF09FDB930710006304FD0082
:105EE4006FF04F91B7070080B3C5B7006FF08F9084
:105EF40097260000938646B683A7060003A84600AB
:105F0400972600009386C6B52328F100232A0101B1
:105F140083A7060003A84600972600009386C6B40C
:105F2400232CF102232E010383A7060003A84600B5
:105F3400B70904002324F10023260101972A000055
:105F4400938A0AB06FF08FC213060A00EF008051E3
:105F54006FF01FCE130101FF3707F07F2324810068
:105F640023229100232611003378B700938405007F
:105F7400130405006308E8209387050093060500D1
:105F8400635AB01413DE4541630E0E243707100024
:105F94001306F7FFB3F7C700B3E7E700130E1EC0FD
:105FA4001397170013761E0093D7F601B307F70073
:105FB40013971600630A06001357F7019397170007
:105FC400B387E70013972600135E1E409305600114
:105FD400930E000093060000370620003385C600A8
:105FE4001358F7019385F5FF63C8A700B387A7404B
:105FF400B306C500B38ECE0093971700B307F8001D
:106004001317170013561600E39A05FC1303000038
:1060140013080002370600806F004002638ED71217
:106024001355F701939717001308F8FFB387A700D8
:106034001317170013561600630608043305B60039
:10604400E3DEF6FCB305C50093880600634E050E37
:10605400B387D740B336A700B387D7403307A740E9
:106064001355F701939717001308F8FF3303C30080
:1060740093860800B387A70013171700135616005A
:10608400E31E08FAB3E7E7006394070E13581300FE
:1060940013D71E40B704E03F93FE1E00B3049700DD
:1060A40063860E00B70700803368F80013174E01AB
:1060B4001304080033079700130504008320C1006C
:1060C4000324810083244100930507001301010187
:1060D4006780000013971500135717003368A70053
:1060E40013870500E30A08FC639C050C93D5B600EE
:1060F4009387B7FE1387050093965601E38805FE40
:1061040013D64501631A060E130600006F008000C3
:1061140013060500131717009315B700130516008F
:10612400E3D805FE9308000213880600B388A8404C
:1061340093050700B396A60033571801338EC74062
:10614400B367B7006FF09FE493C8F5FF93D8F801E5
:10615400B38816016FF0DFEFE364A7ECB305C50065
:10616400E34405FE93880700930700006FF01FEFD8
:106174009307F0FF630EF306130813001358180077
:106184006FF01FF11306050093860500EFD08FDE34
:106194001306040093860400EF004048130405002E
:1061A400130504008320C100032481001387050024
:1061B4008324410093050700130101016780000057
:1061C4001306050093860500EFD01FC013060500D3
:1061D40093860500EF00D04C1304050013870500D7
:1061E4006FF09FED13870500930700006FF0DFF158
:1061F400938E1E006FF0DFE91388060093080002F7
:106204001306F0FF6FF05FF39395150093D5150017
:10621400678000009395150093D51500370510800D
:106224003385A5001355F50167800000972700000A
:106234009387079303A5070083A5470067800000A1
:1062440013D74541130101FD1377F77F23248102FE
:10625400232611022322910223202103232E31011C
:10626400130617C0930830019387050093060500B1
:10627400138E050013D4F50163CCC8166348060CCD
:10628400B70510009385F5FFB3D5C54033F5F50088
:106294003365D50093880600138307006306050859
:1062A40093D5150033F8F5003368D8006306080267
:1062B4009306E7BE370E040093B6160093C5F5FFA8
:1062C40037080080B306D040B3F7F5003356CE400C
:1062D4003378D80033EEC700972700009387C78828
:1062E400131334003383670003240300832443001F
:1062F4001306080093060E0013050400938504009A
:10630400EF00C0312324A1002326B100032581001E
:106314008325C1001306040093860400EFD0DFAA8E
:1063240093080500138305008320C102032481021E
:1063340083244102032901028329C1011385080032
:10634400930503001301010367800000B704008074
:1063540093C4F4FF33F7B4003367A7009308050030
:1063640013830500E30207FC9397C50093D7C70086
:1063740033E7A700B307E040B3E7E7009716000050
:106384009386867E13173400B386E60093D7C7003E
:1063940003A9060083A946003707FEFF3703080058
:1063A4003377B70033F367003363E30093060300E6
:1063B400130605009385090013050900EF00002664
:1063C4002324A1002326B100032581008325C100D5
:1063D4001306090093860900EFD01F9FB3F4B4009D
:1063E4001313F40133E36400930805006FF0DFF343
:1063F4009308300363D6C8021307004093080500CE
:1064040013830500E312E6F21306050093060E005B
:10641400EF00C02093080500138305006FF0DFF040
:106424001307D7BE1306F0FF3356E600B375A60074
:106434009308050013830700E38805EE135616003E
:10644400B377A60013080500E38807E8370800407F
:106454001346F6FFB376A6003357E84033E8E60068
:106464006FF09FE7130101FF93D745412324810077
:106474002326110093F7F77F130406006390070A9D
:106484009397150093D71700B3E7A7006380070815
:10649400971700009387476E03A6070083A647005B
:1064A400EFD04FADB747FFFF938707CB13870500A6
:1064B400634AF41293D7454193F7F77F9387A7FC78
:1064C400B307F4009306E07F63CEF606634AF00E4A
:1064D4009306B0FC63D6D70AB7C700009387073585
:1064E40063C28706971700009387876203A8070093
:1064F40083A8470063CA051003A6070083A64700C4
:106504001305080093850800EFD0CFA68320C100AF
:106514000324810013010101678000009306F07FCA
:1065240013870500E39ED7F813060500938605003C
:10653400EF00C00E8320C100032481001301010178
:1065440067800000971700009387075303A807008C
:1065540083A84700E3D205FA171700001307476220
:10656400032807008328470003A6070083A64700E3
:106574001305080093850800EFD0CF9F6FF01FF933
:10658400B70510809385F5FF938767033377B700CA
:1065940093974701B3E7E700171700001307475F16
:1065A400032607008326470093850700EFD08F9CBE
:1065B4008320C100032481001301010167800000CE
:1065C4008320C10003248100B70510809385F5FF63
:1065D4003377B70093954701B365B7001301010101
:1065E40067800000971600009386865203A6060073
:1065F40083A64600EFD00F988320C10003248100B6
:106604001301010167800000171700001307C75723
:1066140003280700832847006FF01FEE3708100097
:10662400130101FE1308F8FF3377B800232A910001
:106634003378D80093D4450113D34601131E370091
:10664400232631011357D501131838009357D60167
:1066540093F4F47F1373F37F232E1100232C810012
:106664002328210193D9F50193DEF6013367C7018D
:10667400131F350033E80701931F3600338E64403F
:106684006384D91D6358C017630A0320B7068000CA
:106694009307F07F3368D800638EF4409307800338
:1066A40063CAC73D9307F00163C6C75513050002CB
:1066B4003305C541B3D7CF01B316A8003399AF0052
:1066C400B3E6F60033392001B357C80133E9260194
:1066D4003307F74033092F41B3372F013306F7400F
:1066E4009317860063D2072A370780001307F7FF42
:1066F4003374E600630E043413050400EFE0CFD7CF
:10670400130785FF93070002B387E740B357F900E7
:106714003316E400B3E7C7003319E900634C97303C
:1067240033059740130615001307F0016346C74469
:10673400130700023307C740B356C9003319E900F1
:106744003397E7003367D7003339200133692701D2
:1067540033D6C7009304000093777900638007025F
:106764001377F90093074000630AF7001307490001
:1067740033392701330626011309070093178600CE
:1067840063D80720138514009307F07F93850900CD
:10679400630CF524B70780FF9387F7FFB377F60000
:1067A4009398D7011359390093979700B3E82801B8
:1067B40093D7C7001375F57F9396C700131545014A
:1067C4008320C1010324810193D6C6009395F5016A
:1067D400B3E6A600B3E6B600832441010329010110
:1067E4008329C10013850800938506001301010263
:1067F4006780000063140E0C138314001373E37F8B
:1068040063100328B367E701B368F8016396041EB5
:106814006380074C638808503309FF41B30707417D
:1068240033362F013386C7409317860063D4075A43
:106834003389EF41B307E84033B62F013386C740AD
:1068440093890E006FF05FF1635AC00F6308030C65
:10685400B70680009307F07F3368D800638EF44452
:106864009307800363CCC7159307F00163DAC73F2E
:1068740013090EFE93070002B3562801630AFE00B3
:10688400130900043309C94133192801B3EF2F0157
:106894003339F0013369D9006F00C012B367F801CE
:1068A400638607229307FEFF638407449306F07F01
:1068B4006302DE20138E07006FF05FDEB3059340A2
:1068C40063960428B367E7016382073C9387F5FF67
:1068D400638C07509306F07F6382D5289385070065
:1068E4009307800363CEB7329307F00163C2B74ABC
:1068F40093070002B387B7403319F700B356BF00BC
:10690400B317FF003369D900B337F0003357B7002A
:106914003369F9003308E8406F000031B367F801C8
:106924006384073E9307FEFF638207289306F07F84
:106934006304DE38138E07006FF09FF263160E1A9D
:106944009386140093F7E67F639A073EB367E701E3
:10695400639E04346388074AB367F8016384073C81
:106964003309FF01B3070701333FE9013386E70128
:106974009317860063DA0700B70780FF9387F7FF52
:106984003376F6009304100093777900E39A07DCDA
:106994009317D60193583900B3E8F800935736009B
:1069A4001307F07F638AE4069397C70093D7C70061
:1069B40013F5F47F938509006FF01FE03369F80144
:1069C400333920013309E901B337E9013386E7009C
:1069D40093178600E3DA07FA938414009307F07F91
:1069E4006396F41E938509001305F07F9307000056
:1069F400930800006FF05FDC639C070A6384084619
:106A0400931636009317D80193D63600B3E8D7000F
:106A140093890E0093573800B3E7F800E38407FC2A
:106A2400930500001305F07FB707080093080000E2
:106A34006FF09FD8370680FF1306F6FF33F6C700C2
:106A440093777900B384E440E39C07D06FF05FF45C
:106A540013050900EFE04FA2130785019307F00126
:106A6400E3D2E7CA130685FFB317C9001309000070
:106A74006FF0DFCA3369F801333920016FF09FC525
:106A84003309FF413306074133342F013304864071
:106A94009317840063CC072CB3688900E39C08C473
:106AA4009307000093090000930400006FF0DFEFE8
:106AB400E39808F6131535009317D70113553500DD
:106AC400B3E8A700935737006FF01FF5131535008F
:106AD4009317D70113553500B3E8A70093040E00AC
