:02000004F90001
:1000000097110000938101DD138101921385C18056
:100010009385C1801386C18163FCC50083220500DE
:1000200023A055001305450093854500E3E8C5FE70
:100030001385C181938501826378B5002320050073
:1000400013054500E36CB5FEEF000051EF00004FD3
:080050006F0000006780000052
:1000580083A7C5002324F50083A705009387F7FF2E
:1000680003A7450013178700B3E7E70003A7850038
:1000780013170701B3E7E7002326F50067800000A0
:10008800B7470F0093870724B3D5F502B7C7000019
:10009800938787FF3306F600832706003385A5027A
:1000A8003305F50083270600B307F540E3DC07FEB8
:1000B80067800000130101FE232E110093078000C2
:1000C8002320F10023220100232401009307B00616
:1000D8002326F10093050100370501F8EFF05FF7DB
:1000E8008320C10113010102678000000325450038
:1000F8001315050113550501678000000325450008
:100108001355050167800000130101FF2326110024
:100118002324810023229100130405009384050001
:1001280013050400EFF09FFCE30C05FE93E40410B4
:10013800232094008320C1000324810083244100EC
:100148001301010167800000130101FF232611003C
:10015800232481001304050013050400EFF01FF9A0
:10016800E30C05FE930700202320F4001305040088
:10017800EFF0DFF8E30C05FE032504001375F50F17
:100188008320C1000324810013010101678000005E
:10019800130101FF2326110023248100232291004B
:1001A800130405009384050013050400EFF01FF401
:1001B800E30C05FEB717000093870788B3E4F40043
:1001C800232094008320C10003248100832441005C
:1001D8001301010167800000130101FF23261100AC
:1001E8002324810023229100130405009384050031
:1001F80013050400EFF09FEFE30C05FEB7170000AE
:1002080093870780B3E4F400232094008320C1007F
:100218000324810083244100130101016780000049
:1002280083A7050003A7450013171700B3E7E700E6
:1002380003A7850013174700B3E7E7002324F50059
:1002480083A7C5002320F50283A705012322F50211
:1002580083A745012324F50283A785012326F502F8
:1002680067800000130101FF232611002324810069
:10027800130405003706B0F8B7E5F50593850510B2
:1002880013051000EFF0DFDF13050400EFF01FE6A1
:1002980093070010E31AF5FE8320C10003248100B0
:1002A8001301010167800000130101FF23261100DB
:1002B800EFF01FEE8320C1001301010167800000E9
:1002C800130101FF23261100EFF01FF18320C10065
:1002D8001301010167800000130101FD23261102AB
:1002E8002324810213040500232201002324010092
:1002F80023260100930720002328F100232AF10078
:10030800232CF100232EF10093054100EFF05FF15B
:1003180013050400EFF01FF58320C10203248102B6
:100328001301010367800000130101FF2326110058
:1003380023248100232291001304050093840500DF
:10034800EFF09FF99385040013050400EFF05FF7C1
:100358008320C1000324810083244100130101018B
:1003680067800000130101FF232611009305B00ADE
:10037800EFF09FD98320C1001301010167800000BD
:10038800130101FF23261100232481002322910059
:100398001304050093840500EFF01FF11305040012
:1003A800EFF05FFC9385040013050400EFF05FF1A4
:1003B80013050400EFF01FEB8320C1000324810024
:1003C800832441001301010167800000130101FE2D
:1003D800232E1100232C8100232A91002328210198
:1003E8002326310113090500938405001304060030
:1003F800938906009305B000EFF01FD193D504014F
:1004080093F5F50F13050900EFF01FD093D584007D
:1004180093F5F50F13050900EFF01FCF93F5F40FCF
:1004280013050900EFF05FCE9305000013050900DE
:10043800EFF09FCD9304000063FE3401130509001B
:10044800EFF09FD02300A400938414001304140039
:100458006FF09FFE8320C1010324810183244101A1
:10046800032901018329C1001301010267800000EB
:10047800130101FE232E1100232C8100232A910051
:1004880023282101232631012324410113040500D7
:10049800938405001309060093890600130A0700D0
:1004A800EFF09FE093060A00138609009305090000
:1004B80013050400EFF09FF1938504001305040071
:1004C800EFF01FE08320C10103248101832441014F
:1004D800032901018329C100032A810013010102B4
:1004E80067800000130101FF232611009305000017
:1004F800374501F8EFF05FE393050000374501F851
:10050800EFF01FE837770000130707BCB70600F9BC
:100518003706480093050000374501F8EFF05FF50E
:10052800B70700F9E78007008320C1001301010124
:1005380067800000130101FF23261100EFF09FB729
:10054800EFF05FFA8320C10013010101678000000A
:10055800130101FF23248100232021011384C1807A
:100568001389C18033098940232611002322910071
:1005780013592940630E09009304000083270400DF
:100588009384140013044400E7800700E31899FEDD
:100598001384C1801389C1803309894013592940C4
:1005A800630E090093040000832704009384140059
:1005B80013044400E7800700E31899FE8320C10074
:1005C8000324810083244100032901001301010150
:0405D8006780000038
:0E05DC00000000000000000000000000000011
:04000005F9000000FE
:00000001FF
