:02000004F90001
:1000000097110000938181F323A00182732540F1B1
:10001000630E050203A50182E30E05FE0F00200218
:100020000F10000083A7C181130500009305000095
:10003000130600006780070023AEA1800F001001A7
:100040001305100023A0A182678000001381819214
:1000500013850181938501811386C18163FCC500ED
:100060008322050023A05500130545009385450014
:10007000E3E8C5FE1385C181938581826378B5006D
:100080002320050013054500E36CB5FEEF008063F7
:0C009000EF0080616F000000678000003E
:10009C0083A7C5002324F50083A705009387F7FFEA
:1000AC0003A7450013178700B3E7E70003A78500F4
:1000BC0013170701B3E7E7002326F500678000005C
:1000CC00B7470F0093870724B3D5F502B7C70000D5
:1000DC00938787FF3306F600832706003385A50236
:1000EC003305F50083270600B307F540E3DC07FE74
:1000FC0067800000130101FE232E1100930780007E
:10010C002320F10023220100232401009307B006D1
:10011C002326F10093050100370501F8EFF05FF796
:10012C008320C101130101026780000003254500F3
:10013C0013150501135505016780000003254500C3
:10014C001355050167800000130101FF23261100E0
:10015C0023248100232291001304050093840500BD
:10016C0013050400EFF09FFCE30C05FE93E4041070
:10017C00232094008320C1000324810083244100A8
:10018C001301010167800000130101FF23261100F8
:10019C00232481001304050013050400EFF01FF95C
:1001AC00E30C05FE930700202320F4001305040044
:1001BC00EFF0DFF8E30C05FE032504001375F50FD3
:1001CC008320C1000324810013010101678000001A
:1001DC00130101FF23261100232481002322910007
:1001EC00130405009384050013050400EFF01FF4BD
:1001FC00E30C05FEB717000093870788B3E4F400FF
:10020C00232094008320C100032481008324410017
:10021C001301010167800000130101FF2326110067
:10022C0023248100232291001304050093840500EC
:10023C0013050400EFF09FEFE30C05FEB717000069
:10024C0093870780B3E4F400232094008320C1003B
:10025C000324810083244100130101016780000005
:10026C0083A7050003A7450013171700B3E7E700A2
:10027C0003A7850013174700B3E7E7002324F50015
:10028C0083A7C5002320F50283A705012322F502CD
:10029C0083A745012324F50283A785012326F502B4
:1002AC0067800000130101FF232611002324810025
:1002BC00130405003706B0F8B7E5F505938505106E
:1002CC0013051000EFF0DFDF13050400EFF01FE65D
:1002DC0093070010E31AF5FE8320C100032481006C
:1002EC001301010167800000130101FF2326110097
:1002FC00EFF01FEE8320C1001301010167800000A5
:10030C00130101FF23261100EFF01FF18320C10020
:10031C001301010167800000130101FD2326110266
:10032C00232481021304050023220100232401004D
:10033C0023260100930720002328F1001307500007
:10034C00232AE100232CF10093077000232EF100E7
:10035C0093054100EFF0DFF013050400EFF09FF47C
:10036C008320C10203248102130101036780000072
:10037C00130101FF23261100232481002322910065
:10038C001304050093840500EFF01FF99385040016
:10039C0013050400EFF0DFF68320C1000324810075
:1003AC00832441001301010167800000130101FF48
:1003BC00232611009305B00AEFF01FD98320C1004A
:1003CC001301010167800000130101FF23261100B6
:1003DC009307D009630CF6009305900EEFF0DFD66F
:1003EC008320C10013010101678000009305900276
:1003FC00EFF09FD56FF0DFFE130101FF23261100F4
:10040C0023248100232291002320210113040500C1
:10041C0093840500EFF05FED9305000913050400CC
:10042C00EFF09FD29305000013050400EFF0DFD12D
:10043C009305000013050400EFF01FD19305000095
:10044C0013050400EFF05FD013050400EFF0DFD3C9
:10045C00130905003706B0F8B7E5F50593850510C7
:10046C001305C012EFF0DFC59385040013050400DB
:10047C00EFF01FE913050400EFF0DFE293850400B1
:10048C0013050400EFF05FE61306090093850400E2
:10049C0013050400EFF05FF39385040013050400CB
:1004AC00EFF01FE613050400EFF0DFDF8320C1003F
:1004BC00032481008324410003290100130101015D
:1004CC0067800000130101FF232611002324810003
:1004DC00232291001304050093840500EFF0DFE064
:1004EC0013050400EFF09FEC938504001305040042
:1004FC00EFF01FE113050400EFF0DFDA3706B0F878
:10050C00B7E5F5059385051013054006EFF05FBBC5
:10051C008320C100032481008324410013010101C5
:10052C0067800000130101FE232E1100232C810093
:10053C00232A9100232821012326310113090500C8
:10054C009384050013040600938906009305B000FC
:10055C00EFF09FBF93D5040193F5F50F1305090038
:10056C00EFF09FBE93D5840093F5F50F13050900AA
:10057C00EFF09FBD93F5F40F13050900EFF0DFBC0E
:10058C009305000013050900EFF01FBC9304000055
:10059C0063FE340113050900EFF01FBF2300A40014
:1005AC0093841400130414006FF09FFE8320C10188
:1005BC000324810183244101032901018329C10002
:1005CC001301010267800000130101FE232E1100AC
:1005DC00232C8100232A9100232821012326310179
:1005EC00232441011304050093840500130906001C
:1005FC0093890600130A0700EFF01FCF93060A0039
:10060C00138609009305090013050400EFF09FF110
:10061C009385040013050400EFF09FCE8320C101E5
:10062C000324810183244101032901018329C10091
:10063C00032A81001301010267800000130101FFEE
:10064C002326110093050000374501F8EFF05FD227
:10065C0093050000374501F8EFF0DFE69305000045
:10066C00374501F8EFF05FD93707DF00B706000117
:10067C0037060E0093050000374501F8EFF0DFF464
:10068C0037050001EFF09F9AB7070001E7800700DC
:10069C008320C1001301010167800000130101FFD9
:1006AC0023261100EFF01FA5EFF05FF98320C100A6
:1006BC001301010167800000130101FF2324810055
:1006CC00232021011384018113890181330989407D
:1006DC00232611002322910013592940630E09008F
:1006EC009304000083270400938414001304440033
:1006FC00E7800700E31899FE1384018113890181B7
:10070C003309894013592940630E090093040000F2
:10071C00832704009384140013044400E78007002B
:10072C00E31899FE8320C100032481008324410037
:0C073C0003290100130101016780000087
:0A07480000000000000000000000A7
:04000005F9000000FE
:00000001FF
