:02000004F90001
:10000000971100009381813823A00182732540F16C
:10001000630E050203A50182E30E05FE0F00200218
:100020000F10000083A7C181130500009305000095
:10003000130600006780070023AEA1800F001001A7
:100040001305100023A0A1826780000013818102A4
:1000500017150000130585A497150000938505A4C6
:100060001386C18163FCC5008322050023A05500CF
:100070001305450093854500E3E8C5FE1385C1815E
:10008000938581826378B500232005001305450020
:10009000E36CB5FEEF000001EF0080706F00000020
:0400A0006780000075
:1000A400130101FF232481002320210117140000E0
:1000B4001304849E171900001309099E330989400B
:1000C400232611002322910013592940630E0900AD
:1000D4009304000083270400938414001304440051
:1000E400E7800700E31899FE171400001304C49A6C
:1000F400171900001309499A3309894013592940F3
:10010400630E090093040000832704009384140001
:1001140013044400E7800700E31899FE8320C1001C
:1001240003248100832441000329010013010101F8
:100134006780000003254500135505011375F50F6D
:1001440067800000130101FF23261100232481008E
:100154002322910013040500938405001305040071
:10016400EFF05FFDE30C05FE232094008320C10023
:1001740003248100832441001301010167800000EE
:1001840083A7C5002324F50083A705009387F7FF01
:1001940003A7450013178700B3E7E70003A785000B
:1001A40013170701B3E7E7002326F5006780000073
:1001B400B7470F0093870724B3D5F502B7C70000EC
:1001C400938787FF3306F600832706003385A5024D
:1001D4003305F50083270600B307F540E3DC07FE8B
:1001E40067800000130101FF232611009305050019
:1001F400370501F8EFF01FF58320C1001301010159
:1002040067800000130101FF2326110023248100CD
:1002140013040500034504006308050013041400D7
:10022400EFF05FFC6FF01FFF8320C1000324810007
:100234001301010167800000130101FF232611004F
:100244002324810023229100930405001304C00198
:100254006F004002B3D7840013F7F700B71700F913
:10026400938787A9B387E70003C50700EFF09FF7DB
:100274001304C4FFE35004FE8320C100032481005F
:10028400832441001301010167800000130101FF71
:1002940023261100232481002322910093040500C6
:1002A4001304C0016F004002B3D7840013F7F700B2
:1002B400B71700F99387C7AAB387E70003C50700F8
:1002C400EFF05FF21304C4FFE35004FE8320C10087
:1002D400032481008324410013010101678000008D
:1002E400130101FF232611001375F50FEFF09FEFA3
:1002F4008320C1001301010167800000130101FF85
:1003040023261100EFF01FF08320C1001301010127
:1003140067800000130101FD2326110223248102BA
:10032400232291029304050063460500130401008F
:100334006F00C0021305D002EFF09FFAB30490409F
:100344006FF0DFFE1307A000B3E7E402938707030F
:100354002300F400B3C4E40213041400E39404FE81
:1003640093070100E300F4FE6F0000011304F4FF9F
:1003740003450400EFF0DFF693070100E318F4FEF1
:100384008320C10203248102832441021301010357
:1003940067800000130101FF2326110013070000EA
:1003A4009307700063C0E70293162700930700FFCA
:1003B400B397D700B377F5006386070013071700D8
:1003C4006FF01FFEEFF09FEC8320C10013010101C9
:1003D40067800000130101FF2326110013070000AA
:1003E4009307700063C0E70293162700930700FF8A
:1003F400B397D700B377F500638607001307170098
:100404006FF01FFEEFF05FE38320C10013010101D1
:1004140067800000130101FE232E11009307800062
:100424002320F10023220100232401009307B006B6
:100434002326F10093050100370501F8EFF05FD49E
:100444008320C101130101026780000093952500F8
:10045400B385A50023A0C5006780000093957500AF
:100464003385A50093555600939525003305B500B3
:10047400B72500003305B50093071000B397C700F4
:10048400638A060003260500B3E7C7002320F500AE
:10049400678000000326050093C7F7FFB3F7C70082
:1004A4002320F500678000009395C500B385A5005F
:1004B40037052000B385A50023A0C5006780000090
:1004C4009395C500B385A5003705200013054500A5
:1004D400B385A50003A50500678000009395C500BA
:1004E400B385A5003705200013054500B385A50095
:1004F40023A0C50067800000130101FC232E110016
:10050400232C8100232A9100930405002322B102A5
:100514002324C1022326D1022328E102232AF10243
:10052400232C0103232E1103930741022326F100F8
:10053400130400006F00C0018327C1001387470024
:100544002326E10003A50700EFF09FD9130414004C
:10055400B387840003C507006302050C93075002A8
:100564006306F506EFF0DFD76FF05FFE8327C10067
:10057400138747002326E10003A50700EFF01FD8E7
:100584006FF0DFFC8327C100138747002326E100B7
:1005940003A50700EFF01FD86FF05FFB8327C100AE
:1005A400138747002326E10003A50700EFF09FE22D
:1005B4006FF0DFF98327C100138747002326E1008A
:1005C40003A50700EFF01FDD6FF05FF813041400BC
:1005D400B387840083C70700E38A07F6130730064E
:1005E400E38CE7F413073007E382E7F813074006C8
:1005F400E38AE7F813078005E382E7FA1307800725
:10060400E38AE7FA13076006E392E7FC371500F97B
:10061400130505ACEFF09FCE6FF05FF38320C101AB
:100624000324810183244101130101046780000034
:10063400130101FF23261100371500F91305C5B076
:10064400EFF09FEB6F000000130101FF2326110060
:10065400371500F9130505B2EFF01FEA3706B0F8B5
:10066400B7E5F5059385051013054006EFF05FB473
:1006740083A541829385150023A2B182371500F921
:10068400130585B4EFF05FE78320C1001301010176
:1006940067800000130101FF232611002324810039
:1006A400930500003705C0F8EFF09FE1130405003F
:1006B400630405029307C000631EF400EFF0DFF843
:1006C40013060400930500003705C0F8EFF01FE19E
:1006D4006FF01FFDEFF0DFF58320C10003248100DC
:1006E4001301010167800000130101FF232611009B
:1006F400F327203463D2070213F7F7009307B000FF
:10070400631AF700EFF01FF98320C1001301010100
:1007140067800000EFF0DFF1EFF09FF1130101FFBC
:100724002326110013060000930500003705C0F8C6
:10073400EFF09FD7930610001306C0009305000046
:100744003705C0F8EFF09FD1130610009305C000E1
:100754003705C0F8EFF09FCFB75701F81307100023
:1007640023A0E702B71700F9938787A07390573047
:10077400B71700009387078073A04730F327003032
:100784003727000013078780B3E7E700739007302B
:100794008320C1001301010167800000130101FFE0
:1007A400232611002324810023229100EFF09FC609
:1007B400371500F91305C5B5EFF01FD4371500F947
:1007C400130585B7EFF05FD31306100093050000FF
:1007D400375501F8EF0000101306100093051000C0
:1007E400375501F8EF00000F1306100093052000A1
:1007F400375501F8EF00000E130610009305300082
:10080400375501F8EF00000D130610009305400062
:10081400375501F8EF00000C130610009305500043
:10082400375501F8EF00000B130600009305000094
:10083400375501F8EF00001013060000930510006F
:10084400375501F8EF00000F130600009305200050
:10085400375501F8EF00000E130600009305300031
:10086400375501F8EF00000D130600009305400012
:10087400375501F8EF00000C1306000093055000F3
:10088400375501F8EF00000B130610009305000024
:10089400375501F8EF00000A3706B0F8B7E4F5055C
:1008A4009385041037A4070013050412EFF05F903A
:1008B4001306000093050000375501F8EF00800788
:1008C4003706B0F89385041013050412EFF05F8E19
:1008D4006FF09FFB93071000B395B7006304F60213
:1008E40063080600930720006306F6026780000091
:1008F4008327850093C5F5FFB3F5F5002324B500E0
:100904006780000083278500B3E5F5002324B50044
:10091400678000000327850093C7F5FFB3F7E7005E
:100924002324F50083274500B3E5F5002322B50011
:10093400678000000327450093071000B395B700B4
:10094400630AF60093C5F5FFB3F5E5002322B5006D
:1009540067800000B3E5E5002322B500678000004E
:10096400032505003355B500137515006780000095
:1009740093071000B395B70093072000630CF602A9
:1009840063FEC70093073000630AF6029307400032
:100994006310F6022326B502678000009307100057
:1009A4006316F6002320B50267800000678000000C
:1009B400678000002322B502678000002324B5026B
:1009C4006780000093071000B395B70083270500E4
:1009D40093C5F5FFB3F7F5002320F502832705003F
:1009E400B3F7F5002322F50283270500B3F7F500DA
:1009F4002324F50283270500B3F5F5002326B50269
:100A040067800000130101FC232011002322510000
:100A140023246100232671002328A100232AB10086
:100A2400232CC100232ED1002320E1022322F10232
:100A340023240103232611032328C103232AD103DA
:100A4400232CE103232EF103EFF01FCA83200100BE
:100A540083224100032381008323C1000325010174
:100A640083254101032681018326C1010327010255
:100A740083274102032881028328C102032E010334
:100A8400832E4103032F8103832FC1031301010428
:040A9400730020309B
:100A980030313233343536373839414243444546AC
:100AA800000000003031323334353637383961626E
:100AB80063646566000000003C466C6F6174696E93
:100AC8006720706F696E74207072696E74696E67E2
:100AD800206E6F7420656E61626C652E20506C65A7
:100AE80061736520456E61626C652069742061746C
:100AF800206273702E682066697273742E2E2E3EE3
:100B0800000000000D0A2A2A2A2043524153482097
:100B18002A2A2A0D0A000000456E746572696E67FC
:100B2800206770696F20696E7465727275707420C1
:100B3800726F7574696E65202E2E200D0A000000F4
:100B4800436F756E743A2564202E2E20446F6E65AF
:100B5800200D0A002A2A2A5374617274696E67206C
:100B68004750494F2044656D6F2A2A2A200D0A00F4
:100B7800436F6E666967757265204750494F7320E9
:100B8800746F20626C696E6B202E2E200D0A000097
:0A0B98000000000000000000000053
:04000005F9000000FE
:00000001FF
