:1010000097610000938181B9175120001301813C41
:10101000175500001305C5C097550000938545C0BE
:101020001386418363FCC5008322050023A055007D
:101030001305450093854500E3E8C5FE138541830C
:10104000938581836378B50023200500130545004F
:10105000E36CB5FEEF00000CEF00101E6F00000007
:0410600067800000A5
:10106400B367B50093F737006392070803A7050039
:10107400B7867F7F9386F6F7B377D700B387D70019
:10108400B3E7E700B3E7D7001306F0FF639EC70694
:10109400130605001308F0FF130646009385450068
:1010A400232EE6FE03A70500B377D700B387D70046
:1010B400B3E7E700B3E7D700E38007FF83C7050082
:1010C40003C7150083C625002300F600638A0700C2
:1010D400A300E600630607002301D600639406001C
:1010E40067800000A30106006780000093070500E5
:1010F40003C705009387170093851500A38FE7FEA8
:10110400E31807FE67800000130605006FF01FFB5D
:10111400130101FF2324810023202101175400001F
:101124001304C4AF17590000130949AF33098940A8
:10113400232611002322910013592940630E09002C
:1011440093040000832704009384140013044400D0
:10115400E7800700E31899FE17540000130404AC59
:1011640017590000130989AB3309894013592940E1
:10117400630E090093040000832704009384140081
:1011840013044400E7800700E31899FE8320C1009C
:101194000324810083244100032901001301010178
:1011A40067800000130101FF23248100232611001E
:1011B400937735001304050063960706032705009B
:1011C4003706FFFE1306F6EFB307C700B786808025
:1011D4001347F7FF93860608B3F7E700B3F7D70082
:1011E400639207041305450003270500B307C700EE
:1011F4001347F7FFB3F7E700B3F7D7006394070289
:101204001305450003270500B307C7001347F7FF7D
:10121400B3F7E700B3F7D700E38607FC6F0080005D
:101224001305150083470500E39C07FEEFF05FE319
:10123400130504008320C10003248100130101016C
:10124400678000009377350013070500639C07044B
:10125400B7867F7F9386F6F79305F0FF1307470061
:101264000326C7FFB377D600B387D700B3E7C70019
:10127400B3E7D700E384B7FE8346C7FFB307A740AD
:101284000346D7FF0345E7FF63800604630A0602AB
:101294003335A0003305F5001305E5FF6780000032
:1012A400E38806FA8347070013071700937637008D
:1012B400E39807FE3307A7401305F7FF6780000094
:1012C4001385D7FF678000001385C7FF6780000080
:1012D40003254500135505011375F50F67800000BC
:1012E400032545001355850167800000130101FFA4
:1012F40023261100232481002322910013040500D6
:101304009384050013050400EFF09FFCE30C05FE35
:10131400232094008320C1000324810083244100FE
:101324001301010167800000130101FF232611004E
:10133400232481001304050013050400EFF05FFA71
:10134400E30C05FE032504001375F50F8320C1008B
:1013540003248100130101016780000083A7C500F5
:101364002324F50083A705009387F7FF03A745000F
:1013740013178700B3E7E70003A7850013170701D6
:10138400B3E7E7002326F50067800000130101FF9F
:101394002326110093050500370501F8EFF01FF52A
:1013A4008320C1001301010167800000130101FFC4
:1013B400232611002324810013040500034504009F
:1013C4006308050013041400EFF05FFC6FF01FFFC7
:1013D4008320C10003248100130101016780000000
:1013E400130101FF232611002324810023229100ED
:1013F400930405001304C0016F004002B3D78400B6
:1014040013F7F700B7670000938707C2B387E700B5
:1014140003C50700EFF09FF71304C4FFE35004FE75
:101424008320C100032481008324410013010101AE
:1014340067800000130101FF23261100232481008B
:1014440023229100930405001304C0016F0040029D
:10145400B3D7840013F7F700B7670000938747C337
:10146400B387E70003C50700EFF05FF21304C4FF7E
:10147400E35004FE8320C10003248100832441003F
:101484001301010167800000130101FF23261100ED
:101494001375F50FEFF09FEF8320C10013010101D5
:1014A40067800000130101FF23261100EFF01FF0F5
:1014B4008320C1001301010167800000130101FDB5
:1014C400232611022324810223229102930405007E
:1014D40063460500130401006F00C0021305D00227
:1014E400EFF09FFAB30490406FF0DFFE1307A00003
:1014F400B3E7E402938707032300F400B3C4E402D0
:1015040013041400E39404FE93070100E300F4FEC3
:101514006F0000011304F4FF03450400EFF0DFF64D
:1015240093070100E318F4FE8320C102032481021F
:10153400832441021301010367800000130101FFAA
:1015440023261100130700009307700063C0E7020D
:1015540093162700930700FFB397D700B377F500DE
:1015640063860700130717006FF01FFEEFF09FEC70
:101574008320C1001301010167800000130101FFF2
:1015840023261100130700009307700063C0E702CD
:1015940093162700930700FFB397D700B377F5009E
:1015A40063860700130717006FF01FFEEFF05FE379
:1015B4008320C1001301010167800000130101FEB3
:1015C400232E1100930780002320F1002322010021
:1015D400232401009307B0062326F100930501009C
:1015E400370501F8EFF09FD78320C10113010102F1
:1015F40067800000130101FF2326110023248100CA
:1016040013040500EFF01FC41305F5FF9307000052
:1016140063D4A702B306F40003C606003307A4008C
:10162400834507002380B6002300C7009387170073
:101634001305F5FF6FF0DFFD8320C1000324810053
:101644001301010167800000130101FF232611002B
:101654006348050013060500130800006F004001ED
:101664003306A0406FF05FFF13880800138607005D
:101674009307A000B366F6029308180033870501A8
:10168400938606032300D700B347F602130790009E
:10169400E34CC7FC63400502B388150123800800AE
:1016A40013850500EFF01FF58320C100130101012C
:1016B40067800000B38815019307D0022380F800E7
:1016C400930828006FF05FFD130101FE232E110023
:1016D400232C8100232A9100232821012326310170
:1016E400232441011309050093890500130A060008
:1016F40013840600EF10003693040500EF10C03D7C
:101704001306050093860500130509009385090057
:10171400EF00902C130905009389050093050A0036
:1017240013850400EFF05FF29307E0022300F40056
:10173400130A14001305090093850900EF1080753E
:10174400EF10406503A6818183A6C181EF00804329
:10175400EF1040749304050093050000EF1000504F
:10176400634A05061304400063528008138504008D
:10177400EF10406213090500938905001304F4FF78
:1017840013050400EF104035130605009386050089
:1017940003A5018283A54182EF10501813060500AA
:1017A400938605001305090093850900EF00802D39
:1017B400E35C05FA9305000013850400EF10C03DB7
:1017C400E354A0FA930700032300FA00130A1A0053
:1017D4006FF09FF99307D002A300F400130A2400CA
:1017E400B7070080B3C497006FF0DFF713850400D8
:1017F400EF10005393050A00EFF01FE58320C101A9
:101804000324810183244101032901018329C100A7
:10181400032A81001301010267800000130101FC07
:10182400232E1102232C81029306C1001306810189
:10183400EFF09FE90347D1009307D0026306F70650
:10184400130400009305C10013058101EFF09F9577
:10185400034781019307D0026304F700631204086D
:1018640013058101EFF09FB48320C1030324810396
:1018740013010104678000001387F7FF9306010337
:10188400B386F60083C6C6FD130601033307E600DC
:10189400230ED7FC9387170013079000E35EF7FC31
:1018A400130410006FF01FFA930720006FF0DFFE9F
:1018B4001387170093060103B386F60083C686FEDA
:1018C400130601033307E6002304D7FE9387F7FFCB
:1018D400E3D007FE9307D002230CF1006FF05FF80A
:1018E400930730016FF0DFFE130101FC232E11007A
:1018F400232C8100232A9100930405002322B102A2
:101904002324C1022326D1022328E102232AF1023F
:10191400232C0103232E1103930741022326F100F4
:10192400130400006F00C0018327C1001387470020
:101934002326E10003A50700EFF01FB513041400EC
:10194400B387840003C50700630C050C930750029A
:101954006306F506EFF05FB36FF05FFE8327C10007
:10196400138747002326E10003A50700EFF09FB388
:101974006FF0DFFC8327C100138747002326E100B3
:1019840003A50700EFF09FB36FF05FFB8327C1004F
:10199400138747002326E10003A50700EFF01FBECD
:1019A4006FF0DFF98327C100138747002326E10086
:1019B40003A50700EFF09FB86FF05FF8130414005D
:1019C400B387840083C70700E38A07F6130730064A
:1019D400E38CE7F413073007E382E7F813074006C4
:1019E400E38AE7F813078005E382E7FA1307800721
:1019F400E38AE7FA13076006E392E7FC8327C10052
:101A04009387770093F787FF138787002326E100E6
:101A140003A5070083A54700EFF05FE06FF01FF216
:101A24008320C101032481018324410113010104A2
:101A340067800000130101FF23261100EFF01FB897
:101A440037650000130585C4EFF01FEA3765000011
:101A54001305C5C5EFF05FE96F00C001370501F854
:101A6400EFF09F8C9305050037650000130505C949
:101A7400EFF09FE7370501F8EFF09F86E30C05FED2
:101A84006FF0DFFD13D74501B70710009387F7FF09
:101A940013D846011377F77F9308F07F33F3B70029
:101AA400130E0500B3F7D70093D5F501930E060086
:101AB4001378F87F93D6F601630A170563021803B7
:101AC400631C07043365A3006316080233E6C700EA
:101AD4006312060293060000630205066F0000020B
:101AE400B3E8C700E38E08FC9306200013850600C4
:101AF4006780000063020504638ED504930610001A
:101B0400638E05029306F0FF6F0040033365A30064
:101B1400E31C05FC6308E8026316080033E6C7000B
:101B2400E30E06FCE39CD5FC6356E802E39C06FC4A
:101B3400930610006F008000E38606FC1385060000
:101B44006780000033E6C700E30E06FC930620001E
:101B54006FF0DFF9634A0701E3E267FA630CF3000D
:101B640093060000E37CF3FCE38E05F893860500FE
:101B74006FF0DFFCE3E4CEF993060000E370DEFDD2
:101B84006FF09FFE130101FC93D74501232C8102C2
:101B940023282103232441031394C500232E110277
:101BA400232A910223263103232251032320610394
:101BB400232E710193F7F77F130905001354C40012
:101BC40013DAF501638C07141307F07F6388E720A9
:101BD400131534001354D9013364A400370580006D
:101BE4003364A40093143900138B17C093090000C5
:101BF400930B000093D746011399C60093F7F77F20
:101C04001359C90093DAF601638207181307F07FAA
:101C1400638CE704131539001359D6013369A900FD
:101C2400938717C0370580003369A90093153600E0
:101C3400330BFB0013080000B3465A019307F0006E
:101C44001385060013061B0063EC37219747000039
:101C54009387870593992900B389F90003A709009D
:101C64003307F70067000700B365C900130BFB7F58
:101C74006390051C93E92900130900001308200050
:101C84006FF09FFB930600009307F07F3704080072
:101C9400930400001314C400939747011354C40021
:101CA4009396F6013364F4003364D400930504007E
:101CB4008320C10303248103138504000329010342
:101CC400832441038329C102032A8102832A410216
:101CD400032B0102832BC10113010104678000005F
:101CE40013850A001304090093840500930B08006C
:101CF40093072000638CFB1493073000E384FBF804
:101D040093071000930605006394FB4C93070000AF
:101D140013040000930400006FF0DFF7B364A40021
:101D2400638E040E2326D1002324C10063080438E3
:101D340013050400EF104035032681008326C100FB
:101D440093070500930555FF1307D001938487FF7C
:101D54003307B740331494003357E90033648700E2
:101D6400B3149900130BD0C0330BFB4093D7460137
:101D74001399C60093F7F77F93090000930B0000B3
:101D84001359C90093DAF601E39207E8B365C90071
:101D940063840506630C092E130509002324C1007E
:101DA400EF10802E0326810093070500930655FF4C
:101DB4001307D001938587FF3307D7403319B90040
:101DC4003357E60033692701B315B600B307FB4068
:101DD400138BD7C0130800006FF01FE6B364A40090
:101DE400639404021304000093098000130BF07F32
:101DF400930B20006FF01FE093E919001309000012
:101E0400130810006FF05FE3930405009309C0000A
:101E1400130BF07F930B30006FF0DFDD1304000031
:101E240093094000130B0000930B10006FF09FDC2C
:101E340093E9390093050600130830006FF0DFDFE3
:101E44009307200013050A00E398FBEA93060500B4
:101E54009307F07F13040000930400006FF09FE3E6
:101E6400370E01001307FEFF93D7040113D80501B1
:101E7400B3F4E400B3F5E500338795023383B70286
:101E840013550701B3089802B38868003305150198
:101E9400338F070363746500330FCF01B70E01005E
:101EA4009388FEFF935209013379190133731501A5
:101EB4003377170113130301B30899023303E300C3
:101EC40013550501B38F270313DE0801B38492026F
:101ED400B384F401B3049E003387570263F4F4011E
:101EE4003307D701B7090100138EF9FFB377C40193
:101EF400B3FEC401935F040193D40401B3F8C80191
:101F0400B383F502338EE400939E0E01B38E1E015B
:101F14003305D5013307F80293D80301B385BF0213
:101F24003307B700B388E8003308F80363F4B80054
:101F340033083801370701001304F7FFB3F58800AD
:101F440093D80801B3880801B3F38300939505017E
:101F54003308F902B385750033892F03135408013C
:101F6400B387F202B3872701B307F400B38FF203F8
:101F740063F42701B38FEF00B70201009382F2FFED
:101F840033F7570033785800131707013305E50179
:101F940033070701B33ED5013307C7013305B50045
:101FA4003304D701B335B50033081401330FB80037
:101FB4003337C7013334D4013364870093D707011F
:101FC400B3381801B335BF003304F400B3E5B800E7
:101FD400931495003304B4003304F401B3E46400AF
:101FE40013179400B334900013547F0113557501F3
:101FF40093179F00B3E4A40033648700B3E4F400B0
:102004009317740063D0070293D7140093F4140059
:102014001317F401B3E49700B3E4E4001354140079
:10202400130B06001307FB3F6350E00C93F7740097
:102034006380070293F7F40013064000638AC70025
:1020440093874400B3B49700330494009384070047
:102054009317740063DA0700B70700FF9387F7FF4D
:102064003374F40013070B409307E07F63CAE7144B
:1020740093D734009314D40113149400B3E4F400FC
:102084001354C4009377F77F6FF0DFC01305060085
:102094002324C100EF00507F930655011307C001AC
:1020A4009307050203268100E354D7D0130585FF67
:1020B400930500003319A6006FF05FD1EF00D07CC8
:1020C400930555011307C0019307050203268100F8
:1020D4008326C100E35AB7C6130585FF93040000A5
:1020E4003314A9006FF01FC8130610003306E6402E
:1020F400631007069307EB413397F400B317F4001A
:10210400B3D4C400B3E497003337E000B3E4E4008D
:1021140093F774003356C4006380070293F7F40006
:1021240013074000638AE70093874400B3B4970021
:1021340033069600938407009317860063D407063A
:102144009307100013040000930400006FF09FB481
:1021540093078003E3CCC7BA9307F001E3DCC7F825
:10216400930710FE3387E740930700023357E400D8
:102174006308F6009307EB43B317F400B3E4F400E9
:10218400B3349000B3E4E40013F6740013040000C5
:102194006300060293F7F4001307400013060000DF
:1021A400E394E7F8131496001354C4001316D601ED
:1021B40093D43400B3E4C400930700006FF09FADE0
:1021C4009307F07F13040000930400006FF09FACAA
:1021D400130B06006FF01FE5370710001307F7FF16
:1021E400130101FE3373B70093D846013377D70048
:1021F400935ED601232C8100232A9100131333000C
:1022040093D445019357D50113173700232E11009A
:10221400232821012326310193F8F87F130EF07F40
:1022240033E7EE0093F4F47F13D4F50133E367004E
:10223400131F350093D6F601931E36006386C81D1E
:1022440093C61600B38514416308D4166358B01CB2
:1022540063840820B70780003367F700638AC46784
:102264009307800363C2B73E9307F00163CAB75470
:1022740093070002B387B740B3D9BE003318F70001
:10228400B39EFE00336838013357B700B339D00129
:10229400336838013303E340B3090F41B3373F01D7
:1022A4003306F3409317860063D8072A3709800062
:1022B4001309F9FF3379260163060936130509006A
:1022C400EF00905C130785FF93070002B387E74094
:1022D400B3D7F9003316E900B3E7C700B399E900AF
:1022E4006344973233079740130617009306F001AF
:1022F40063CAC644130700023307C740B3D6C900F4
:102304003398E9003397E7003367D7003338000187
:10231400B369070133D6C7009304000093F779002B
:102324006380070293F6F90093074000638AF6007E
:102334009386490033B836013306060193890600B3
:102344009317860063DE0720138714009307F07F3A
:10235400137414006304F726B70780FF9387F7FF0D
:10236400B377F6001398D70193D939009397970060
:102374003368380193D7C7001377F77F9396C70064
:102384001317470193D6C6001314F401B3E6E6000D
:10239400B3E686008320C101032481018324410123
:1023A400032901018329C100130508009385060050
:1023B4001301010267800000635EB00A638A081497
:1023C400B70780003367F700638CC4339307800337
:1023D40063C0B71C9307F00163DAB744138805FEA2
:1023E40093070002B3590701638AF50093070004B9
:1023F400B385B7403317B700B3EEEE003338D001DE
:10240400336838016F004019B367D701938514808E
:102414006394070093C61600630ED404639A0508F8
:102424009387140093F7E77F63920724B367E3016C
:102434003368D701639C041863800746631E084C05
:10244400131835009316D3011358380033E80601E6
:10245400935733006F008012B367D701638C071E54
:102464009387F5FF638A0744638CC5299385070026
:102474006FF01FDF639205229386140093F7E67FC3
:102484006396070AB367E3016396043E63880750C3
:10249400B367D70163900752131535001318D3019E
:1024A400135535003368A800935733006F00000DAF
:1024B400B385984063920426B367E301638E0738BB
:1024C4009387F5FF638E074A1305F07F638EA52477
:1024D400938507009307800363CAB7309307F0011D
:1024E40063CAB74693070002B387B7403318F300B3
:1024F4003356BF00B317FF003368C800B339F00088
:102504003353B30033683801330767406F00802EBC
:10251400B367D701638007149387F5FF638E07249D
:102524006380C537938507006FF05FEA9307F07FF8
:102534006384F608B30EDF0133B6EE01B307E3009C
:10254400B387C7001398F70193DE1E00B369D8015F
:1025540013D617009384060093F77900E39407DCFD
:102564009317D60113D839003368F8009385040013
:10257400935736001307F07F638AE5069397C700E5
:1025840093D7C70013F7F57F137414006FF01FDFA0
:102594003367D7013338E000B309E801B3B7E90181
:1025A4003386670093178600E3D807FA93841400F0
:1025B4009307F07F6392F41E137414001307F07FE3
:1025C40093070000130800006FF05FDB63980712A5
:1025D40063000846131836009317D70113583800C0
:1025E4003368F8001384060093573700B367F80084
:1025F400E38407FC130400001307F07FB707080007
:10260400130800006FF09FD7370680FF1306F6FF0C
:1026140033F6C70093F77900B384E440E39407D01A
:102624006FF01FF413850900EF00102613078501CE
:102634009307F001E3DAE7C8130685FFB397C900EF
:10264400930900006FF0DFC93368D7013338000104
:102654006FF09FC4131835009317D3011358380033
:102664003368F800935733006FF0DFF0B309DF41AC
:102674003309E34033363F013309C94093178900D6
:1026840063C4072633E82901E31808C2930700004E
:10269400130400006FF09FEEB3859840638804161E
:1026A400B70680009307F07F3363D300638AF8246E
:1026B4009307800363CAB7289307F00163C4B73450
:1026C40093070002B387B7403318F300B356BF0033
:1026D400B317FF003368D800B339F0003353B300A5
:1026E4003368380133076700B309D801B3B7D90198
:1026F4003386E700938408006FF0DFEAE31C08EEFA
:10270400131835009317D301135838003368F800B1
:10271400935733006FF09FED370580009307F07FE8
:102724003363A300E398F8DA131636001318D701BD
:10273400135636003368C8009357370013840600D5
:102744006FF0DFEA130717FE9306000233D7E700A2
:10275400630AD600930600043386C6403396C70046
:10276400B3E9C90033383001B369E8001306000047
:10277400930400006FF05FDEB309DF01B307E300E9
:1027840033BFE9013386E7019317860093041000F1
:10279400E3D407DC93042000B70780FF9387F7FF97
:1027A400B377F60013D7190013F81900336807013B
:1027B4009399F701B3E9090113D617006FF01FB617
:1027C400138805FE93070002B3590701638AF500D5
:1027D40093070004B385B7403317B700B3EEEE0098
:1027E4003338D001336838016FF01FAB3363E30132
:1027F40033386000B3890E41B3B73E013306F74066
:1028040093840800138406006FF0DFA9B367E30123
:102814006388071C9387F5FF638407229306F07F80
:102824006380D50E938507006FF09FE8930700023D
:10283400B387B740B3D9BE003318F700B39EFE0088
:10284400336838013357B700B339D00133683801DE
:102854003303E3006FF05FD4131836009317D701E6
:102864001358380033E807011384060093573700E0
:102874006FF05FD0638607083367D701E31C07D680
:10288400131535001318D301135535003368A80008
:10289400935733006FF09FD5E30A08DE1318360010
:1028A4009317D701135838003368F80013840600CF
:1028B400935737006FF09FCCB309DF41B307E34070
:1028C400333F3F013386E741930410006FF09F9D2F
:1028D400131835009316D3011358380033E8060152
:1028E400935733006FF09FD0B389EE4133066740AE
:1028F40033B93E0133092641138406006FF0DF9B90
:10290400131636001318D701135636003368C8005F
:10291400935737006FF09FCDB309DF41B307E3400E
:1029240033363F013386C7409317860063D6070CBE
:10293400B389EE41B3076740B3BE3E013386D74146
:10294400138406006FF09F9D3363E3013338600006
:102954006FF09FD9138805FE93070002B359030152
:10296400638AF50093070004B385B7403313B300BB
:10297400336F6F003338E001336838016FF09FE73D
:10298400B389EE41B3076740B3BE3E013386D741F6
:1029940013840600930410006FF0DF9013183600C0
:1029A4009317D701135838003368F800935737004A
:1029B4006FF0DFBCB309DF01B307E30033BFE90104
:1029C4003386E70193178600E3D807B8B70780FF7B
:1029D4009387F7FF3376F600930410006FF0DFB7A8
:1029E400131636001318D701135636003368C8007F
:1029F400935737006FF01FB833E8C900E30808C8DD
:102A04006FF09FB5138805FE93070002B3590301C5
:102A1400638AF50093070004B385B7403313B3000A
:102A2400336F6F003338E001336838016FF0DFCB68
:102A3400130400001307F07FB70708006FF01F941A
:102A4400B309DF01B307E300B3BED9013386D7016D
:102A54006FF09FD393D74501B70610001387F6FF95
:102A640093F7F77F1306E03F3377B70093D5F5016B
:102A7400635EF6001306D041635EF60037050080FE
:102A84001345F5FF3385A50067800000130500009A
:102A940067800000130630433306F6401308F00144
:102AA4003367D7006350C80293063041B387F640BA
:102AB400B357F7003305F040E39C05FC138507008A
:102AC400678000009387D7BEB317F7003355C5005E
:102AD400B3E7A7006FF01FFE130101FF23261100C7
:102AE4002324810023229100630A05049357F541AE
:102AF400B3C4A700B384F440130405001385040091
:102B0400EF0080589306E041B386A6409307A000E7
:102B14001354F40193F6F67F63C4A7061307B000B9
:102B24003307A740B3D7E400130555019397C700B3
:102B3400B394A40093D7C7006F00400113040000AE
:102B44009306000093070000930400009397C700C6
:102B54009396460193D7C7001314F401B3E7D70043
:102B6400B3E787008320C100032481001385040098
:102B7400938507008324410013010101678000004D
:102B8400130555FFB397A4009397C70093D7C700C5
:102B9400930400006FF09FFB93567501B707800004
:102BA4009387F7FF13D6750193F6F60F1308F00F0A
:102BB400B3F8A7001357F501B3F7B7001376F60F70
:102BC40013D5F501638A060363020603639A0602BA
:102BD40063140600638A0704638208046300A7067B
:102BE40013051000631E070267800000E38007FEE0
:102BF4001305E0FF67800000E39C08FE630CD60227
:102C040063140600E38E07FCE31CA7FC635AD60298
:102C1400631805001305100067800000E31605FC27
:102C24001305F0FF6780000013050000E39A08FA1B
:102C340067800000E38A07FC6FF09FFB93060000A7
:102C440063C8C600E3EE17F913050000E3FEF8F8C5
:102C5400E30807FC1305070067800000935675011D
:102C6400B70780009387F7FF13D6750193F6F60F25
:102C74001308F00FB3F8A7001357F501B3F7B70023
:102C84001376F60F13D5F50163820605630E06016C
:102C94006392060463100602639E07001305000096
:102CA400639E080067800000E38407FE130520008C
:102CB40067800000638E08026304A70413051000F4
:102CC400E30207FE1305F0FF67800000E39008FEAF
:102CD4006304D60263140600E38207FEE310A7FE32
:102CE4006352D602E31005FE13051000678000004E
:102CF400E30A05FC67800000E38207FE6FF01FFB18
:102D04009306000063C8C600E3EA17FB130500003E
:102D1400E3FAF8F8E30807FA1305070067800000F0
:102D240037068000135775019307F6FF1377F70FE3
:102D34009305E007B3F6A7009357F50163FEE5009A
:102D44009305D00963FEE500370500801345F5FFC0
:102D54003385A7006780000013050000678000002A
:102D640093055009B3E6C60063C0E5021306600983
:102D74003307E64033D7E6003305E040E39007FE2F
:102D840013050700678000001307A7F63397E600D2
:102D94006FF09FFE135775011377F70F130101FFAF
:102DA4009307170023248100232291001314950014
:102DB4002326110093F7E70F135494009354F5015D
:102DC4006382070493573400130707381314D4019C
:102DD4009397C7001317470193D7C7001395F401BE
:102DE400B3E7E700B3E7A7008320C100130504009D
:102DF400032481008324410093850700130101010A
:102E040067800000631207046308040613050400C6
:102E1400EF0080279307A00063C6A7061307B0003E
:102E24003307A740930755013357E4003314F400E4
:102E34009317C700130790383307A74093D7C700E9
:102E44001377F77F6FF0DFF863020402135734003F
:102E5400B7070800B367F7009397C7001314D401AA
:102E640093D7C7001307F07F6FF09FF61307F07F27
:102E7400930700006FF0DFF51307000093070000CD
:102E84006FF01FF5130755FF3317E4001304000018
:102E94006FF01FFA93D645019397C50093F6F67F1A
:102EA40093D7C70013861600939737001357D5019D
:102EB4001376E67F93D5F5013367F7009318350051
:102EC4006304060A138806C89307E00F63D4070354
:102ED40093070000139597009306F00F93967601DD
:102EE400135595009395F5013365D5003365B50009
:102EF40067800000635E000F9317650013173700A7
:102F0400B337F000B3E7E70093D8D801B3E717016C
:102F140013F777006306071613F7F70093064000CC
:102F24006304D700938747003707000433F7E700AB
:102F340063080714130718001306F00F9376F70FAE
:102F4400E308C7F89397670093D797001395970002
:102F540093967601135595009395F5013365D50045
:102F64003365B50067800000B3671701639A0602F2
:102F7400638E0704930750009397670093D79700D5
:102F84001395970093F6F60F9396760113559500D3
:102F94009395F5013365D5003365B500678000006E
:102FA400E38807F2B7074000139597009306F00FE4
:102FB4009396760193050000135595009395F501BA
:102FC4003365D5003365B5006780000093070000C2
:102FD4001395970093060000939676011355950078
:102FE4009395F5013365D5003365B500678000001E
:102FF400930790FE6342F8069307E00137068000CA
:10300400B38707411305F0013366C700635AF5041B
:103014001307E0FF33070741130500023357E600A7
:103024006388A700938626CAB316D600B3E8D800EF
:10303400B3371001B3E7E70013F777001308000074
:10304400E31C07EC1397570093061000E34C07EEBC
:10305400930600006FF05FF2930600006FF09FF19B
:10306400938626C83397D8003337E000B316D600CA
:10307400B3D8F800B367D700B3E7F8006FF0DFFB0D
:10308400930608006FF05FEFB70701006374F5045F
:103094009307F00F1307000263EEA70097370000B1
:1030A400938787C4B387A70003C507003305A740E8
:1030B4006780000013558500973700009387C7C2C7
:1030C400B387A70003C50700130780013305A74092
:1030D40067800000B70700016362F502135585019C
:1030E40097370000938747C0B387A70003C507003D
:1030F400130780003305A7406780000013550501BE
:1031040097370000938747BEB387A70003C507001E
:10311400130700013305A74067800000130101FE77
:10312400232C8100232A9100232821012326310105
:103134002324410123225101232E110013090500E8
:10314400938905001304060093840600EF0000240D
:103154009387018103A707009307F0FF130A050073
:10316400938A05006306F708130604009386040097
:103174001305040093850400EF20D023631A050689
:1031840013060900938609001305090093850900B5
:10319400EF20502213060000930600006310050E72
:1031A4001305090093850900EF20500863180506EC
:1031B4001306000093060000130504009385040021
:1031C400EF20D0066304050C130504009385040066
:1031D400EF104045630E050013060000930600003F
:1031E4001305040093850400EFE0DF8963420512B0
:1031F4008320C1010324810113050A0093850A0079
:1032040083244101032901018329C100032A810088
:10321400832A4100130101026780000013050A009C
:1032240093850A00EF100040630C050613060000A6
:103234009306000013050A0093850A00EF20007F1F
:10324400E31805FA1305090093850900EF10803D82
:10325400E30005FA1305040093850400EF10803C95
:10326400E30805F8EF20501A930720022320F50005
:10327400130A0000930A00006FF09FF7130504007F
:1032840093850400EF20807AE31405F69737000055
:10329400938787B503AA070083AA47006FF05FF5F9
:1032A4001305090093850900EF10C037E30005F802
:1032B4001305040093850400EF10C036E30805F6F7
:1032C40013060A0093860A0013050A0093850A0070
:1032D400EF20500E63160508EF2010139307200209
:1032E4002320F500130600009306000013050900CF
:1032F40093850900EFE00FF9634C0502973700004E
:10330400938787AF03AA070083AA47006FF05FEE95
:10331400EF20900F930710022320F5009737000049
:10332400938707AD03AA070083AA47006FF05FECF9
:103334001305040093850400EF1080311306040084
:1033440093860400EF20806EE30A05FA97370000A5
:10335400938707AA03AA070083AA47006FF05FE9CF
:10336400EF20900A93071002130600009306000052
:103374002320F5009385060013050600EF10507313
:10338400130A0500938A05006FF09FE63708008052
:10339400130101F81348F8FF2328210733F9060124
:1033A400232E1106232C8106232A91062326310776
:1033B400232441072322510723206107232E71056B
:1033C400232C8105232A91052328A1052326B10551
:1033D400B367C900638007103374B800B707F07F80
:1033E400938A0500130A050063DC8704370810C0BC
:1033F400330804013368A800B705F03F1305000043
:103404006314080E8320C107032481078324410722
:10341400032901078329C106032A8106832A410659
:10342400032B0106832BC105032C8105832C410545
:10343400032D0105832DC1041301010867800000D9
:103444006300F40AE3C427FBB707F07F630EF92493
:103454009384050093090500930C0600938D0600E0
:10346400130D000063C40A0C63940C10B706F07FBC
:103474006306D91AB706F03F630AD91CB7060040A1
:10348400E380DD60B706E03F6394DD0E63C20A0E9D
:10349400032481078320C10703290107032A810626
:1034A400832A4106032B0106832BC105032C8105C6
:1034B400832C4105032D0105832DC10413850900C7
:1034C400938504008329C10683244107130101085D
:1034D4006F00506913050000B705F03F6FF09FF2CD
:1034E40063140500E35224F7032481078320C107F2
:1034F40083244107032901078329C106032A81067E
:10350400832A4106032B0106832BC105032C810565
:10351400832C4105032D0105832DC10417250000CB
:103524001305C576130101086F104011B706404317
:103534006350D918B706F03F634AD90293564941FC
:10354400938616C013064001E358D654130640036D
:10355400B306D64033D6DC00B316D6006398960182
:103564001376160013032000330DC340E3840CF0DC
:103574001385090093850400EF10000A630C0A0404
:1035840013DEF401130EFEFFB366CD01638606124B
:10359400B706E04163D42615B706F043E3DC2635CD
:1035A4003707F03F635AE40C63DC0D0897370000DB
:1035B4009387078703A6070083A647001305060021
:1035C40093850600EFE00FDC6FF0DFE3EF10C0043B
:1035D40063140A0E630A04009396240093D626000B
:1035E4003706F03FE39EC6F863CC0D08E3DC0AE03F
:1035F400B70710C0B307F400B3E7A701E396074E7B
:103604001306050093860500EFE01FBD13060500B1
:1036140093860500EF10D0496FF0DFDE370510C048
:103624003305A40033653501E30605EA3707F03FA7
:10363400E342E42A93850D0013050000E3D40DDC76
:1036440013050000930500006FF0DFDB138509000C
:1036540093850400E3D80DDA972700009387C77891
:1036640003A5070083A54700138609009386040079
:10367400EF1010446FF01FD9E34AB0F36FF05FFC12
:103684001727000013074776930C0500938705005E
:10369400032507008325470013860C009386070043
:1036A400EF1010416FF09FF4E30406DA6FF01FD4BB
:1036B400130D20006FF05FDB13860900938604006E
:1036C4001385090093850400EFE01FB1130605007C
:1036D40093860500EF10D03D6FF0DFD2B706F07F80
:1036E400B3F49600130600006394040297260000C6
:1036F4009386867603A6060083A646002324C1018A
:10370400EFE04FC8032E8100138405001306B0FCBC
:10371400B7051000935E44411388F5FFB7A6030074
:10372400938E1EC033780401370CF03F9386E688ED
:10373400B38ECE00336C8801E3D8061BB7B60B00FA
:1037440093869667E3DE063B972A0000938ACA694C
:10375400938E1E00330CBC4083A70A0003A84A00C2
:1037640023280100232A0100232C0102232E010215
:10377400930900002324F10023260101032481007E
:103784008324C10093050C001306040093860400EF
:10379400232AD1032328C10313090500EFE0DFA383
:1037A400130B0500938B0500130604009386040095
:1037B4001305090093050C0023248100232691009E
:1037C400EF10C026130605009386050003A50A0022
:1037D40083A54A0093040000EF10902D1306050002
:1037E40093860500232CA100232EB10013050B00A2
:1037F40093850B00EFE00FB9135F1C40B706002060
:10380400336FDF00B7060800330FDF00B3093F0151
:10381400130A0500938609001306000013850400AB
:1038240013840500EFE00FB6130605009386050028
:1038340013050B0093850B00EFE01F9A032681000C
:103844008326C100130B0500938B050013050000AC
:1038540093850900EFE05F98130605009386050041
:103864001305090093050C00EFE01F97138604006D
:1038740093060400EFE00FB11306050093860500DC
:1038840013050B0093850B00EFE01F9503288101BE
:103894008328C101972B0000938B8B5F13060800CC
:1038A40093860800EFE00FAE13060A0093060400A7
:1038B4002324A1002326B10013050A009305040064
:1038C400EFE04FAC972600009386865903A60600C6
:1038D40083A646001309050093890500EFE08FAA2B
:1038E400972600009386465803A6060083A6460042
:1038F400130B0000130C0000EF1040131306090013
:1039040093860900EFE00FA8972600009386465699
:1039140003A6060083A64600EF1040111306090013
:1039240093860900EFE00FA6972600009386C654FD
:1039340003A6060083A64600EF10400F13060900F5
:1039440093860900EFE00FA4972600009386465360
:1039540003A6060083A64600EF10400D13060900D7
:1039640093860900EFE00FA2972600009386C651C4
:1039740003A6060083A64600EF10400B13060900B9
:1039840093860900232CA100232EB10013050900FE
:1039940093850900EFE00F9F032781018327C1016D
:1039A4001306050093860500130507009385070099
:1039B400EFE04F9D13090500938905001386040069
:1039C4009306040013050A0093050400EF10000693
:1039D400032681008326C100EFE0CF9A1306090075
:1039E40093860900EF1080041309050093890500EC
:1039F4001386040093060400138504009305040051
:103A0400EFE04F9803A60B0083A64B002324A102EA
:103A14002326B102EF1080011306090093860900E2
:103A2400232C2101232E3101EF10400013890500BE
:103A340013060B0093860500138504009305040008
:103A4400EFE04F9403A60B0083A64B002320A102B2
:103A54002322B10213050B0093050900EFE0CFF711
:103A6400032F8102832FC10213060F0093860F00D8
:103A7400EFE08FF613060500938605000325810108
:103A84008325C101EFE04FF513060A0093060400F5
:103A9400EFE04F8F13040500938405000325810094
:103AA4008325C10013060B0093060900EFE08F8DF8
:103AB400130605009386050013050400938504008E
:103AC400EF00D076032B0102832B4102130405007F
:103AD40093840500130605009386050013050B0067
:103AE40093850B00EF009074972600009386C63AE6
:103AF40003A6060083A6460013050C00138A0500DE
:103B0400EFE04F88130905009389050013060B00A5
:103B140093860B0013050C0093050A00EFE0CFEB2E
:103B2400130605009386050013050400938504001D
:103B3400EFE08FEA972600009386863603A60600F8
:103B440083A64600EFE00F84972600009386C635CF
:103B540003A6060083A6460013040500938405000B
:103B640013050C0093050A00EFE0CF81130605004E
:103B7400938605001305040093850400EF00106B81
:103B8400032681038326C103EF00506A832E410379
:103B9400130B0500938B050013850E00EFE0DFF394
:103BA400130405009384050013060B0093860B0091
:103BB4001305090093850900EF00506703260101EE
:103BC40083264101EF0090661306040093860400E7
:103BD400EF00D06513060000130506009386040069
:103BE400130604009384050013040500EFE0CFDE00
:103BF4000326010183264101EFE00FDE13060900CD
:103C040093860900EFE04FDD130605009386050057
:103C140013050B0093850B00EFE00FDC032E01036B
:103C240013090500938905001303FDFF336EC301D7
:103C340063180E48972600009386061E83A7060085
:103C440003A846002324F10023260101130C0000DD
:103C540013060C0093860D0013850C0093850D004C
:103C6400EFE08FD71306040093860400EFD09FF192
:103C7400130B0500938B050013860C0093860D002F
:103C84001305090093850900EFD0DFEF1306050043
:103C94009386050013050B0093850B00EF00105964
:103CA400130905009389050013060C0093860D0083
:103CB4001305040093850400EFD0DFEC1306050020
:103CC4009386050013040500938405001305090079
:103CD40093850900EF009055B7079040130A05003B
:103CE400138B0500938B050063C4F536B387F54049
:103CF400B3E7A7006394075E972700009387471BE9
:103D040003A6070083A6470013050900938509004D
:103D1400EF00D051130D0500938D05001306040028
:103D24009386040013050A0093050B00EFE0CFCA45
:103D3400130605009386050013050D0093850D00F9
:103D4400EF109057634CA05893D74B4193F7F77FEC
:103D540037051000938727C0B357F540B387770121
:103D640013D747411377F77F130717C0130AF5FFDB
:103D7400B355EA4093C5F5FFB3F5F50033FA4701AF
:103D840093074001336AAA003387E7401306000013
:103D940093860500335AEA4063D40B00330A40414A
:103DA4001305040093850400EFE00FC31306050018
:103DB4009386050013040500938405001305090088
:103DC40093850900EF009046138B0500931D4A016B
:103DD400172700001307C70E032607008326470092
:103DE400130C000013050C0093050B00EFD09FD9B2
:103DF400130D0B00938B0500130B05001306040031
:103E04009386040013050C0093050D00EFE0CFBC6E
:103E14001306050093860500130509009385090020
:103E2400EFE08FBB172700001307070A03260700DC
:103E340083264700EFD01FD5172700001307470933
:103E44000326070083264700130405009384050016
:103E540013050C0093050D00EFD0DFD21306050007
:103E6400938605001305040093850400EF00103CBD
:103E740013090500938905001306050093860500C0
:103E840013050B0093850B00EF00503A13060B004B
:103E940093860B001304050093840500EFE0CFB371
:103EA4001306050093860500130509009385090090
:103EB400EFE08FB2130B0500938B0500130604008B
:103EC400938604001305040093850400EFD09FCB70
:103ED400972700009387470003A6070083A647009F
:103EE4001309050093890500EFD0DFC99727000067
:103EF400938707FF03A6070083A64700EFE0CFAD33
:103F04001306090093860900EFD0DFC79727000046
:103F1400938787FD03A6070083A64700EF001031AF
:103F24001306090093860900EFD0DFC59727000028
:103F3400938707FC03A6070083A64700EFE0CFA9F9
:103F44001306090093860900EFD0DFC3972700000A
:103F5400938787FA03A6070083A64700EF00102D76
:103F64001306090093860900EFD0DFC1130605008C
:103F7400938605001305040093850400EFE0CFA5A4
:103F84001306050093860500130C0500938C0500A9
:103F94001305040093850400EFD0DFBE97260000CC
:103FA400938606F603A6060083A6460013090500B9
:103FB4009389050013050C0093850C00EFE0CFA155
:103FC400130605009386050013050900938509006F
:103FD400EF10002E130905009389050013060B004A
:103FE40093860B001305040093850400EFD09FB95A
:103FF40013060B0093860B00EF00502313060500F5
:10400400938605001305090093850900EFE0CF9C12
:104014001306040093860400EFE00F9C93860500CA
:104024001306050083A54A0003A50A00EFE0CF9A12
:10403400B387BD0093D647416350D03293850700C0
:10404400032681008326C100EFD0DFB36FF08FBB5E
:1040540093971500B7D6904093D717009386F6BF71
:1040640063D2F626B7376F3F93870740B387F500CF
:10407400B3E7A700639007021306040093860400C5
:10408400EFE08F951306090093860900EF10D02204
:10409400E34C05CA17240000130404E203260400B9
:1040A40083264400032581008325C100EFD09FAD02
:1040B4000326040083264400EFD0DFAC6FF08FB4F6
:1040C40083A70A0003A84A002324F1002326010140
:1040D4006FF0DFB763D60DD6B70500801305000077
:1040E400B3C5B5016FF00FB2972A0000938ACACF07
:1040F4006FF08FE6B706F03F1386E6FF635686CA75
:1041040063CC86D6972A0000938A0ACE03A60A00B7
:1041140083A64A002328C101EFE00F8C97260000F4
:10412400938686D003A6060083A6460013040500E2
:1041340093840500EFD01FA597260000938646CFF1
:1041440003A6060083A6460013090500938905000B
:104154001305040093850400EFD0DFA29726000026
:10416400938686CD03A6060083A646002324A100D9
:104174002326B1001305040093850400EFD09FA00B
:104184009386050097250000938585CB13060500CB
:1041940003A5050083A54500EFE00F841306040082
:1041A40093860400EFD01F9E938605009725000098
:1041B400938585C91306050003A5050083A545005D
:1041C400EFE08F81130B0500938B050013060400A9
:1041D400938604001305040093850400EFD09F9A8E
:1041E400130605009386050013050B0093850B0049
:1041F400EFD05F9997260000938686C503A6060034
:1042040083A64600EFD01F98032781008327C100AF
:104214001306050093860500130507009385070020
:10422400EFD09FFB1306050093860500130B0500D2
:10423400938B05001305090093850900EF00007FA7
:1042440013060000938609001305060013040600F4
:104254001306090093840500EFD01FF81306050028
:104264009386050013050B0093850B00EFD0DFF652
:104274001309050093890500032E01016FF0DF9AED
:1042840013860900138509009386040093850400AE
:10429400EFD05F8F6FF00F97639A0CB2B306D640DE
:1042A4003356D940B316D600138D0C00638426010F
:1042B4006FF04F9C1376160013032000330DC34098
:1042C4006FF04F9B3707E03F930D0000130A000087
:1042D400E350F7B093D747416FF09FA7172400002E
:1042E400130404B46FF09FDB930710006304FD0014
:1042F4006FF04F91B7070080B3C5B7006FF08F9090
:10430400972600009386C6AF83A7060003A846003D
:1043140097260000938646AF2328F100232A010143
:1043240083A7060003A8460097260000938646AE9E
:10433400232CF102232E010383A7060003A84600C1
:10434400B70904002324F10023260101972A000061
:10435400938A8AA96FF08FC213060A00EF00805176
:104364006FF01FCE130101FF3707F07F2324810074
:1043740023229100232611003378B700938405008B
:10438400130405006308E8209387050093060500DD
:10439400635AB01413DE4541630E0E243707100030
:1043A4001306F7FFB3F7C700B3E7E700130E1EC009
:1043B4001397170013761E0093D7F601B307F7007F
:1043C40013971600630A06001357F7019397170013
:1043D400B387E70013972600135E1E409305600120
:1043E400930E000093060000370620003385C600B4
:1043F4001358F7019385F5FF63C8A700B387A74057
:10440400B306C500B38ECE0093971700B307F80028
:104414001317170013561600E39A05FC1303000044
:1044240013080002370600806F004002638ED71223
:104434001355F701939717001308F8FFB387A700E4
:104444001317170013561600630608043305B60045
:10445400E3DEF6FCB305C50093880600634E050E43
:10446400B387D740B336A700B387D7403307A740F5
:104474001355F701939717001308F8FF3303C3008C
:1044840093860800B387A700131717001356160066
:10449400E31E08FAB3E7E7006394070E135813000A
:1044A40013D71E40B704E03F93FE1E00B3049700E9
:1044B40063860E00B70700803368F80013174E01B7
:1044C4001304080033079700130504008320C10078
:1044D4000324810083244100930507001301010193
:1044E4006780000013971500135717003368A7005F
:1044F40013870500E30A08FC639C050C93D5B600FA
:104504009387B7FE1387050093965601E38805FE4B
:1045140013D64501631A060E130600006F008000CF
:1045240013060500131717009315B700130516009B
:10453400E3D805FE9308000213880600B388A84058
:1045440093050700B396A60033571801338EC7406E
:10455400B367B7006FF09FE493C8F5FF93D8F801F1
:10456400B38816016FF0DFEFE364A7ECB305C50071
:10457400E34405FE93880700930700006FF01FEFE4
:104584009307F0FF630EF306130813001358180083
:104594006FF01FF11306050093860500EFD08FDE40
:1045A4001306040093860400EF004048130405003A
:1045B400130504008320C100032481001387050030
:1045C4008324410093050700130101016780000063
:1045D4001306050093860500EFD01FC013060500DF
:1045E40093860500EF00D04C1304050013870500E3
:1045F4006FF09FED13870500930700006FF0DFF164
:10460400938E1E006FF0DFE9138806009308000202
:104614001306F0FF6FF05FF39395150093D5150023
:10462400678000009395150093D515003705108019
:104634003385A5001355F501678000009727000016
:104644009387878C03A5070083A547006780000034
:1046540013D74541130101FD1377F77F232481020A
:10466400232611022322910223202103232E310128
:10467400130617C0930830019387050093060500BD
:10468400138E050013D4F50163CCC8166348060CD9
:10469400B70510009385F5FFB3D5C54033F5F50094
:1046A4003365D50093880600138307006306050865
:1046B40093D5150033F8F5003368D8006306080273
:1046C4009306E7BE370E040093B6160093C5F5FFB4
:1046D40037080080B306D040B3F7F5003356CE4018
:1046E4003378D80033EEC7009727000093874782BA
:1046F400131334003383670003240300832443002B
:104704001306080093060E001305040093850400A5
:10471400EF00C0312324A1002326B100032581002A
:104724008325C1001306040093860400EFD0DFAA9A
:1047340093080500138305008320C102032481022A
:1047440083244102032901028329C101138508003E
:10475400930503001301010367800000B704008080
:1047640093C4F4FF33F7B4003367A700930805003C
:1047740013830500E30207FC9397C50093D7C70092
:1047840033E7A700B307E040B3E7E700971600005C
:104794009386067813173400B386E60093D7C700D0
:1047A40003A9060083A946003707FEFF3703080064
:1047B4003377B70033F367003363E30093060300F2
:1047C400130605009385090013050900EF00002670
:1047D4002324A1002326B100032581008325C100E1
:1047E4001306090093860900EFD01F9FB3F4B400A9
:1047F4001313F40133E36400930805006FF0DFF34F
:104804009308300363D6C8021307004093080500D9
:1048140013830500E312E6F21306050093060E0067
:10482400EF00C02093080500138305006FF0DFF04C
:104834001307D7BE1306F0FF3356E600B375A60080
:104844009308050013830700E38805EE135616004A
:10485400B377A60013080500E38807E8370800408B
:104864001346F6FFB376A6003357E84033E8E60074
:104874006FF09FE7130101FF93D745412324810083
:104884002326110093F7F77F130406006390070AA9
:104894009397150093D71700B3E7A7006380070821
:1048A400971700009387C76703A6070083A64700EE
:1048B400EFD04FADB747FFFF938707CB13870500B2
:1048C400634AF41293D7454193F7F77F9387A7FC84
:1048D400B307F4009306E07F63CEF606634AF00E56
:1048E4009306B0FC63D6D70AB7C700009387073591
:1048F40063C28706971700009387075C03A8070025
:1049040083A8470063CA051003A6070083A64700CF
:104914001305080093850800EFD0CFA68320C100BB
:104924000324810013010101678000009306F07FD6
:1049340013870500E39ED7F8130605009386050048
:10494400EF00C00E8320C100032481001301010184
:1049540067800000971700009387874C03A807001F
:1049640083A84700E3D205FA171700001307C75BB3
:10497400032807008328470003A6070083A64700EF
:104984001305080093850800EFD0CF9F6FF01FF93F
:10499400B70510809385F5FF938767033377B700D6
:1049A40093974701B3E7E700171700001307C758A9
:1049B400032607008326470093850700EFD08F9CCA
:1049C4008320C100032481001301010167800000DA
:1049D4008320C10003248100B70510809385F5FF6F
:1049E4003377B70093954701B365B700130101010D
:1049F40067800000971600009386064C03A6060005
:104A040083A64600EFD00F988320C10003248100C1
:104A140013010101678000001717000013074751B5
:104A240003280700832847006FF01FEE37081000A3
:104A3400130101FE1308F8FF3377B800232A91000D
:104A44003378D80093D4450113D34601131E37009D
:104A5400232631011357D501131838009357D60173
:104A640093F4F47F1373F37F232E1100232C81001E
:104A74002328210193D9F50193DEF6013367C70199
:104A8400131F350033E80701931F3600338E64404B
:104A94006384D91D6358C017630A0320B7068000D6
:104AA4009307F07F3368D800638EF4409307800344
:104AB40063CAC73D9307F00163C6C75513050002D7
:104AC4003305C541B3D7CF01B316A8003399AF005E
:104AD400B3E6F60033392001B357C80133E92601A0
:104AE4003307F74033092F41B3372F013306F7401B
:104AF4009317860063D2072A370780001307F7FF4E
:104B04003374E600630E043413050400EFE0CFD7DA
:104B1400130785FF93070002B387E740B357F900F3
:104B24003316E400B3E7C7003319E900634C973048
:104B340033059740130615001307F0016346C74475
:104B4400130700023307C740B356C9003319E900FD
:104B54003397E7003367D7003339200133692701DE
:104B640033D6C7009304000093777900638007026B
:104B74001377F90093074000630AF700130749000D
:104B840033392701330626011309070093178600DA
:104B940063D80720138514009307F07F93850900D9
:104BA400630CF524B70780FF9387F7FFB377F6000C
:104BB4009398D7011359390093979700B3E82801C4
:104BC40093D7C7001375F57F9396C7001315450156
:104BD4008320C1010324810193D6C6009395F50176
:104BE400B3E6A600B3E6B60083244101032901011C
:104BF4008329C1001385080093850600130101026F
:104C04006780000063140E0C138314001373E37F96
:104C140063100328B367E701B368F8016396041EC1
:104C24006380074C638808503309FF41B307074189
:104C340033362F013386C7409317860063D4075A4F
:104C44003389EF41B307E84033B62F013386C740B9
:104C540093890E006FF05FF1635AC00F6308030C71
:104C6400B70680009307F07F3368D800638EF4445E
:104C74009307800363CCC7159307F00163DAC73F3A
:104C840013090EFE93070002B3562801630AFE00BF
:104C9400130900043309C94133192801B3EF2F0163
:104CA4003339F0013369D9006F00C012B367F801DA
:104CB400638607229307FEFF638407449306F07F0D
:104CC4006302DE20138E07006FF05FDEB3059340AE
:104CD40063960428B367E7016382073C9387F5FF73
:104CE400638C07509306F07F6382D5289385070071
:104CF4009307800363CEB7329307F00163C2B74AC8
:104D040093070002B387B7403319F700B356BF00C7
:104D1400B317FF003369D900B337F0003357B70036
:104D24003369F9003308E8406F000031B367F801D4
:104D34006384073E9307FEFF638207289306F07F90
:104D44006304DE38138E07006FF09FF263160E1AA9
:104D54009386140093F7E67F639A073EB367E701EF
:104D6400639E04346388074AB367F8016384073C8D
:104D74003309FF01B3070701333FE9013386E70134
:104D84009317860063DA0700B70780FF9387F7FF5E
:104D94003376F6009304100093777900E39A07DCE6
:104DA4009317D60193583900B3E8F80093573600A7
:104DB4001307F07F638AE4069397C70093D7C7006D
:104DC40013F5F47F938509006FF01FE03369F80150
:104DD400333920013309E901B337E9013386E700A8
:104DE40093178600E3DA07FA938414009307F07F9D
:104DF4006396F41E938509001305F07F9307000062
:104E0400930800006FF05FDC639C070A6384084624
:104E1400931636009317D80193D63600B3E8D7001B
:104E240093890E0093573800B3E7F800E38407FC36
:104E3400930500001305F07FB707080093080000EE
:104E44006FF09FD8370680FF1306F6FF33F6C700CE
:104E540093777900B384E440E39C07D06FF05FF468
:104E640013050900EFE04FA2130785019307F00132
:104E7400E3D2E7CA130685FFB317C900130900007C
:104E84006FF0DFCA3369F801333920016FF09FC531
:104E94003309FF413306074133342F01330486407D
:104EA4009317840063CC072CB3688900E39C08C47F
:104EB4009307000093090000930400006FF0DFEFF4
:104EC400E39808F6131535009317D70113553500E9
:104ED400B3E8A700935737006FF01FF5131535009B
:104EE4009317D70113553500B3E8A70093040E00B8
:104EF400935737006FF0DFEB33059340638A041454
:104F0400B70680009307F07F3367D7006306F33852
:104F14009307800363C0A7289307F00163C6A732F1
:104F240093070002B387A7403319F700B356AF00C5
:104F3400B317FF003369D900B337F0003357A70024
:104F44003369F9003308E8003309F901B337F9018B
:104F540033860701930403006FF09FE8B7068000CF
:104F64009307F07F3367D700E314F3D89317360021
:104F740093D737009318D801B3E8170193890E002B
:104F8400935738006FF05FEA130715FE930600028B
:104F940033D7E700630AD600930600043386C6407D
:104FA4003396C7003369C900333920013369E900F6
:104FB40013060000930400006FF01FDE3309FF01A5
:104FC400B30707013336E9013386C7009317860018
:104FD40093041000E3D207DC93042000B70780FF9A
:104FE4009387F7FFB377F600135719001379190065
:104FF400336927019398F70133E9280113D6170081
:105004006FF09FB613090EFE93070002B3562801F2
:10501400630AFE00130900043309C9413319280146
:10502400B3EF2F013339F0013369D9006FF09FAB2F
:105034003369E7013339200133892F41B3B72F0195
:105044003306F8409304030093890E006FF05FAABF
:10505400B367E701638C071C9307F5FF638407229A
:105064009306F07F6304D516138507006FF05FEA9B
:1050740093070002B387C741B316F8003399FF00C2
:1050840033D6CF01B3E6C60033392001B357C80184
:1050940033E926013307F7006FF0DFD393173600A7
:1050A40093D737009318D801B3E817019384050008
:1050B4009357380093890E006FF09FCF63880710D1
:1050C4003369F801E31609D6131535009317D70190
:1050D40013553500B368F500935737006FF0DFD4EC
:1050E40063860810931636009317D80193D63600BA
:1050F400B3E8D70093890E00935738006FF0DFCBE5
:105104003309FF41B3070741333F2F013386E7419A
:10511400930410006FF0DF9D131535009317D7012A
:1051240013553500B368F50093040E009357370008
:105134006FF01FC8131535009317D70113553500A9
:10514400B3E8A700935737006FF01FC79307F07FAA
:10515400E382F6CA3309FF013336E901B3070701D5
:10516400B387C7009398F7011359190033E928014D
:1051740013D61700938406006FF01FC23389EF41E2
:105184003307E84033B62F013304C74093890E0038
:105194006FF05F973369E701333920016FF0DFDA8D
:1051A400938705FE93060002B357F700638AD50080
:1051B40093060004B385B6403317B700336FEF008E
:1051C4003339E0013369F9006FF01FE793173600B4
:1051D40093D737009318D801B3E8170193573800D1
:1051E4006FF09FC4B368C900E39808BA930700003E
:1051F400930900006FF05FBC3389EF41B307E840C7
:1052040033B62F013386C74093890E0093041000F0
:105214006FF01F8E931636009317D80193D636007D
:10522400B3E8D700935738006FF01FB993163600D0
:105234009317D80193D63600B3E8D700930405003A
:10524400935738006FF0DFB6930705FE930600020C
:10525400B357F700630AD500930600043385A640CC
:105264003317A700336FEF003339E0013369F900D6
:105274006FF09FCD930500001305F07FB70708007A
:105284006FF09F943309FF01B30707013336F90127
:105294003386C7006FF09FD3931636009317D80157
:1052A40093D63600B3E8D700935738006FF0DFB7D2
:1052B400130101FC93D74501232C8102232A910277
:1052C40023263103930405001394C500232E1102F1
:1052D4002328210323244103232251032320610390
:1052E400232E710113F5F77F1354C40093D9F501EC
:1052F400630805169307F07F6302F51C93DAD40163
:105304001314340033E48A00B70A8000139B34007A
:10531400B36A5401130915C093040000930B0000F1
:1053240013D746011394C6001377F77F1354C400B0
:1053340013DAF6016300070E9307F07F6308F7049E
:10534400931734001354D601B367F400130717C03E
:105354003704800033E48700131836003309E9402A
:10536400930600009307F000B3C5490163EC97244A
:10537400171700001307C7BC93942400B384E400F8
:1053840083A70400B387E700678007003368C4007D
:10539400130919806310081893E42400130400000F
:1053A400930620006FF01FFC1307F07F93070000A3
:1053B400130400009397C700130504008320C1035E
:1053C400032481031317470193D7C7009395F5016D
:1053D400B3E7E700B3E7B7008324410303290103DC
:1053E4008329C102032A8102832A4102032B010279
:1053F400832BC1019385070013010104678000001A
:10540400930500001307F07FB7070800130400009A
:105414006FF05FFA3368C4006306080E630A043E43
:10542400130504002324C100EFD01FC60326810006
:10543400930555FF9306D001130785FFB386B64045
:10544400B317E400B356D60033E4F6003318E6008D
:10545400330525011309353F930600006FF09FF0D3
:10546400B36A940063860A082326D1002324C1006A
:105474006308043613050400EFD01FC1032681001E
:105484008326C10013090500130755FF930AD001B1
:10549400130B89FFB38AEA4033146401B3DA54016D
:1054A400B3EA8A00339B64011305D0C03309254154
:1054B40093040000930B00006FF09FE6B36A94001E
:1054C400639C0A00130B0000930480001309F07F0F
:1054D400930B20006FF0DFE4138B0400930A0400A5
:1054E4009304C0001309F07F930B30006FF05FE367
:1054F400130B00009304400013090000930B1000E9
:105504006FF01FE293E414001304000093061000EC
:105514006FF05FE593E4340013080600930630004F
:105524006FF05FE46300073C93071000B387E74024
:105534009306800363D0F64213070000930700002C
:10554400130400006FF01FE793050A00930720007F
:10555400E38CF6E493073000E384F6EA9307100043
:10556400E38CF6FC1307F93FE35EE0FA93777800E7
:10557400639C0732135838009317740063DA0700EA
:10558400B70700FF9387F7FF3374F400130709404C
:105594009307E07FE3CAE7E0931794009316D401DE
:1055A40033E4060193D7C7001377F77F6FF09FE0CA
:1055B4009385090013840A0013080B0093860B00DB
:1055C4006FF0DFF86368542B63848A2A13070B0097
:1055D4001309F9FF130B00009317840093588801F3
:1055E400B3E8F80013DE0801B3D7CA03939E080199
:1055F40093DE0E011356070113138800B3FACA038E
:10560400B386FE02939A0A0133665601637ED6007E
:10561400330616011385F7FF636A16336378D632AF
:105624009387E7FF330616013306D6403354C60387
:1056340013170701135707013376C603B3868E0287
:10564400131606013366C700637ED60033061601BF
:105654001307F4FF6368162F6376D62E1304E4FF52
:105664003306160193970701B703010033E487005B
:105674009387F3FF3378F400135F04011355030198
:10568400B377F300B30FF8023307D640B302FF0237
:1056940013D60F01B3060503B3865600B306D6002E
:1056A4003308AF0263F4560033087800370F010063
:1056B400130FFFFF13D60601B3F6E6019396060116
:1056C40033FFEF0133060601B386E601636EC716A6
:1056D400630AC716B306DB403307C740333BDB001E
:1056E400330B67411307F93F6382681F3358CB03B9
:1056F40013D60601337BCB03338F0E03131B0B012D
:10570400336B6601637EEB01330B1B011306F8FF59
:1057140063681B2D6376EB2D1308E8FF330B1B0125
:10572400330BEB413356CB039396060193D6060114
:10573400337BCB03B38ECE02131B0B01B3E666019E
:1057440063FED601B3861601130EF6FF63E616292F
:1057540063F4D6291306E6FFB3861601131808016D
:105764003368C800131E0801935F0801135E0E011D
:10577400330FFE02B386D641330EC50313560F0111
:10578400B387FF02330EFE003306C6013305F5036B
:105794006376F600B70701003305F500370E010004
:1057A400130EFEFF935706013376C6011316060146
:1057B400337FCF013385A7003306E60163F8A60CD7
:1057C400B386D8009307F8FF63E4162563EEA6209A
:1057D4006386A62413880700136818006FF0DFD8C7
:1057E40013850400EFD05F8A130755019305C001A8
:1057F40013090502032681008326C100E3D8E5C806
:10580400130485FFB39A8400130B00006FF0DFC903
:10581400130506002324C100EFD01F87930555010B
:105824001307C00193070500032681001305050231
:10583400E352B7C0938787FF130800003314F600C0
:105844006FF01FC1E378DBE8330B6B0033386B0078
:1058540033081801330707011308F4FF63FEE80255
:105864006360C716630CE614130408006FF09FE628
:10587400E36E0BD51397FA0113561B0093DA1A0043
:105884003367C700131BFB016FF01FD5E396A6F423
:10589400E30C06CC6FF0DFF2E398E8FCE3726BFCF8
:1058A400130408006FF01FE39377F8009306400099
:1058B400E382D7CC9337C8FF1308480093C7170077
:1058C400135838003304F4006FF01FCB13080000A2
:1058D40093071000E348E0FE1308F0FFE31607C443
:1058E400130910C0930710001305E9413317A400EE
:1058F400B356F8003315A8003367D7003335A0003A
:105904003367A700937677003354F400638006026C
:105914009377F70093064000638AD7009307470004
:1059240033B7E7003304E4001387070093178400B8
:1059340063D8070613071000930700001304000040
:105944006FF05FA7130407006FF0DFD19307050022
:105954006FF09FCD9306F001E3D8F6F8930610FE9E
:105964003387E64013060002B356E4006388C70099
:105974009307E943B317F4003368F80033370001A1
:105984003367D700137477009307000063000402A1
:105994009377F7009306400013040000E390D7F8D0
:1059A4009317940093D7C7001314D40113573700E7
:1059B40033648700130700006FF0DF9FE376DBEAB0
:1059C400330B6B0033386B00330818011304E4FF06
:1059D400330707016FF01FD013060E006FF01FD8B6
:1059E400130806006FF0DFD39317130033B3670077
:1059F400B3081301B38616011308E8FF13830700E5
:105A0400E39CA6DCE302C3B6136818006FF0DFB5AD
:105A140013880700E388A6FE6FF01FDCE366C3FC6F
:105A240013880700E312C3FE6FF01FB413D74501B8
:105A3400B70710009387F7FF13D846011377F77F52
:105A44009308F07F33FEB700930E0500B3F7D70039
:105A540093D5F501130F06001378F87F93D6F6015A
:105A6400630E170113031000630618016314070182
:105A74006302FE021305030067800000B368AE00F2
:105A840013031000E39808FEE316E8FEB3E7C7002B
:105A9400E39207FE13031000E39EEEFD13030000E0
:105AA400E38AD5FC13031000E31607FC3365AE004C
:105AB4003333A0006FF01FFC13D74501B707100064
:105AC4009387F7FF13D846011377F77F9308F07F86
:105AD40033F3B700130E0500B3F7D70093D5F501E0
:105AE400930E06001378F87F93D6F6016302170528
:105AF40063081803631407043365A30063160800DE
:105B040033E6C70063020606630A0504638CD50600
:105B14009306100063960504138506006780000051
:105B2400B3E8C700E38808FC9306E0FF6FF0DFFEEC
:105B34003365A300E31A05FE630EE802631608004A
:105B440033E6C700E30606FCE394D5FC635CE80295
:105B540063980600930610006FF01FFCE39E06FA9C
:105B64009306F0FF6FF05FFB93060000E30605FA6F
:105B74006FF01FFA33E6C700E30806FC9306E0FF64
:105B84006FF09FF9634A0701E3E467F8630CF300DD
:105B940093060000E372F3F8E38405FC93860500A2
:105BA4006FF09FF7E3E6CEF793060000E376DEF7A7
:105BB4006FF09FFE13D74501B70710009387F7FFD7
:105BC4001347F7FF13D84601B3F5B700B3F7D7006F
:105BD400931657011378F87F638006021307F07F4A
:105BE400130500006304E80067800000B3E7C70002
:105BF4003335F00067800000B3E5A50013051000FD
:105C0400E38E05FC678000009387418103A50700AC
:045C140067800000A5
:045C1800805F0000A9
:105C200030313233343536373839414243444546D2
:105C30000000000030313233343536373839616294
:105C400063646566000000005561727420656368D6
:105C50006F2064656D6F2021200D0A0053746172FE
:105C60007420747970696E67206F6E207465726D30
:105C7000696E616C20746F2073656E642063686167
:105C80007261637465722E2E2E200D0A00000000D2
:105C90006563686F206368617261637465723A203E
:105CA0002563200D0A000000BCC1FFFF40C0FFFFBC
:105CB00040C0FFFF3CC0FFFF4CC0FFFF4CC0FFFFD8
:105CC000E0BFFFFF3CC0FFFF4CC0FFFFE0BFFFFF96
:105CD0004CC0FFFF3CC0FFFF9CC1FFFF9CC1FFFF0A
:105CE0009CC1FFFFE0BFFFFF0001020203030303AB
:105CF000040404040404040405050505050505055C
:105D0000050505050505050506060606060606063B
:105D10000606060606060606060606060606060623
:105D2000060606060606060607070707070707070B
:105D300007070707070707070707070707070707F3
:105D400007070707070707070707070707070707E3
:105D500007070707070707070707070707070707D3
:105D600007070707070707070808080808080808BB
:105D700008080808080808080808080808080808A3
:105D80000808080808080808080808080808080893
:105D90000808080808080808080808080808080883
:105DA0000808080808080808080808080808080873
:105DB0000808080808080808080808080808080863
:105DC0000808080808080808080808080808080853
:105DD0000808080808080808080808080808080843
:105DE0000808080808080808000000000000F03F44
:105DF000000000000000F0FF000000000000F07F45
:105E00000000004003B8E23F06D0CF43EBFD4C3E1C
:105E1000000000000000F83F000000000000F0BF9C
:105E20009C7500883CE4377E000000604715F73F12
:105E300044DF5DF80BAE543E000000000000D03F90
:105E4000555555555555D53F000000000000E03F21
:105E5000FE822B654715F73F00000000000040431D
:105E6000EF4E454A287ECA3F65DBC9934A86CD3F3F
:105E700001411DA96074D13F4D268F515555D53F25
:105E8000FFAB6FDBB66DDB3F033333333333E33FBD
:105E90000000000000000840000000E009C7EE3FDD
:105EA000FD033ADC09C7EE3FF5015B14E02F3EBE6F
:105EB000FE822B654715973C59F3F8C21F6EA5016A
:105EC00000000000432EE63FEF39FAFE422EE63F87
:105ED000396CA80C615C20BED0A4BE726937663EE6
:105EE000F16BD2C541BDBB3E2CDE25AF6A56113FDA
:105EF00093BDBE166CC1663F3E5555555555C53FC1
:105F00000000000000000040000000000000F87FDA
:105F1000000000000000304300000000000030C31B
:105F200000000000000050439C7500883CE437FEF0
:105F300059F3F8C21F6EA581000000000000903CDC
:105F400088F6FFFF6CF4FFFFFCF5FFFF0CF6FFFF88
:105F5000FCF5FFFFC4F4FFFFFCF5FFFF0CF6FFFFAD
:105F60006CF4FFFF6CF4FFFFC4F4FFFF0CF6FFFFBF
:105F700074F6FFFF74F6FFFF74F6FFFFC4F4FFFF33
:105F8000000000006C620000D46200003C6300006E
:105F90000000000000000000000000000000000001
:105FA00000000000000000000000000000000000F1
:105FB00000000000000000000000000000000000E1
:105FC00000000000000000000000000000000000D1
:105FD00000000000000000000000000000000000C1
:105FE00000000000000000000000000000000000B1
:105FF00000000000000000000000000000000000A1
:106000000000000000000000000000000000000090
:106010000000000000000000000000000000000080
:10602000000000000000000001000000000000006F
:106030000E33CDAB34126DE6ECDE05000B00000034
:106040000000000000000000000000000000000050
:106050000000000000000000000000000000000040
:106060000000000000000000000000000000000030
:106070000000000000000000000000000000000020
:1063A0000000000000000000FFFFFFFF805F000012
:1063B000000000000088C3400000000000002440EE
:0A63C00000000000000000000000D3
:0400000300001000E9
:00000001FF
