:020000040100F9
:1000000097E10B009381013D17F1C800130181199D
:1000100017150A00130505C097150A00938585BFBB
:100020001386C18463FCC5008322050023A055000C
:100030001305450093854500E3E8C5FE1385C1849B
:1000400097F5A800938585156378B50023200500F2
:1000500013054500E36CB5FEEF00C019EF401079C1
:080060006F0000006780000042
:10006800130101FF1305600023261100EF005073F0
:1000780013051000EF00DA2D9387418383A707004B
:10008800130101FF13080600232611009308050039
:100098001387050003A5C7001386060097D70B0032
:1000A800938787DC630C08009386080097D50B00BC
:1000B800938585DCEF00C00EEFF09FFA97170A00D2
:1000C800938747C0138807006FF01FFE930505004C
:1000D8009306000013060000130500006F2010614E
:1000E800130101FD232611022324810223229102F8
:1000F80023202103232E3101232C4101232A5101DE
:10010800232861012326710163060604138A060069
:100118006382060413090600930A0500138B050081
:10012800930B07009309000033043901135414009A
:10013800B3048A0213850A00B3049B009385040064
:10014800E7800B0063420504630805009309140067
:10015800E3EC29FD930400008320C10203248102FB
:100168001385040003290102832441028329C10164
:10017800032A8101832A4101032B0101832BC1003A
:10018800130101036780000013090400E3EE29F955
:100198006FF05FFC9387418303A507006780000029
:1001A800130101FC2324C1021386050093050500F1
:1001B8001385418303250500130381022326D102F9
:1001C80093060300232E11002328E102232AF102BB
:1001D800232C0103232E110323266100EF10900125
:1001E8008320C1011301010467800000130101FF8E
:1001F800232481002320210117140A001304049DDD
:1002080017190A001309899C33098940232611000C
:100218002322910013592940630E0900930400001A
:10022800832704009384140013044400E780070024
:10023800E31899FE17140A001304449917190A00C1
:100248001309899C3309894013592940630E090011
:1002580093040000832704009384140013044400CB
:10026800E7800700E31899FE8320C100032481007A
:100278008324410003290100130101016780000064
:10028800938741839305050003A507006F0040018C
:10029800938741839305050003A507006F30403E0F
:1002A800130101FD23229102232021032326110299
:1002B80023248102232E3101232C4101232A5101B9
:1002C800232861012326710123248101232291011E
:1002D8009384B500930760011309050063E6970648
:1002E8009307000163ECB722EF00903793040001F5
:1002F800930780011306200097D90B00938989364C
:10030800B387F90003A44700138787FF6300E42637
:10031800832744008326C4000326840093F7C7FF7D
:10032800B307F40003A747002326D60023A4C6007A
:10033800136717001305090023A2E700EF009032A6
:10034800130584006F00401E93F484FF63C8041CE7
:1003580063E6B41CEF00D0309307701F63FC974A24
:1003680093D79400638C071E130740006360F7441B
:1003780093D7640013869703138587039316360073
:1003880097D90B009389092EB386D90003A4460098
:10039800938686FF638C8602832744009305F000CA
:1003A80093F7C7FF3387974063C0E502635A07385E
:1003B8000324C400638C86008327440093F7C7FF97
:1003C80033879740E3D4E5FE1306050003A409012B
:1003D80017D80B00130888296308041B83254400D9
:1003E8001307F00093F5C5FFB3879540634AF744B8
:1003F80017D70B002322072917D70B00232C072711
:1004080063D007429307F01F63E2B73493D53500F2
:10041800938715009397370003A54900B387F90020
:1004280083A6070093D52540130710003317B7009C
:100438003367A700938587FF2326B4002324D400BD
:1004480097D50B0023A2E52223A0870023A68600C8
:100458009357264093061000B396F6006360D714AE
:10046800B3F7E60063940702939616001376C6FF67
:10047800B3F7E60013064600639A07009396160042
:10048800B3F7E60013064600E38A07FE1305F000FB
:1004980093183600B38819019385080013030600E2
:1004A80003A4C500639A85006F008032635C07323D
:1004B8000324C400638E85308327440093F7C7FF65
:1004C80033879740E354E5FE8326C400032684005F
:1004D80093E514002322B4002326D60023A4C600E3
:1004E800B304940097D60B0023A8961897D60B0050
:1004F80023A296189366170023A6040123A40401D7
:1005080023A2D400B307F4001305090023A0E700D1
:10051800EF005015130584006F0000019307C00019
:100528002320F900130500008320C102032481025F
:1005380083244102032901028329C101032A81017D
:10054800832A4101032B0101832BC100032C810065
:10055800832C4100130101036780000093060020EB
:10056800130600041305F0036FF09FE103A4C7000E
:1005780013062600E39E87D803A4090117D80B00A9
:100588001308C80EE31C04E503A749009357264047
:1005980093061000B396F600E374D7EC03A4890021
:1005A800832A440093FBCAFF63E89B00B3879B4000
:1005B8001307F0006340F7169387418B138C8183F0
:1005C80083AA070003270C009307F0FF330A74017E
:1005D800B38A5401630EF734B71700009387F70006
:1005E800B38AFA00B7F7FFFFB3FAFA0093850A0057
:1005F80013050900EF0050079307F0FF130B0500E0
:10060800630EF528636A452997FCA800938C8CB57E
:1006180083A70C00B387FA0017F7A8002324F7B4C0
:1006280013870700630EAA3A83260C009307F0FF8E
:100638006386F63CB3074B41B387E70017F7A8007A
:100648002322F7B2137C7B0063080C30330B8B41F9
:10065800B7170000130B8B00138AF7FFB30A5B016F
:100668009387870033F74A01B3878741B387E74009
:1006780033FA470193050A0013050900EF00C07E0D
:100688009307F0FF6306F53C33056541B30A45015E
:1006980083A70C0017D70B00232A67FD93EA1A00DB
:1006A800B307FA0017F7A800232EF7AA23225B0145
:1006B800630A34351306F000637A763583264400DE
:1006C80013874BFF137787FF93F61600B3E6E60010
:1006D8002322D40093055000B306E40023A2B600F9
:1006E80023A4B6006360E638832A4B0013040B008A
:1006F8001387C18A032707006374F70023A6F18ACA
:100708001387018B03270700637EF71823A8F18A54
:100718006F00401913E714002322E400B304940087
:1007280017D70B00232497F493E717001305090044
:1007380023A2F400EF000073130584006FF0DFDEDE
:100748008326C400032684006FF09FBD93D79500CD
:10075800130740006378F712130740016368F72214
:100768009386C7051387B70593963600B386D900D5
:1007780083A70600938686FF6380F61C03A74700BD
:100788001377C7FF63F6E50083A78700E398F6FEB3
:1007980083A6C70003A749002326D4002324F40016
:1007A80023A4860023A687006FF09FCA1307400181
:1007B800637CF710130740056368F71E93D7C400DE
:1007C8001386F7061385E706931636006FF05FBBAE
:1007D800130313009377330093858500E39207CCC6
:1007E8006F004010B307F40003A747008326C40036
:1007F800032684001367170023A2E7002326D600E8
:100808001305090023A4C600EF00C0651305840082
:100818006FF09FD113D63400938784006FF0DFAD5B
:10082800B305B40083A745001305090093E7170033
:1008380023A2F500EF000063130584006FF0DFCEFC
:1008480013E714002322E400B304940017D70B0025
:10085800232497E217D70B00232E97E013E71700FE
:1008680023A6040123A4040123A2E400B305B400D1
:100878001305090023A0F500EF00C05E13058400EE
:100888006FF09FCA93D765009386970313878703F2
:10089800939636006FF09FED6306341303A4890026
:1008A800832A440093FACAFFB3879A4063E69A0002
:1008B8001307F000E340F7E613050900EF00805A3C
:1008C800130500006FF05FC61386C7051385B705CB
:1008D800931636006FF0DFAA83A788001306F6FF89
:1008E800639C171D93773600938888FFE39607FE6D
:1008F80003A7490093C7F6FFB3F7E70017D70B0024
:100908002324F7D693961600E3EAD7C8E38806C8E7
:1009180033F7F600631A07009396160033F7F600CC
:1009280013034300E30A07FE130603006FF05FB6E4
:10093800938A0A016FF09FCB03A54900935527407E
:10094800130710003317B7003367A70097D50B00BC
:1009580023ACE5D06FF05FE4B71700001387F7FF0B
:10096800330A5B01337AEA00B387474133FAE70079
:1009780093050A0013050900EF00004F9307F0FFE5
:10098800E314F5D0130A00006FF09FD01307400559
:100998006364F70893D7C5009386F7061387E706BD
:1009A800939636006FF09FDC130740156364F708D1
:1009B80093D7F400138687071385770793163600B5
:1009C8006FF01F9C97ECA800938CCC7983A70C0040
:1009D8003387FA0097E7A80023A6E7786FF0DFC40B
:1009E80093164A01E39206C403A48900B38A5B0103
:1009F80093EA1A00232254016FF09FCF23AC61833E
:100A08006FF05FC413040B006FF09FCE93071000C4
:100A18002322FB006FF05FEA130740156362F706B5
:100A280093D7F50093868707138777079396360041
:100A38006FF0DFD3130740556362F70693D724019D
:100A48001386D7071385C707931636006FF05F9391
:100A5800130C8CFFB38A8A01B38A6A41130A000017
:100A68006FF01FC39305840013050900EF20504160
:100A780003A4890083A70C00832A44006FF05FC792
:100A8800130740556364F70293D725019386D70768
:100A98001387C707939636006FF05FCD9306803FA4
:100AA8001306F0071305E0076FF09F8D9306803F4C
:100AB8001307E0076FF09FCB83A749006FF09FE40F
:100AC8009307300063F8C702B367B50093F73700A0
:100AD80093063000639207060327050083A70500E5
:100AE800631CF7041306C6FF1305450093854500EC
:100AF800E3E4C6FE9307F6FF630C0602034705000E
:100B080083C60500631ED7021387170093071500D5
:100B18003305E5006F00400103C7070083C60500E1
:100B280093871700631ED70093851500E396A7FEE9
:100B380013050000678000009307F6FF6FF01FFCA5
:100B48003305D74067800000B3C7A50093F7370087
:100B5800B308C500639207069307300063FEC70415
:100B680093773500130705006398070613F6C8FF47
:100B7800930706FE636CF708637CC702938605003B
:100B88009307070003A8060093874700938646004B
:100B980023AE07FFE3E8C7FE9307F6FFB387E740F6
:100BA80093F7C7FF938747003307F700B385F5002E
:100BB800636817016780000013070500E37C15FFD1
:100BC80083C705001307170093851500A30FF7FEC9
:100BD800E36817FF6780000083C605001307170046
:100BE80093773700A30FD7FE93851500E38007F8A6
:100BF80083C605001307170093773700A30FD7FEA6
:100C080093851500E39A07FC6FF05FF683A605004D
:100C180083A2450083AF850003AFC50083AE0501FD
:100C280003AE450103A3850103A8C50193854502C9
:100C38002320D70083A6C5FF232257002324F701CA
:100C48002326E7012328D701232AC701232C67007D
:100C5800232E070113074702232ED7FEE368F7FA6E
:100C68006FF09FF163F6A502B387C5006372F502C2
:100C78003307C500630A060E9387F7FF83C607008C
:100C88001307F7FF2300D700E398F5FE67800000FD
:100C98009307F00063E8C702930705009306F6FF81
:100CA800630C060C93861600B386D700938515004F
:100CB80003C7F5FF93871700A38FE7FEE398D7FED6
:100CC80067800000B3E7A50093F737006390070A31
:100CD800930806FF93F808FF938808013308150165
:100CE80013870500930705008326070093870701EC
:100CF8001307070123A8D7FE832647FF23AAD7FE99
:100D0800832687FF23ACD7FE8326C7FF23AED7FEF3
:100D1800E31CF8FC1377C600B38515011378F600B9
:100D2800630E07041387050093880700130E30002D
:100D3800130747000323C7FF93884800B306E8401A
:100D480023AE68FEB386D500E364DEFE1307C8FF52
:100D58001377C7FF1307470013763600B387E700FA
:100D6800B385E5006FF09FF3678000009306F6FFF8
:100D7800930705006FF01FF3678000001306080053
:100D88006FF0DFF11303F00013070500637EC30261
:100D98009377F7006390070A63920508937606FF36
:100DA8001376F600B386E6002320B7002322B700A7
:100DB8002324B7002326B70013070701E366D7FEED
:100DC8006314060067800000B306C34093962600AC
:100DD80097020000B38656006780C6002307B70055
:100DE800A306B7002306B700A305B7002305B7007D
:100DF800A304B7002304B700A303B7002303B70075
:100E0800A302B7002302B700A301B7002301B7006C
:100E1800A300B7002300B7006780000093F5F50F23
:100E280093968500B3E5D50093960501B3E5D50003
:100E38006FF0DFF69396270097020000B3865600FE
:100E480093820000E78006FA93800200938707FFE9
:100E58003307F7403306F600E378C3F66FF0DFF3A5
:100E68006780000067800000130101FF23248100D0
:100E7800130405001385050097E7A80023A8073089
:100E880023261100EFF059489307F0FF630AF50095
:100E98008320C10003248100130101016780000041
:100EA80097E7A8009387872E83A70700E38207FEAA
:100EB8002320F4008320C1000324810013010101D1
:100EC800678000009307F00163E4B70C8327C52D02
:100ED800130101FF232481002322910023261100FE
:100EE8009304050013840500638407041397250001
:100EF800B387E70003A70700630C070293061000F7
:100F0800630CD7069306F0FF6308D7041385050022
:100F180023A00700E70007008320C1000324810005
:100F280083244100130500001301010167800000BC
:100F380013850400EF00000E13060400032481004B
:100F48008320C10093050500138504008324410014
:100F5800130101016F00C0058320C1000324810033
:100F6800930760012320F500832441001305100036
:100F780013010101678000008320C1000324810060
:100F8800832441001305000013010101678000005C
:100F9800930760012320F5001305F0FF6780000028
:100FA800938741839305050003A507006FF09FF120
:100FB80093870500130101FF232481009305060090
:100FC80013040500138507002326110097E7A800DE
:100FD80023AE071AEFF0992F9307F0FF630AF50085
:100FE8008320C100032481001301010167800000F0
:100FF80097E7A8009387871983A70700E38207FE6E
:101008002320F4008320C10003248100130101017F
:10101800678000006FF019293367B5009303F0FF6C
:101028001377370063100710B7877F7F9387F7F729
:101038000326050083A60500B372F6003363F600A5
:10104800B382F200B3E26200639272106316D608AC
:101058000326450083A64500B372F6003363F60005
:10106800B382F200B3E26200639E720C6316D60686
:101078000326850083A68500B372F6003363F60065
:10108800B382F200B3E262006398720C6316D6046E
:101098000326C50083A6C500B372F6003363F600C5
:1010A800B382F200B3E262006392720C6316D60256
:1010B8000326050183A60501B372F6003363F60023
:1010C800B382F200B3E26200639C720A1305450121
:1010D80093854501E30ED6F413170601939706018D
:1010E800631EF7001357060193D706013305F7402F
:1010F8009375F50F63900502678000001357070189
:1011080093D707013305F7409375F50F63940500EE
:10111800678000001377F70F93F7F70F3305F74051
:10112800678000000346050083C605001305150007
:10113800938515006314D600E31606FE3305D640E2
:10114800678000001305450093854500E31CD6FC25
:10115800130500006780000013058500938585004E
:10116800E312D6FC13050000678000001305C500D4
:101178009385C500E318D6FA1305000067800000C0
:101188001305050193850501E31ED6F81305000034
:10119800678000009377350013070500639C0704F8
:1011A800B7867F7F9386F6F79305F0FF130747000E
:1011B8000326C7FFB377D600B387D700B3E7C700C6
:1011C800B3E7D700E384B7FE8346C7FFB307A7405A
:1011D8000346D7FF0345E7FF63800604630A060258
:1011E8003335A0003305F5001305E5FF67800000DF
:1011F800E38806FA8347070013071700937637003A
:10120800E39807FE3307A7401305F7FF6780000040
:101218001385D7FF678000001385C7FF678000002C
:10122800630A060CB367B50093F7370063900708A5
:101238009307300063FCC7068327050003A7050052
:10124800639EE70A1306C6FF6306060A3703FFFE16
:101258001303F3EF33876700B788808093C7F7FFDE
:10126800B377F70093880808B3F717016394070862
:10127800130E30006F00C0020327050083A6050087
:10128800B30767001348F7FFB3F70701B3F7170170
:101298006316D7061306C6FF630E0604639C07048D
:1012A8001305450093854500E368CEFC0347050018
:1012B80083C605001306F6FF639AE602630C06026E
:1012C800630A0702930715003306C5006F00000183
:1012D8006302F60293871700630E070093851500D3
:1012E80003C7070083C60500E304D7FE3305D740CC
:1012F80067800000130500006780000003470500B1
:1013080083C605001306F6FFE38CE6FA6FF01FFEAE
:10131800130101FC23282103232251032320610305
:10132800232E7101938A0600930B0600232E1102C7
:10133800232C8102232A91022326310323244103EB
:10134800232C8101232A91012328A1012326B101FD
:10135800138B0500130905009386050017C60B00BB
:10136800130696CE6F0080009306040013841600BF
:101378008347F4FF3307F600034707001377870016
:10138800E31407FE1307D0026388E71C1307B002B3
:101398006386E70E93840700130D000063880A0E26
:1013A800930700016388FA1C138C0A0093DCFA4146
:1013B800631A0D0EB7090080130AF0FF93C9F9FFED
:1013C80013060C0093860C0013050A009385090088
:1013D800EFF0C91A13060C00930D050093860C0054
:1013E80013050A0093850900EFE0594F130E050015
:1013F800138605001307000013050000930500007D
:1014080013089000130390019308F0FF938704FDDD
:101418006378F8009387F4FB636CF308938794FC74
:1014280063D0570B630217056366B6046394C5005F
:101438006362AE046308AE0EB386AC0213DFF741F5
:1014480013071000B3858503B30EAC02B386B6004C
:10145800B335AC023385D701B337F500B386B60090
:10146800B305DF00B385B700130414008344F4FF09
:101478006FF0DFF91307F0FF6FF01FFF83440400DC
:10148800130D000013842600E39C0AF09307000361
:101498006380F412130CA000930C0000930AA000C0
:1014A800E30A0DF0130A0000B70900806FF05FF13E
:1014B8009387F4F96366F300938794FAE3C457F7C4
:1014C8009307F0FF6308F706630A0D003305A04091
:1014D800B336A000B307B040B385D74063860B008E
:1014E8006314070823A06B018320C103032481032D
:1014F80083244103032901038329C102032A8102AA
:10150800832A4102032B0102832BC101032C810191
:10151800832C4101032D0101832DC1001301010416
:1015280067800000E31AB6F01307F0FFE3CEFDF280
:101538006FF09FF0930720022320F90013050A009B
:1015480093850900E3820BFA130BF4FF13050A00D5
:10155800938509006FF01FF983440400130D1000F0
:10156800138426006FF09FE3130A05009389050092
:101578006FF09FFD93070003639AF400834704000C
:101588001307800593F7F70D6388E700130C000134
:10159800930C00006FF0DFE183441400130C00018A
:1015A80013042400930C0000930A00016FF05FE01D
:1015B800834704001307800593F7F70DE38EE7FCD4
:1015C800130C8000930C0000930A80006FF05FDE1C
:1015D800938741839306060013860500930505004B
:1015E80003A507006FF0DFD2130101FD23202103BB
:1015F800232E3101232C4101232A5101130A06000D
:101608001389060023261102232481022322910232
:1016180023286101232671012324810123229101BA
:101628002320A10193890500930A050093860500EC
:1016380017C60B00130656A16F008000930604001E
:10164800138416008347F4FF3307F60003470700A7
:1016580013778700E31407FE1307D002638AE71A9B
:101668001307B002638CE70C93840700930C000007
:10167800630E090C930700016304F91A135DF9411D
:101688001306090093060D001305F0FF9305F0FFFC
:10169800EFE0D924130C0500138B0500130609008D
:1016A80093060D001305F0FF9305F0FFEFE0196DA9
:1016B800930B09001303050013070000130500002E
:1016C800930500001308900093089001938704FD88
:1016D8006378F8009387F4FB63E0F80A938794FC37
:1016E80063D4270B634807006366BB00639C6501EE
:1016F800637AAC001307F0FF130414008344F4FF6B
:101708006FF0DFFC6300850FB306AD0213DEF7410F
:1017180013071000B38575033386AB02B385B60093
:10172800B3B6AB023385C700B337F500B385D50030
:10173800B305BE00B385B7006FF01FFC83440400F7
:10174800930C000013842600E31609F293070003A4
:101758006388F41097B70B009387477513035000FD
:1017680003AC070003AB4700930BA000130D000068
:101778001309A0006FF05FF49387F4F963E6F800AB
:10178800938794FAE3C027F763460706638A0C0039
:101798003305A040B336A000B307B040B385D740A7
:1017A80063060A006312070623203A018320C10258
:1017B8000324810283244102032901028329C101F0
:1017C800032A8101832A4101032B0101832BC100D4
:1017D800032C8100832C4100032D01001301010318
:1017E80067800000E39265F31307F0FFE346F3F028
:1017F8006FF09FF19307200223A0FA001305F0FF72
:101808009305F0FFE3040AFA9309F4FF6FF0DFF998
:1018180083440400930C1000138426006FF05FE5E6
:10182800930700036396F40A8347040013078005AF
:1018380093F7F70D639EE704370B001083441400F9
:101848001303F00013042400130CF0FF130BFBFF29
:10185800930B0001130D0000130900016FF0DFE581
:10186800834704001307800593F7F70DE386E7FC29
:10187800370B002013037000130CF0FF130BFBFF52
:10188800930B8000130D0000130980006FF0DFE256
:1018980013060001930600001305F0FF9305F0FFFF
:1018A800EFE0D903130C0500138B050013060001A4
:1018B800930600001305F0FF9305F0FFEFE0194CC5
:1018C800930B000113030500130D00006FF0DFDE1A
:1018D800370B00101303F000130CF0FF130BFBFF82
:1018E800930B0001130D00006FF01FDD93874183F8
:1018F80093060600138605009305050003A5070057
:101908006FF09FCE83A74506130101FD23286101CF
:10191800232611022324810223229102232021035A
:10192800232E3101232C4101232A51012326710141
:101938002324810113972701130B06006358070A14
:101948008327860013890500130A0500832B0600E8
:10195800930AF0FF6388070803AC4B0003A40B004D
:1019680093592C0063860906930400006F00C00099
:1019780013044400638C99048325040013060900AA
:1019880013050A00EF10903993841400E31255FFF1
:101998001305F0FF8320C1020324810223240B00D6
:1019A80023220B0083244102032901028329C10158
:1019B800032A8101832A4101032B0101832BC100E2
:1019C800032C8100130101036780000083278B002B
:1019D800137CCCFFB38787412324FB00938B8B00B8
:1019E800E39C07F6130500006FF0DFFAEF10D07ADA
:1019F8006FF05FFA130101ED23202113232E31111B
:101A080023248111232611122324811223229112C7
:101A1800232C4111232A51112328611123267111E6
:101A2800232291112320A111232EB10F2326D100A7
:101A38009309050013890500130C060063060500C9
:101A480083278503E38207180317C9009317070143
:101A580093D707019396270163C606028326490692
:101A6800B7270000B367F70037E7FFFF1307F7FF53
:101A780033F7E6002316F900939707012322E906B6
:101A880093D7070113F7870063080716032709018F
:101A98006304071693F7A7011307A0006380E718EC
:101AA800B787FFFF9304C10493C7078323209104DA
:101AB800232401042322010423280100232C0100EC
:101AC80023200102232E01002324010097BA0B00D2
:101AD800938A4A3E2322F10213840400930C0C00DB
:101AE80083C70C006384071613075002E384E75C7E
:101AF800138A0C006F00C0006384E714130A0D00FA
:101B080083471A00130D1A00E39807FE330C9D4112
:101B1800630E0C12032781048327410423209401B8
:101B28003307EC0093871700232284012324E10460
:101B38002322F104930670001304840063D0F60294
:101B4800E3060752130601049305090013850900EB
:101B5800EFF05FDB6318051013840400032781008E
:101B680083471A00330787012324E1006380070EA7
:101B7800930C1D0003471D00A30D0102130CF0FF79
:101B8800130A0000930B0000130DA002938C1C0095
:101B98009306A005930707FE63E0F61E93972700B8
:101BA800B387570183A70700B387570167800700EA
:101BB80013850900EF20403583274500138507006A
:101BC800232EF100EFF00FDD2320A102130B0500F7
:101BD80013850900EF20403383278500232CF1006B
:101BE800E3140B5603C70C006FF05FFA93EB0B027C
:101BF80003C70C006FF09FF99305090013850900CE
:101C0800EF104018630405006F1000068357C900E1
:101C18001307A00093F7A701E394E7E88317E90007
:101C2800E3C007E88326C10013060C0093050900EA
:101C380013850900EF1000092324A1006F00800319
:101C4800330C9D41E3060CF26FF0DFEC832781042F
:101C5800638A070013060104930509001385090028
:101C6800EFF05FCA8357C90093F70704638407003E
:101C78006F00907F8320C112032481120325810005
:101C880083244112032901128329C111032A8111D6
:101C9800832A4111032B0111832BC110032C8110BE
:101CA800832C4110032D0110832DC10F1301011343
:101CB8006780000097F70900938707FD2328F10044
:101CC80093F70B02638407528327C100938677003A
:101CD80093F686FF83AD060003AE46009387860021
:101CE8002326F10093F61B0063860600B3E6CD01B8
:101CF800E39E064213FDFBBF13072000A30D01025C
:101D08009306F0FF630ADC64B3E6CD01937BFDF72D
:101D1800E39E0620631C0C72E3120736937D1D00B8
:101D2800130B010FE3960D3A130D0C006354BC011D
:101D3800138D0D008347B103B337F000330DFD0059
:101D48006F004005130A0000130607FD938C1C0062
:101D580093172A0003C7FCFF338A4701131A1A0096
:101D6800330A460193079000130607FDE3F0C7FE08
:101D7800930707FEE3F4F6E2E30A07EC2306E1081B
:101D8800A30D0102130D1000930D1000130BC108D1
:101D9800130C000093FF2B0063840F00130D2D001C
:101DA8000327410413F84B0883278104930617007F
:101DB8001386060063160800330EAA41E34CC017C9
:101DC8008345B10393068400638C05021307B103AE
:101DD800938717002320E400130710002322E40050
:101DE8002324F1042322C10413077000E340C71021
:101DF8001307060013840600130616009386860050
:101E0800638E0F041307C103938727002320E40080
:101E1800130720002322E4002324F1042322C10411
:101E280013077000E35AC70AE38C07261306010458
:101E38009305090013850900232A0101EFF09FACDF
:101E4800E31205E2032741048327810403284101A3
:101E58009306410513061700138404009305000830
:101E6800630AB864330CBC4163468075B387FD00D0
:101E7800232064012322B4012324F1042322C10472
:101E8800130770006352C70263840718130601041E
:101E98009305090013850900EFF0DFA6E31405DCBC
:101EA800832781049386040093F84B006386080017
:101EB8003304AA41634A80166354AA01130A0D0029
:101EC80003278100330747012324E100639E077A33
:101ED80023220104138404006FF09FC093F70B02C0
:101EE80013ED0B01639207548327C1001387470042
:101EF8008327C100130E00002326E10083AD0700ED
:101F0800130710006FF09FDF93EB0B0803C70C005B
:101F18006FF0DFC78327C100A30D010203AB0700E1
:101F280013874700E3060B389307F0FF2326E100E9
:101F3800E308FC2413060C009305000013050B00AE
:101F4800EF2080230327C100E308054EB30D654148
:101F5800130C00006FF05FDD93F70B0293E80B01A1
:101F6800639A07468327C100138747008327C10068
:101F7800130E00002326E10083AD07006F004047E1
:101F880093F70B0213ED0B01639C07468327C100EF
:101F9800138747008327C1002326E10083AD07008C
:101FA80013DEFD4113070E00634407381307F0FFE3
:101FB800630AEC0033E7CD01937BFDF7E30E070AD4
:101FC800138D0B00E3180E1E93079000E3E4B71F70
:101FD80093870D03A307F10E930B0D00930D1000CB
:101FE800130BF10E6FF05FD40327C100A30D01029C
:101FF800130D100083270700130747002326E1006D
:102008002306F108930D1000130BC1086FF05FD879
:102018002322010493F84B00E38608003304AA4105
:10202800E35280009386040013070001032641044D
:10203800E354874297BE0B00938E0EFF130C0001EA
:10204800930D7000138B0E006F008001930526001E
:102058009386860013060700130404FF63588C0454
:10206800938707011307160023A0660123A28601A0
:102078002324F1042322E104E3DAEDFC638407421C
:10208800130601049305090013850900EFF09F87E3
:10209800E31A05BC03264104130404FF83278104C3
:1020A8009386040093051600E34C8CFA930E0B00FC
:1020B800B387870023A0D60123A286002324F10436
:1020C8002322B10413077000E358B7DE638C07744A
:1020D800130601049305090013850900EFF09F8298
:1020E800E31205B8832781046FF01FDD8347B1032E
:1020F80003C70C00E39C07A893070002A30DF10295
:102108006FF0DFA89307B002A30DF10203C70C001C
:102118006FF0DFA78327C10003C70C0003AA0700DD
:10212800938747002326F100E3520AA6330A404169
:1021380093EB4B006FF09FA593EB1B0003C70C00BC
:102148006FF0DFA403C70C0093871C00E30EA733CE
:10215800938C0700130607FD93079000130C0000EB
:10216800E3EAC7A2938C1C0093172C0003C7FCFF5B
:10217800338C8701131C1C00330CCC009307900090
:10218800130607FDE3F0C7FE6FF0DFA003C70C00DE
:1021980093EB4B006FF09F9F93F70B026394072814
:1021A8008327C10093F60B011387470083A7070015
:1021B800E39E062E93F60B04E38C0610939D07010D
:1021C8002326E10093DD0D01130E0000138D0B0093
:1021D800130710006FF09FB297F70900938787A93C
:1021E8002328F10093F70B02E39007AE0326C10002
:1021F80093F60B0183270600130646002326C10029
:10220800639A066893F60B0463820668939D070138
:1022180093DD0D01130E00006FF0DFAC8327C100C2
:1022280003274102130E000083AD07009387470080
:102238002326F10097F709009387C7A3231EE1021D
:1022480013ED2B002328F100130720006FF01FABBC
:1022580093F70B02639E07168327C10093F60B01C1
:102268001387470083A70700E396062493F60B0419
:10227800E3800608939D070193DD0D01130E00000E
:1022880093880B002326E1006F0080168326C10087
:1022980093F70B02138746006396076C93F70B01BD
:1022A800639C077E93F70B04E398071093F80B20C1
:1022B8006384087E8327C1002326E1000327810069
:1022C80083A707002380E7006FF09F8103C70C00F6
:1022D8009307C006630AF77A93EB0B016FF01F8B25
:1022E80003C70C00930780066308F77893EB0B0489
:1022F8006FF0DF8993F70B02639207100327C10081
:1023080093F70B0113074700E39A071A93F70B0497
:10231800638E077E8327C1002326E100138D0B00FF
:10232800839D070013DEFD4113070E00E35007C825
:10233800B307B0413337F000330EC041330EEE40DF
:102348001307D002A30DE1029306F0FF938D070057
:1023580013071000E31ADC9A93061000E304D7C6AB
:1023680093062000630ED70E9306010F6F008000BE
:1023780093060B009317DE0113F77D0093DD3D00F4
:1023880013070703B3EDB701135E3E00A38FE6FE04
:10239800B3E7CD01138BF6FFE39C07FC93771D0091
:1023A800638A070E930700036306F70E9386E6FF1A
:1023B800A30FFBFE9307010FB38DD740930B0D00BE
:1023C800138B06006FF05F96EF1000016FF0CFE7F8
:1023D80093880B008327C10013877700137787FF43
:1023E800832D0700032E4700930787002326F1005B
:1023F80013FDF8BF130700006FF05F90138D0B00FB
:102408008327C1009387770093F787FF03A74700C7
:10241800938687002326D10083AD0700130E07009B
:102428006FF09FB8138D0B008327C10013877700C7
:10243800137787FF93078700832D0700032E470034
:102448002326F100130710006FF05F8B930610002E
:10245800630AD77C93062000138D0B00E316D7F090
:1024680083260101130B010F93F7FD00B387F600D4
:1024780083C707001317CE0193DD4D00130BFBFF35
:10248800B36DB701135E4E002300FB00B3E7CD0127
:10249800E39C07FC9307010FB38D6741930B0D0075
:1024A8006FF09F88930510001306000093860400C0
:1024B8006FF09FBA330EAA41E356C09B9305000103
:1024C80063DAC57B97BE0B00938E0EB7232A610192
:1024D80023244103130F0001930F7000130A0E0009
:1024E800138B0E006F0080019305270013048400EE
:1024F80013870600130A0AFF635C4F0593870701D9
:1025080093061700232064012322E4012324F10405
:102518002322D104E3DADFFC6384071813060104DD
:102528009305090013850900EFF0CFBD631C05F280
:1025380003274104130F0001130A0AFF83278104AC
:102548001384040093051700930F7000E3484FFBB2
:10255800130E0A00930E0B00032A8102032B41017C
:1025680013058400B387C7012320D4012322C401A3
:102578002324F1042322B10413077000635EB738E3
:102588006380075C1306010493050900138509009D
:10259800EFF04FB7631805EC03274104330CBC4137
:1025A800832781049306410513061700138404004A
:1025B800E35E808B9305000163DC855797BE0B00B3
:1025C800938E8EA7232A4101130E0001130F70006A
:1025D800138A0E006F00800113062700130484007D
:1025E80013870600130C0CFF635C8E0593870701A5
:1025F80093061700232044012322C4012324F10455
:102608002322D104E35ADFFC63880706130601047A
:102618009305090013850900EFF0CFAE631405E4B4
:1026280003274104130E0001130C0CFF83278104B8
:102638001384040013061700130F7000E3488EFB81
:10264800930E0A00032A410193058400B38787018A
:102658002320D401232284012324F1042322C1044A
:1026680013077000634CC71C130616009386850079
:10267800138405006FF08FFF130610001307000086
:10268800138404006FF01FF6130601049305090074
:1026980013850900EFF00FA7E30C05826FF08FDCBC
:1026A8009305100013070000138404006FF09FE4E3
:1026B800639807220347B1036312074E63800F2014
:1026C8009307C1032326F104930720002328F1046C
:1026D800130610009306410513070600138406002D
:1026E80013061600938686006FF04FF7E38807FC01
:1026F8001306010493050900138509002324010327
:10270800232AF101EFF00FA0631E05D4032741042B
:1027180083278104930641051306170013840400D8
:1027280003288102832F41016FF08FED138D0B0079
:102738006FF09FC2130600016358C65197BE0B0085
:10274800938E8E8E13060400232641039302000104
:1027580093037000232AF1012324010313040E00BC
:10276800138A0E006F00C001930527001306860028
:1027780013870600130404FF63DC82049306170022
:102788009387070123204601232256002324F104BE
:102798002322D104E3DAD3FC638E0706130601046F
:1027A8009305090013850900EFF0CF95631C05CA4E
:1027B8000327410493020001130404FF83278104C3
:1027C800138604009305170093037000E3C882FA88
:1027D800930E0A00832F410103288102032AC102B4
:1027E800130E040013040600B387C7012320D40185
:1027F8002322C4012324F1042322B1041307700007
:10280800E348B7EA1304840013861500138705000C
:102818006FF00FDB13070000930510001386040008
:102828006FF05FF56354AA01130A0D008327810036
:10283800B38747012324F1006FF08FE9638C0714F5
:10284800130601049305090013850900EFF08F8B27
:10285800631A05C0032641048327810493064105B2
:1028680013061600138404006FF04FE023220104BE
:10287800138404006FF08FAE63160C3A130C00003B
:10288800930D0000130B010F6FF00FCA93F60B2086
:1028980063940638938D0700130E00006FF08FC401
:1028A8009306410513061000130700001384040063
:1028B8006FF0CFDA138D0C006FF08FAB13070000A9
:1028C8009306410513061000138404006FF00FD916
:1028D80093070003A307F10E130BF10E6FF0CFC49B
:1028E8001306010493050900138509002324010335
:1028F800232AF101EFF00F81631605B6032741047F
:102908008327810413840400130617000328810217
:10291800832F41016FF0CFCA1386150093068500F7
:1029280013870500130405006FF0CFD39306000347
:1029380093EB2B00A30EE102230ED10213FDFBBF84
:10294800130720006FF08FBB8327810103C70C009A
:10295800638E07A283C70700638A07A293EB0B4025
:102968006FF0CFA20326810083A706002326E1008B
:102978009356F64123A0C70023A2D7006FF04F96C5
:1029880013050B00EFE01F81930D0500130C0000E9
:102998006FF08FB91307100093870D002326610588
:1029A8002328B1052324B1052322E1049306410518
:1029B8006FF08FCF130B010F93770D40232A8100FF
:1029C8002324410323263103930B000093090B00B2
:1029D80013840700138B0C00130A0E00930C0900D4
:1029E800032981016F0040021306A000930600002E
:1029F80013850D0093050A00EFD0496E63080A227B
:102A0800930D0500138A05001306A0009306000025
:102A180013850D0093050A00EFD0593613050503F9
:102A2800A38FA9FE938B1B009389F9FFE30E04FA89
:102A380003470900E31A77FB9307F00FE386FBFAD5
:102A4800631A0A109307900063E6B711232C21013B
:102A58009307010F13890C00930C0B00138B0900CB
:102A680003244101032A81028329C102B38D6741EE
:102A7800930B0D006FF04FAB03C71C0093EB0B20BB
:102A8800938C1C006FF08F9003C71C0093EB0B0214
:102A9800938C1C006FF08F8F8327C10083A70700DA
:102AA8002326E1000327810023A0E7006FF04F836E
:102AB80093076000930D0C0063EE870D138D0D00D6
:102AC8002326E10017AB0B00130B8B556FF04FACAF
:102AD80093F60B20638606122326E10093FDF70F79
:102AE800130E0000138D0B00130710006FF00FA1D9
:102AF80093F60B20638C060E93FDF70F130E000060
:102B080093880B002326E1006FF09F8E93F70B202C
:102B18006380070C8327C100138D0B002326E10077
:102B2800838D070013DEFD4113070E006FF0CFC73A
:102B38009385060097AE0B00938E0E506FF01FB171
:102B480093064105130610001307000013840400C0
:102B58006FF04FB1832701028325C101930B000059
:102B6800B389F9401386070013850900EF109061B7
:102B7800034719001306A000930600003337E0004E
:102B880013850D0093050A003309E900EFD00955B4
:102B98006FF01FE7930D60006FF05FF29307B103CA
:102BA8002326F104930710002328F10413061000CC
:102BB800930641056FF0CFA38327C1002326E100C8
:102BC8000327810083A707002390E7006FE05FF1E8
:102BD8008327C100138D0B002326E10083AD070076
:102BE80013DEFD4113070E006FF00FBC938D070035
:102BF800130E000093880B002326E1006FF04FFFAF
:102C08002326E100938D0700130E0000138D0B009F
:102C1800130710006FF08F8E93FDF70F130E00004F
:102C28006FF04F8C138D0B006FF08FBA93079000E5
:102C3800E3E8B7DD6FF09FE1930D0C002326E10078
:102C4800130C00006FF04F8E9385060097AE0B00B3
:102C5800938E8E3D6FF05FB99305160097AE0B000B
:102C6800938E8E3C6FF0CFC49307F0FF2324F100BE
:102C78006FF04F80138506009305060097AE0B0092
:102C8800938E8E3B6FF01F8E0327C100032C070025
:102C98009306470063540C00130CF0FF03C71C0095
:102CA8002326D100938C07006FE05FEE138D0B0095
:102CB8006FF00FA493880B006FF04FAB138D0B00D0
:102CC8006FF04FAD83D7C50003AE450603D3E500CB
:102CD80083A8C50103A84502130101B893F7D7FFDC
:102CE80013070040232C8146231AF10013840500A2
:102CF8009307010793058100232A9146232821473A
:102D0800232E1146130905002326C107231B610042
:102D180023221103232601032324F100232CF1008D
:102D28002328E100232EE10023200102EFE09FCCBD
:102D380093040500635C05028357410193F7070478
:102D4800638807008357C40093E707042316F40039
:102D58008320C147032481471385040003290147C1
:102D680083244147130101486780000093058100CF
:102D780013050900EF004047E30005FC9304F0FF4A
:102D88006FF09FFB9387418383A70700130101FF1F
:102D98002324810023229100232611009304050097
:102DA800138405006386070003A7870363060708E3
:102DB8000317C4009317070193D7070193F68700F9
:102DC800638A060883260401638A060A13F7170034
:102DD8006308070283274401232404001305000025
:102DE800B307F040232CF400638A06028320C10055
:102DF800032481008324410013010101678000003E
:102E080093F7270013070000639407000327440182
:102E18002324E40013050000E39A06FC8317C4008A
:102E280013F70708E30407FC93E707042316F400E5
:102E38001305F0FF6FF09FFB13850700EF00C059E3
:102E48000317C4009317070193D7070193F6870068
:102E5800E39A06F693F60701638E060693F7470092
:102E68006390070483260401936787002316F40000
:102E78009397070193D70701E39A06F413F70728F6
:102E880013060020E304C7F4930504001385040027
:102E9800EF1000168357C400832604016FF01FF358
:102EA80083250403638E0500930704046388F500F3
:102EB80013850400EF00C07C0317C4002328040214
:102EC800832604011377B7FD232204002320D400AE
:102ED8006FF09FF99307900023A0F400136707048D
:102EE8002316E4001305F0FF6FF05FF097E7090081
:102EF800938787CD03A7070083278714638C07046C
:102F080003A747001308F001634EE80613182700CB
:102F180063060502338307012324C30883A887189F
:102F2800130610003316E600B3E8C80023A41719E7
:102F38002324D310930620006304D5021307170037
:102F480023A2E700B387070123A4B70013050000F5
:102F5800678000009307C7142324F7146FF05FFA03
:102F680083A6C7181307170023A2E70033E6C60095
:102F780023A6C718B387070123A4B70013050000C9
:102F8800678000001305F0FF678000008397C50085
:102F9800130101FE232C8100139707011357070122
:102FA80023263101232E1100232A910023282101F1
:102FB800937687001384050093090500639A061029
:102FC800371700001307078083A64500B3E7E7001B
:102FD8002396F5006350D01803278402630A070C70
:102FE8009397070193D7070183A4090093963701A4
:102FF80023A009008325C40163C4061693061000A4
:103008001306000013850900E70007009307F0FF87
:103018006308F5188357C400032784028325C40175
:1030280093F74700638E0700832644008327040331
:103038003305D540638607008327C4033305F5406D
:10304800130605009306000013850900E700070032
:103058009307F0FF631AF51003A709008317C4004C
:10306800630407169306D0016306D7009306600130
:103078006310D70C8326040137F7FFFF1307F77F88
:10308800B3F7E7002316F400232204002320D4001A
:103098008325040323A09900638C05009307040487
:1030A8006386F50013850900EF00805D232804027C
:1030B800130500008320C1010324810183244101F9
:1030C800032901018329C10013010102678000005F
:1030D80003A90501E30E09FC83A405001377370053
:1030E80023A02501B384244193070000631407003B
:1030F80083A745012324F400634890006FF05FFB29
:103108003309A900E35690FA832744028325C401B2
:10311800938604001306090013850900E780070059
:10312800B384A440E34EA0FC8357C4001305F0FF0A
:1031380093E707042316F4008320C10103248101C7
:1031480083244101032901018329C10013010102DC
:103158006780000003A7C503E340E0E86FF05FF570
:10316800032504056FF0DFEB8357C40037F7FFFF33
:103178001307F77FB3F7E700832604019397070146
:1031880093D707412316F400232204002320D400F8
:1031980013973701E35E07EE2328A4046FF05FEF6F
:1031A80083A70900E38807E61307D0016388E702CD
:1031B800130760016384E7028357C40093E7070499
:1031C8002316F4006FF01FEF37F7FFFF1307F77FA1
:1031D80083260401B3F7E7006FF0DFFA23A0990014
:1031E800130500006FF01FED130101FE232C810071
:1031F800232E1100130405006306050083278503A9
:10320800638007028397C500639607028320C10184
:1032180003248101130500001301010267800000E7
:103228002326B100EF00401B8325C1008397C5000A
:10323800E38E07FC13050400032481018320C101E8
:10324800130101026FF09FD4972500009385C5AF45
:103258006F00903F130101FE232E1100232C8100E3
:10326800232A910023282101232631012324410107
:103278002322510123206101032445001707000080
:103288001307C7FC232EE5029307C52E130730004A
:103298002322E52E2324F52E2320052E9307400014
:1032A800130905002326F400130680009305000087
:1032B80023220406232004002322040023240400DC
:1032C80023280400232A0400232C04001305C40522
:1032D800EFD05FAB83248900171B0000130B8B55BD
:1032E800971A0000938ACA5A171A0000130ACA626A
:1032F800971900009389C968B70701002320640360
:10330800232254032324440323263403232E840036
:103318009387970023A6F400130680009305000006
:1033280023A2040623A0040023A2040023A404006B
:1033380023A8040023AA040023AC04001385C405B1
:10334800EFD05FA40324C900B707020023A06403D9
:1033580023A2540323A4440323A6340323AE9400D6
:10336800938727012326F400232204062320040040
:10337800232204002324040023280400232A040011
:10338800232C04001305C4051306800093050000D0
:10339800EFD05F9F8320C1012320640323225403BD
:1033A8002324440323263403232E84000324810189
:1033B80093071000232CF9028324410103290101FA
:1033C8008329C100032A8100832A4100032B0100BD
:1033D80013010102678000008327850363840700C7
:1033E800678000006FF01FE76780000067800000BB
:1033F800130101FD23248102232E3101232A5101C7
:10340800232611022322910223202103232C410188
:103418002328610193090500938A05001304060017
:10342800EF00502F930710006310F5029387FAFFFF
:103438001307E00F636AF70013F7FA0F2306E1009A
:10344800130910006F00C0029306C40513860A0012
:103458009305C10013850900EF10C0779307F0FFAB
:10346800130905006304F50A630E05080347C10044
:1034780093040000130AF0FF130BA0006F008002F2
:1034880083270400938617002320D4002380E700B5
:10349800938414009307C100B387970063F424074B
:1034A80003C70700832784009387F7FF2324F400CA
:1034B800E3D807FC8326840193050700130604005C
:1034C8001385090063C4D700E31C67FBEF1040585D
:1034D800E31045FD1309F0FF8320C1020324810294
:1034E8001305090083244102032901028329C1012C
:1034F800032A8101832A4101032B010113010103DE
:103508006780000013890A006FF01FFD8357C4000D
:1035180093E707042316F4006FF01FFC8317C60017
:10352800139727016340070203274606B7260000C2
:10353800B3E7D700B72600003367D7002316F60095
:103548002322E6066FF0DFEA130101FE232C810037
:10355800232A910023282101232631011384050001
:10356800232E110097A90B009389C90F1309050091
:10357800EFD01F8F83A68900371700009307F7FE47
:1035880083A446003384874093F4C4FF3304940033
:103598001354C4001304F4FF1314C400634EE4006E
:1035A8009305000013050900EFD01F8C83A789003D
:1035B800B38797006306F50213050900EFD09F8AC9
:1035C8008320C101032481018324410103290101CE
:1035D8008329C10013050000130101026780000060
:1035E800B305804013050900EFD01F889307F0FF4B
:1035F800630AF50497C7A8009387C7B683A707008F
:1036080003A78900B384844093E41400338487407B
:10361800130509002322970097C7A80023A487B49D
:10362800EFD05F848320C1010324810183244101F9
:10363800032901018329C1001305100013010102A8
:10364800678000009305000013050900EFD0DF81B3
:1036580003A789009306F000B307E540E3DEF6F41C
:103668009386818383A6060093E717002322F70039
:103678003305D54097C7A80023A6A7AE6FF0DFF3A0
:10368800638E0512130101FF232481002322910078
:10369800138405009304050023261100EFD04FFC86
:1036A8008325C4FF130784FF17A50B00130585FBAB
:1036B80093F7E5FF3306F7008326460003288500C5
:1036C80093F6C6FF6304C81A2322D60093F51500A3
:1036D8003308D6006394050A032384FF8325480032
:1036E80097A80B00938888F833076740032887005A
:1036F800B387670093F51500630418150323C70003
:1037080023266800232403016380051E93E617001F
:103718002322D7002320F6009306F01F63ECF60A55
:1037280093D7370093861700939636008325450074
:103738003305D5000326050093D6274093071000CC
:10374800B397D700B3E7B700930685FF2326D700C2
:103758002324C70097A60B0023A8F6F02320E50032
:103768002326E600032481008320C100138504007A
:1037780083244100130101016FD0CFEE8325480057
:1037880093F51500639E0502B387D70097A80B0031
:103798009388C8ED8326860013E81700B305F70061
:1037A800638016170326C60023A6C6002324D60066
:1037B8002322070123A0F5006FF01FF667800000A1
:1037C80093E61700232ED4FE2320F6009306F01F5D
:1037D800E3F8F6F493D69700130640006364D60E18
:1037E80093D66700938596031386860393953500D1
:1037F800B305B50083A60500938585FF6384D512BC
:1038080003A646001376C6FF63F6C70083A68600A4
:10381800E398D5FE83A5C6002326B7002324D70046
:103828000324810023A4E5008320C100138504003C
:103838008324410023A6E600130101016FD08FE223
:1038480063940514832586000326C600B387F60013
:1038580093E6170023A6C5002324B6002322D70029
:103868003307F7002320F7006FF0DFEF93F515001B
:10387800B387D70063900502832584FF3307B740D9
:103888008326C70003268700B387B7002326D60000
:1038980023A4C6009386C18313E6170083A60600F7
:1038A8002322C70017A60B002322E6DCE3ECD7EAA5
:1038B8009387418B83A5070013850400EFF0DFC8C9
:1038C8006FF05FEA130640016374D60213064005E1
:1038D800636AD60693D6C7009385F6061386E6066E
:1038E800939535006FF0DFF0B387D7006FF09FEA4C
:1038F8009385C6051386B605939535006FF05FEF7F
:1039080097A60B0023AAE6D697A60B0023A4E6D613
:1039180023261701232417012322070123A0F500DA
:103928006FF05FE403254500930710001356264007
:103938003396C7003366A60097A70B0023A6C7D205
:103948006FF09FED13064015636CD60093D6F70011
:103958009385860713867607939535006FF05FE9A0
:1039680013064055636CD60093D627019385D60776
:103978001386C607939535006FF09FE79305803F40
:103988001306E0076FF0DFE693E617002322D7005F
:103998002320F6006FF01FDD83278600638207343B
:1039A80083D7C500130101FD23248102232C410183
:1039B800232A5101232611022322910223202103C5
:1039C800232E31012328610123267101232481013B
:1039D800232291012320A10113F7870013840500F6
:1039E800930A0500130A0600630A070803A70501DE
:1039F8006306070813F7270083240A006300070AF1
:103A0800032744028327C401370B00809309000071
:103A180013090000134B0BC0138609009385070098
:103A280013850A00630409049306090063742B01D3
:103A380093060B00E7000700635AA02883278A0033
:103A4800B389A9003309A9403385A7402324AA00D4
:103A5800630C05208327C401032744021386090049
:103A68009385070013850A00E31009FC83A9040065
:103A780003A94400938484006FF01FFA930504009F
:103A880013850A00EFF00FB0631C053A8357C40092
:103A980083240A0013F72700E31407F613F7170027
:103AA80063140724832C840003250400B70B0080CB
:103AB80013CCEBFF130B00001309000093CBFBFFA3
:103AC800630E090E13F70720630C0724138D0C00EF
:103AD8006362992F13F70748630A0708832644018E
:103AE800832504011307190093991600B386D9009A
:103AF80093D9F601B30CB540B389D90093D91940CD
:103B0800330797011386090063F6E9009309070054
:103B18001306070093F707406384072E93050600F2
:103B280013850A00EFC0CFF7130D050063020530B7
:103B38008325040113860C00EFD00F818357C4003E
:103B480093F7F7B793E707082316F40033059D01A9
:103B5800B38799412328A4012320A400232A3401F0
:103B6800930C09002324F400130D090013060D001B
:103B780093050B00EFD00F8F8327840003260400E2
:103B880093090900B38C97413306A60123249401B5
:103B98002320C4001309000083278A00330B3B014C
:103BA800B389374123243A016380090C832C8400AC
:103BB800032504008357C400E31609F003AB04008F
:103BC80003A94400938484006FF09FEF83A9440005
:103BD80083AB040093848400E38A09FE13860900FA
:103BE8009305A00013850B00EF000059630405122C
:103BF80013051500330B754193070B00138C09004F
:103C080063F43701138C070003250400832704019C
:103C18008326440163F8A700032984003389260119
:103C2800634289096348DC1A832744028325C40157
:103C380013860B0013850A00E780070013090500A7
:103C48006356A008330B2B4113051000630A0B16AB
:103C580083278A00B38B2B01B389294133892741F4
:103C680023242A01631A0908130500008320C102CE
:103C78000324810283244102032901028329C1010B
:103C8800032A8101832A4101032B0101832BC100EF
:103C9800032C8100832C4100032D01001301010333
:103CA8006780000093850B0013060900EFC09FFB97
:103CB800832704009305040013850A00B3872701AE
:103CC8002320F400EFF04FD2E30E05F68317C4006B
:103CD80093E707042316F4001305F0FF6FF01FF9AC
:103CE8001305000067800000130B00001305000097
:103CF800930B000093090000E38A09ECE31E05EE2C
:103D0800138609009305A00013850B00EF00C04639
:103D1800E31005EE93871900138B07006FF01FEE71
:103D28008327040163E2A70483274401636EF90231
:103D38009306090063742C0193860B00B3C6F60240
:103D4800032744028325C40113060B0013850A00C8
:103D5800B386F602E7000700E35AA0F693090500C8
:103D6800330939416FF05FE393890C00637499015B
:103D7800930909001386090093050B00EFC09FEE15
:103D88008327840003270400B387374133073701AB
:103D98002324F4002320E400E39407FC93050400A3
:103DA80013850A00EFF04FC4E31205F233093941D5
:103DB8006FF09FDE930C0900130D09006FF01FDBF5
:103DC8009305040013850A00EFF00FC2E30205E82B
:103DD8006FF0DFEF13060C0093850B00EFC09FE830
:103DE800032784008327040013090C003307874145
:103DF800338C87012324E400232084016FF09FE49F
:103E080013850A00EF000045130D0500E31005D4E3
:103E18008325040113850A00EFF09F868317C400E9
:103E28001307C00023A0EA0093F7F7F76FF05FEAE3
:103E38009307C00023A0FA008317C4006FF05FE95E
:103E48001305F0FF6FF09FE2130101FD232A5101D2
:103E580023261102232481022322910223202103F5
:103E6800232E3101232C41012328610123267101CE
:103E7800930A052E63860A08938B0500130B050029
:103E8800130A0000930910001309F0FF83A44A00E5
:103E980003A48A009384F4FF63C804028357C40010
:103EA8009384F4FF63FEF9008317E400930504008C
:103EB80013050B0063862701E7800B00336AAA000D
:103EC80013048406E39C24FD83AA0A00E3900AFCF9
:103ED8008320C1020324810213050A0083244102BE
:103EE800032901028329C101032A8101832A41018F
:103EF800032B0101832BC10013010103678000001C
:103F0800130A00006FF0DFFC17A50B00130505C5A9
:103F18006780000017A50B000345C5C76780000030
:103F2800130101F923248106138405008395E50014
:103F38002322910623202107232611069304060035
:103F48001389060063CA050413068100EF00907008
:103F5800634405040327C100B7F700008320C106A6
:103F6800B3F7E70037E7FFFFB387E70093B717001A
:103F7800032481062320F9009307004023A0F400BE
:103F8800371500008324410603290106130505801F
:103F980013010107678000008357C400232009002C
:103FA80093F70708638407028320C1060324810668
:103FB8009307000423A0F400032901068324410683
:103FC8001305000013010107678000008320C10664
:103FD800032481069307004023A0F4000329010667
:103FE80083244106130500001301010767800000C0
:103FF80003D7C500130101FE232C8100232E1100D5
:10400800232A910023282101137727001384050010
:10401800630807021387350423A0E50023A8E500F9
:104028001307100023AAE5008320C101032481019E
:104038008324410103290101130101026780000063
:104048009306C1001306810093040500EFF05FEDAD
:10405800832581001309050013850400EFC04FA4D0
:104068008317C4006308050497F6FFFF9386061EAE
:1040780023AED402832681000327C10093E70708F3
:104088002316F4002320A4002328A400232AD40004
:1040980063180704B3E727012316F4008320C1013E
:1040A8000324810183244101032901011301010231
:1040B8006780000013F70720E31807F693F7C7FF98
:1040C80093E72700130734042316F400930710001E
:1040D8002320E4002328E400232AF4006FF0DFF40F
:1040E8008315E40013850400EF00105D63160500D6
:1040F8008317C4006FF01FFA8357C40093F7C7FFF4
:1041080093E717009397070193D707416FF09FF83C
:104118006380050263020604638806048347060079
:1041280023A0F500034506003335A0006780000092
:10413800130101FF9305C10063040602638A0602A6
:104148008347060023A0F500034506003335A00089
:10415800130101016780000013050000678000005B
:10416800130500006FF0DFFE1305E0FF6780000015
:104178001305E0FF6FF0DFFD9377350013F8F50FB7
:104188006386070C9307F6FF630E060403470500D2
:10419800630C07059306F0FF6F0040019387F7FF54
:1041A8006382D7040347050063000705130515005C
:1041B80013773500E31407FE130730006368F7022E
:1041C800638207020347050063000703B307F5008E
:1041D8006F00C000034705006308070113051500B9
:1041E800E39AA7FE13050000678000003707010067
:1041F800939885001307F7FFB3F8E80093F5F50FD8
:10420800B3E5B80093980501B3E8B8003786808015
:10421800B705FFFE9385F5EF130606081303300074
:104228000327050033C7E800B306B7001347F7FFB5
:1042380033F7E6003377C700E31607F89387C7FF1D
:1042480013054500E36EF3FC6FF09FF79307060034
:104258006FF09FF6130101FD232E31012326110271
:10426800232481022322910223202103232C4101AC
:10427800232A510123286101232671012324810166
:1042880093090600638C0522138B0500930A050029
:10429800EFC01FBD1384B9009307600163FE870E4A
:1042A800137484FF13070400634E040E636C340F09
:1042B8008327CBFF13098BFF93F4C7FF330A9900B9
:1042C80063D4E41A97960B009386C63903A6860032
:1042D80083264A006306462513F6E6FF3306CA001E
:1042E8000326460013761600631C061A93F6C6FFCB
:1042F8003386D400635AE63493F7170063940702B1
:10430800032C8BFF330C894183274C0093F7C7FF9D
:10431800B386D700B38B960063D6EB0CB38BF4004F
:1043280063DCEB349385090013850A00EFB05FF76F
:1043380093090500630C05048327CBFF130785FF4A
:1043480093F7E7FFB307F900638EE7301386C4FFDE
:104358009307400263EEC7381307300183260B002A
:104368006366C7289307050013070B0023A0D7002F
:104378008326470023A2D7000327870023A4E7004A
:1043880093050B0013850A00EFF08FAF13850A0021
:10439800EFC05FAD6F00C0011304000113070001F7
:1043A800E37834F19307C00023A0FA0093090000D2
:1043B8008320C1020324810213850900832441025A
:1043C800032901028329C101032A8101832A4101AA
:1043D800032B0101832BC100032C8100130101036E
:1043E800678000008327CA0003278A001386C4FF5A
:1043F800930640022326F70023A4E70003278C0036
:104408008327CC0093098C00330A7C012326F7000C
:1044180023A4E70063E4C62E9306300103270B00AC
:104428009387090063F2C6022324EC0003274B009C
:104438009307B0012326EC0003278B0063E2C734FF
:1044480093070C01130B8B0023A0E70003274B00F5
:1044580093840B0013090C0023A2E70003278B00A9
:10446800138B090023A4E70003264900B38784407F
:104478001307F00013761600636CF70633E6C400E2
:104488002322C90083274A0093E717002322FA0052
:1044980013850A00EFC01F9D93090B006FF05FF1B1
:1044A80093F71700E39007E8032C8BFF330C89413F
:1044B80083274C0093F7C7FF6FF05FE60324810260
:1044C8008320C10283244102032901028329C101F7
:1044D800032A8101832A4101032B0101832BC10097
:1044E800032C810093050600130101036FB05FDB05
:1044F800336686002322C900B305890093E71700B5
:1045080023A2F50083274A009385850013850A00B6
:1045180093E717002322FA00EFF08F966FF05FF70A
:1045280093F6C6FF3386D400930504016352B60E92
:1045380093F71700E39807DE032C8BFF330C8941B0
:1045480083274C0093F7C7FFB386D700338A9600BA
:10455800E346BADC8327CC0003278C001386C4FF0C
:10456800930640022326F70023A4E70093098C0052
:1045780063EAC6229305300103270B0093870900DD
:1045880063F2C5022324EC0003274B009307B00114
:104598002326EC0063EEC72403278B0093070C0146
:1045A800130B8B0023A0E70003274B0023A2E7008F
:1045B80003278B0023A4E70033078C00B3078A4046
:1045C80097960B0023A4E60A93E717002322F70027
:1045D80083274C0013850A0093F7170033E48700FC
:1045E80023228C00EFC01F886FF09FDC2320D500AA
:1045F80083264B001307B0012322D500636EC71032
:1046080013078B009307850083268B006FF01FD656
:1046180033098900B307864017970B00232827051D
:1046280093E717002322F9008327CBFF13850A009D
:1046380093090B0093F7170033E48700232E8BFEB2
:10464800EFC05F826FF0DFD68327CA0003278A0096
:1046580093040600330AC9002326F70023A4E700C1
:104668006FF09FE08327C5FF93F7C7FFB384F4007B
:10467800330A99006FF05FDF0327CC0083268C0094
:104688001386C4FF9305400223A6E6002324D7001F
:1046980093098C00330A7C0163E2C50613053001D7
:1046A80083260B00138709006372C5022324DC00EC
:1046B80003274B009307B0012326EC0063E0C70AE9
:1046C80083268B0013070C01130B8B002320D700C4
:1046D80083264B0093840B0013090C002322D70078
:1046E80083278B00138B09002324F7006FF0DFD793
:1046F80093050B00EFC00FD76FF09FC893050B0011
:1047080013850900EFC00FD6138B090093840B00A3
:1047180013090C006FF05FD503278B002324E500F5
:104728000327CB002326E500630AF60013070B01D5
:104738009307050183260B016FF05FC383260B01E6
:1047480013078B01930785012328D50083264B0186
:10475800232AD50083268B016FF05FC183278B0046
:104768002328FC008327CB00232AFC006304B6041B
:1047780083260B0113078C01130B0B016FF01FF538
:104788002328EC000327CB0093074002232AEC00E0
:1047980003270B016300F60493078C01130B0B012D
:1047A8006FF09FCA93050B0013850900EFC08FCBEC
:1047B8006FF09FE083270B0113070C02130B8B018B
:1047C800232CFC008327CBFF232EFC0083260B0021
:1047D8006FF0DFEF232CEC0003274B0193070C024B
:1047E800130B8B01232EEC0003270B006FF0DFC5A2
:1047F80083278B002328FC008327CB00232AFC0077
:1048080003270B016308D60093078C01130B0B01D8
:104818006FF05FD9232CEC0003274B0193070C02A0
:10482800130B8B01232EEC0003270B006FF09FD78F
:10483800130101FF23248100138405008395E500FB
:1048480023261100EF0080736340050283270405C7
:104858008320C100B387A7002328F4040324810020
:1048680013010101678000008357C40037F7FFFF79
:104878001307F7FFB3F7E7002316F4008320C100FE
:104888000324810013010101678000008397C5009C
:10489800130101FE232C8100232A910023282101E2
:1048A80023263101232E110013F707101384050066
:1048B8009304050013090600938906008395E50013
:1048C800631E070237F7FFFF1307F7FFB3F7E70089
:1048D8002316F400032481018320C1019386090073
:1048E800130609008329C100032901011385040067
:1048F80083244101130101026F00803893062000D0
:1049080013060000EF0000618317C4008315E4005C
:104918006FF05FFB130101FF23248100138405005E
:104928008395E50023261100EF00C05E9307F0FF92
:104938006304F5028357C400371700002328A40432
:10494800B3E7E7002316F4008320C10003248100A5
:1049580013010101678000008357C40037F7FFFF88
:104968001307F7FFB3F7E7002316F4008320C1000D
:104978000324810013010101678000008395E5008D
:104988006F008036B3E7A50093F73700639A0706F0
:10499800930730001307050063E8C706630006069F
:1049A80003C805009306F6FF938515002300070149
:1049B80093071700630808023306C700B306D70039
:1049C8006F00400103C7F5FF93871700A38FE7FE29
:1049D800630C0700938515003388F640E394C7FEFF
:1049E8006780000013880600338707016300080604
:1049F80093871700A38F07FEE39CE7FE67800000FC
:104A0800130705006FF09FF93703FFFEB788808012
:104A18001303F3EF93880808130E300083A60500EC
:104A2800B387660013C8F6FFB3F70701B3F717019A
:104A3800E39807F6130747001306C6FF232ED7FE91
:104A480093854500E36CCEFC6FF05FF5678000004E
:104A5800130101FE232C8100232A91002328210120
:104A6800232E110023263101130905009384050024
:104A7800130406006306050083278503638807146B
:104A88000317C400832784019316070193D60601F0
:104A98002324F40093F78600638207088327040120
:104AA800638E07061396260193F9F40F93F4F40F17
:104AB800635E06080327040083264401B307F74012
:104AC80063DED70A83268400130617002320C40058
:104AD8009386F6FF2324D4002300370103274401DB
:104AE800938717006308F70C8357C40093F71700E0
:104AF800638607009307A000638EF40A8320C10130
:104B08000324810113850400032901018324410141
:104B18008329C10013010102678000009305040086
:104B280013050900EFE00FA6631E05080317C4006C
:104B380093F9F40F832704019316070193D606010E
:104B48001396260193F4F40FE34606F683264406EB
:104B5800372600003367C70037E6FFFF1306F6FF66
:104B6800B3F6C6002316E400032704002322D40664
:104B780083264401B307F740E3C6D7F4930504003E
:104B880013050900EFE04FE6631E05020327040042
:104B98008326840093071000130617009386F6FFF8
:104BA8002320C4002324D400230037010327440111
:104BB800E31CF7F29305040013050900EFE0CFE2C8
:104BC800E30E05F29304F0FF6FF05FF3EFE0DF8090
:104BD8006FF01FEB130101FE232C8100232A9100A3
:104BE80097970B00938787E8232E1100130405007D
:104BF8009384060083A7070E63820502E7800700F7
:104C08009307F0FF6306F5028320C10103248101A5
:104C1800832441011301010267800000130600008C
:104C280093054100E78007009307F0FFE31EF5FCBA
:104C380023A004009307A0082320F4008320C101C7
:104C480003248101832441011301010267800000CC
:104C5800638405029307F00F63E8C7002380C5004B
:104C680013051000678000009307A0082320F500B3
:104C78001305F0FF6780000013050000678000003F
:104C880093870500130101FF232481009305060083
:104C98001304050013860600138507002326110058
:104CA80097A7A80023A4074EEFB059699307F0FF10
:104CB800630AF5008320C100032481001301010168
:104CC8006780000097A7A8009387474C83A7070031
:104CD800E38207FE2320F4008320C100032481001F
:104CE8001301010167800000130101FF23248100E3
:104CF800130405001385050097A7A80023A80748F3
:104D080023261100EFB099579307F0FF630AF500C7
:104D18008320C10003248100130101016780000082
:104D280097A7A8009387874683A70700E38207FE13
:104D38002320F4008320C100032481001301010112
:104D480067800000130101FF23261100232481003E
:104D5800232291002320210163800502930405008A
:104D6800138405006306050083278503638C070AFF
:104D78008317C400639207028320C10003248100C3
:104D880013090000130509008324410003290100C9
:104D980013010101678000009305040013850400D6
:104DA800EFE0CF9E8327C40213090500638A07003A
:104DB8008325C40113850400E7800700634C0506BA
:104DC8008357C40093F70708639E070683250403E7
:104DD800638C0500930704046386F50013850400BB
:104DE800EFE01F8A23280402832544046388050012
:104DF80013850400EFE0DF8823220404EFE0CFDE10
:104E080023160400EFE08FDE8320C1000324810015
:104E1800130509008324410003290100130101013E
:104E280067800000EFE04FDB8317C400E38607F4D8
:104E38006FF09FF68357C4001309F0FF93F7070834
:104E4800E38607F88325040113850400EFE05F83F8
:104E58006FF0DFF793870500130101FF232481001A
:104E68009305060013040500138507002326110087
:104E780097A7A80023AC0730EFB099419307F0FF3C
:104E8800630AF5008320C100032481001301010196
:104E98006780000097A7A8009387472F83A707007C
:104EA800E38207FE2320F4008320C100032481004D
:104EB8001301010167800000130101FF2324810011
:104EC800130405001385050097A7A80023A0072C45
:104ED80023261100EFB0593E9307F0FF630AF5004F
:104EE8008320C100032481001301010167800000B1
:104EF80097A7A8009387872983A70700E38207FE5F
:104F08002320F4008320C100032481001301010140
:104F18006780000093870500130101FF23248100A7
:104F28009305060013040500138606001385070081
:104F38002326110097A7A80023AA0724EFB0593AFF
:104F48009307F0FF630AF5008320C1000324810062
:104F5800130101016780000097A7A8009387072322
:104F680083A70700E38207FE2320F4008320C10003
:104F78000324810013010101678000009387050065
:104F8800130101FF23248100930506001304050083
:104F980013860600138507002326110097A7A8008B
:104FA80023A6071EEFB019359307F0FF630AF50033
:104FB8008320C100032481001301010167800000E0
:104FC80097A7A8009387871C83A70700E38207FE9B
:104FD8002320F4008320C100032481001301010170
:104FE80067800000130101F52326110A2324810A92
:104FF8002322910A2320210B232E3109232C410936
:10500800232A5109232861092326710923248109A8
:10501800232291092320A109232EB107B707E0F81D
:1050280023A007003727C0F883200700B706010030
:1050380013031000B3E2D00023205700B703C0F8D1
:105048003734090123A063049304C41273905430C5
:10505800371500009305058073A0453037260000FA
:105068001308868073100830138901858349090065
:10507800638C0904138B8185834B0B00371C0A0151
:10508800832C0CCD37EDA801E3820B6213840186D3
:10509800034F040037F9A801E30A0F5C13878186E0
:1050A8009303090D1305090D2324E1042320770038
:1050B800EF60403E63040502371C0A0113050CCC5F
:1050C800EF10C01A6F000000376A000113054A2666
:1050D80023006900EFA09FFF6FF0DFF983248104AC
:1050E80093050000B71D0A0103A5040037190A013A
:1050F80037140A01EF5090500328450113060500A4
:1051080003A50400032A88009389C186930500003B
:10511800832AC80023A0C90023283105232E410172
:10512800EF50D05B03254500931C8A00939B8A00AF
:1051380083254500032B0500232A710303A5450099
:10514800032C4B0023249107232CA102232681033F
:10515800EF101956130D05002322A10603A50DCA49
:1051680093050C00B79B0C01EF00996A93050D009D
:10517800EF00D923EF105946130E3000B38ECA033F
:10518800B7170A01832F89CA032F44CA83A6C7CA3F
:1051980037930C0137960C01B7980C01B7950C01A1
:1051A800B78C0C012324A102B7E20B0137870C014D
:1051B800930303EBB7A40C01130806B913850887FA
:1051C800138B45B9138C4B87138D0C55232AD105A6
:1051D8002320E1052322F105232ED102138902C9D8
:1051E8009309075523267100138A04B3232C01055C
:1051F800232EA10423206107232681072326A10546
:105208000F500000B715000093070900B7A0000071
:1052180013870500938D071E832E0700938F970031
:105228009386C70013DE0E0113D48E002380C701B6
:105238002381D701A3808700032F07029384F700F7
:105248001388270193520F0113538F00A38157002E
:10525800A382E7012382670083230704138557018C
:105268009387870113D6030193D88300238877FE99
:105278002387C7FEA38717FF032B0706130707100B
:10528800935B0B01A38877FF135C8B00A3808F01CE
:1052980023816F01832C07F813DD0C01238AA7FFF4
:1052A80093DE8C00A380D60123819601032407FA9C
:1052B800135E0401A38BC7FF135F8400A380E4017E
:1052C80023818400832F07FC93D60F01238DD7FEFB
:1052D80093D28F00A30058002301F801032307FE8F
:1052E80093530301A38E77FE93548300A300950084
:1052F80023016500E392FDF2B385150093870D0045
:10530800E398B9F18320C10163521018832D010578
:1053180003A60D00635C5017032FC101832F4105BD
:10532800130E000013030000930E90059308F00974
:10533800130B030063D46E00130B900513182B0096
:105348003305680193FB1A00131C550093070E00E0
:105358009305000063840B06930C000063D4980146
:10536800930CF009338D8C0113171D003304A7012A
:10537800B30289008323060183C602009305100047
:10538800B384C301938706F82380F40083200601C1
:1053980083CD120093073E00338BC00113880DF8AC
:1053A800A3000B01832B060103C52200B38CCB019C
:1053B800130D05F82381AC016384BA0C138415001E
:1053C8001387050063D4B8001307F009B3058701F4
:1053D80093921500B383B200B306790083240601C3
:1053E80083C00600938D3700338BF400138800F8D0
:1053F80023000B01832B060103C5160013070400C5
:10540800B38CFB00130D05F8A380AC0183250601BE
:1054180083C22600B387F500938302F823817700BF
:1054280063D488001307F009B30687019394160024
:10543800B380D400330B190003280601834B0B00FB
:10544800930514003304B80113850BF82300A40056
:10545800832C0601034D1B0093873D00B383BC01D9
:1054680093020DF8A38053008326060103472B00FF
:10547800B38DB601930407F823819D00E390BAF435
:1054880013031300330EFE01E3146FEA37CCB0F8B0
:105498008320CCFF03278CFF032BCCFFE39A60FF0C
:1054A80003288104B7CBB0F803250800EF60005249
:1054B800630A0500B7150A01138505C1EF10C0047A
:1054C8006FF01FD403A4CBFF03A78BFF03A5CBFF6B
:1054D800E31AA4FE832C81049305000003A50C00A5
:1054E800EF50D01F032D450183278D00E35EF01296
:1054F800032C050193931700B382F3009306ACFFC6
:1055080013971200B38DE600232851032322B10319
:10551800930B0000832A4106032BC1026F00000190
:10552800930E800C130C6C00E388DB1183044C0091
:105538000326810213942B00232C910063CAC418FC
:1055480003050C00371D0A01EF10991693850A0010
:10555800EF10494093050B00EF10890783250104DC
:10556800EF100907930D050003051C00EF105914EF
:1055780093850A00EF10093E93050B00EF104905CB
:1055880083254DCAEF10C904930C050003052C00B0
:10559800EF10191293850A00EF10C93B93050B0011
:1055A800EF10090383254DCAEF10890283254104B2
:1055B800EF1009029304050003250103EF10590FAA
:1055C800130D050003053C00EF10990E93850A00A2
:1055D800EF10493893050B00EF00997FB7180A01BF
:1055E80083A548CAEF00D97EB71E0A0183A58ECAD3
:1055F800EF00197E232AA1000325C101EF10590BE2
:10560800832FC100139F4B00938504003383EF0160
:105618002328A10013850D0023206102EF10893390
:1056280093050D00EF00D97AEF10097B03280102DA
:105638008327C100130E14008325410193132E0004
:105648002320A800B382770013850C002320510281
:10565800EF10493083250101EF009977EF10C977E2
:1056680083260102930524001397250093850D00D6
:10567800832DC10023A0A60013850400B384ED0088
:10568800EF00C95293050D00EF009974EF10C9742B
:1056980023A0A40003254101130434001316240099
:1056A80093850C00B38CCD00EF0049508325010190
:1056B800139D1B00938B1B00EF009971EF10C971AC
:1056C80023A0AC0003258101B308AA012390A800F8
:1056D80083204102E39680E5938D0B00832A010322
:1056E800938FFBFF638A0B7613FF7D00832481056C
:1056F8000324C1059307000063040F0C1303100073
:1057080063046F0A130E20006306CF0913083000E4
:1057180063080F0793034000630A7F049302500055
:10572800630C5F0293056000630EBF000327C10589
:1057380023A004009307100023200700938444004B
:105748001304470023A0F4002320040093871700C4
:10575800938444001304440023A0F400232004008D
:1057680093871700938444001304440023A0F40093
:1057780023200400938717009384440013044400F3
:1057880023A0F40023200400938717009384440087
:105798001304440023A0F400232004009387170077
:1057A800938444001304440023A0F400232004003D
:1057B8009387170093844400130444006388FD060C
:1057C800938C1700138D270093883700938B47001D
:1057D80013855700938067001386770023A0F40091
:1057E8002320040023A294012322040023A4A4015B
:1057F8002324040023A614012326040023A87401EB
:105808002328040023AAA400232A040023AC14009C
:10581800232C040023AEC400232E040093878700A2
:105828009384040213040402E39CFDF86352F063BA
:10583800032C810583270106139B2D00B30E6C01F1
:10584800130F0000130F1F0013870700635EBF17B5
:105858003383FE40130EC3FF13582E009303180022
:1058680093F233006384020A930510006386B2063C
:1058780093062000638AD20283A4070003A4C7FF0B
:10588800939C140013171400330D9A01B308EA000F
:10589800835B0D0003D508006376750123AE97FE80
:1058A80023A08700138747008320070003ACC7FFA6
:1058B8001396100013131C00330ECA0033086A0035
:1058C80083530E008352080063F6720023AE17FE5E
:1058D80023208701130747008324070083A5C7FFF8
:1058E8001394140093961500B30C8A00330DDA0054
:1058F80083D80C00835B0D0063F61B0123AE97FE73
:105908002320B700130747006380EE0C0325070028
:1059180083A0C7FF130C470013131500139610003C
:10592800330E6A003308CA0083530E0083520800FE
:1059380063F6720023AEA7FE2320170083244700D6
:1059480003A4C7FF9395140093161400B30CBA0070
:10595800330DDA0083D80C00835B0D0063F61B015E
:1059680023AE97FE2322870003254C0083A0C7FFA0
:105978001307CC001313150013961000330E6A009A
:105988003308CA0083530E008352080063F672007E
:1059980023AEA7FE23221C0083248C0003A4C7FF88
:1059A8009395140093161400B30CBA00330DDA0063
:1059B80083D80C00835B0D0063F61B0123AE97FEB2
:1059C80023248C00E394EEF493874700E31CFFE75D
:1059D800638C0D44832FC1050323C106832E010662
:1059E800338F6F01130C0000130D0000930F400656
:1059F800930C2003930010006F0000016352BC2930
:105A080013034300938E4E00032BC3FF130C1C009B
:105A1800E3160BFE0326C10403A5CEFF13172D00C2
:105A28008323C100330EE600131845002320AE007F
:105A3800130D1D00B38603016358BC41B3026F40C8
:105A48009384C2FF13D424009375140013850E00A9
:105A580093070300639E050A832803006394080ADA
:105A680083AB0E000327C10003AB860013954B00E0
:105A7800330EA70003268E0083A7060083230E009B
:105A880013080B006354660113080600938207008D
:105A980063D4770093820300B30558406354B0067B
:105AA80083ABC6000324CE0083A84600032E4E0015
:105AB80013850B00635474011305040093840800D4
:105AC80063D4C80193040E0033079540635CE00279
