:020000040100F9
:10000000971100009381010923A00182732540F11B
:10001000630E050203A50182E30E05FE0F00200218
:100020000F10000083A7C181130500009305000095
:10003000130600006780070023AEA1800F001001A7
:100040001305100023A0A182678000001381010323
:10005000170500001305057A97050000938585793B
:100060001386C18163FCC5008322050023A05500CF
:100070001305450093854500E3E8C5FE1385C1815E
:10008000938581826378B500232005001305450020
:10009000E36CB5FEEF000001EF00004F6F000000C1
:0400A0006780000075
:1000A400130101FF232481002320210117040000F0
:1000B4001304047417090000130989733309894070
:1000C400232611002322910013592940630E0900AD
:1000D4009304000083270400938414001304440051
:1000E400E7800700E31899FE170400001304447026
:1000F400170900001309C96F3309894013592940AE
:10010400630E090093040000832704009384140001
:1001140013044400E7800700E31899FE8320C1001C
:1001240003248100832441000329010013010101F8
:100134006780000003254500135505011375F50F6D
:1001440067800000130101FF23261100232481008E
:100154002322910013040500938405001305040071
:10016400EFF05FFDE30C05FE232094008320C10023
:1001740003248100832441001301010167800000EE
:1001840083A7C5002324F50083A705009387F7FF01
:1001940003A7450013178700B3E7E70003A785000B
:1001A40013170701B3E7E7002326F5006780000073
:1001B400B7470F0093870724B3D5F502B7C70000EC
:1001C400938787FF3306F600832706003385A5024D
:1001D4003305F50083270600B307F540E3DC07FE8B
:1001E40067800000130101FF232611009305050019
:1001F400370501F8EFF01FF58320C1001301010159
:1002040067800000130101FF2326110023248100CD
:1002140013040500034504006308050013041400D7
:10022400EFF05FFC6FF01FFF8320C1000324810007
:100234001301010167800000130101FF232611004F
:100244002324810023229100930405001304C00198
:100254006F004002B3D7840013F7F700B70700011B
:100264009387077FB387E70003C50700EFF09FF785
:100274001304C4FFE35004FE8320C100032481005F
:10028400832441001301010167800000130101FF71
:1002940023261100232481002322910093040500C6
:1002A4001304C0016F004002B3D7840013F7F700B2
:1002B400B717000193874780B387E70003C507009A
:1002C400EFF05FF21304C4FFE35004FE8320C10087
:1002D400032481008324410013010101678000008D
:1002E400130101FF232611001375F50FEFF09FEFA3
:1002F4008320C1001301010167800000130101FF85
:1003040023261100EFF01FF08320C1001301010127
:1003140067800000130101FD2326110223248102BA
:10032400232291029304050063460500130401008F
:100334006F00C0021305D002EFF09FFAB30490409F
:100344006FF0DFFE1307A000B3E7E402938707030F
:100354002300F400B3C4E40213041400E39404FE81
:1003640093070100E300F4FE6F0000011304F4FF9F
:1003740003450400EFF0DFF693070100E318F4FEF1
:100384008320C10203248102832441021301010357
:1003940067800000130101FF2326110013070000EA
:1003A4009307700063C0E70293162700930700FFCA
:1003B400B397D700B377F5006386070013071700D8
:1003C4006FF01FFEEFF09FEC8320C10013010101C9
:1003D40067800000130101FF2326110013070000AA
:1003E4009307700063C0E70293162700930700FF8A
:1003F400B397D700B377F500638607001307170098
:100404006FF01FFEEFF05FE38320C10013010101D1
:1004140067800000130101FE232E11009307800062
:100424002320F10023220100232401009307B006B6
:100434002326F10093050100370501F8EFF05FD49E
:100444008320C1011301010267800000130101FC34
:10045400232E1100232C8100232A910093040500EC
:100464002322B1022324C1022326D1022328E1023C
:10047400232AF102232C0103232E110393074102A3
:100484002326F100130400006F00C0018327C1007C
:10049400138747002326E10003A50700EFF05FE47C
:1004A40013041400B387840003C507006302050C1A
:1004B400930750026306F506EFF09FE26FF05FFECC
:1004C4008327C100138747002326E10003A5070003
:1004D400EFF0DFE26FF0DFFC8327C10013874700F2
:1004E4002326E10003A50700EFF0DFE26FF05FFBD6
:1004F4008327C100138747002326E10003A50700D3
:10050400EFF05FED6FF0DFF98327C1001387470039
:100514002326E10003A50700EFF0DFE76FF05FF8A3
:1005240013041400B387840083C70700E38A07F623
:1005340013073006E38CE7F413073007E382E7F888
:1005440013074006E38AE7F813078005E382E7FA16
:1005540013078007E38AE7FA13076006E392E7FCD0
:100564003715000113058581EFF05FD96FF05FF354
:100574008320C10103248101832441011301010467
:1005840067800000130101FF23261100232481004A
:1005940023229100EFF01FE837150001130545866B
:1005A400EFF0DFEA3715000113050588EFF01FEAC5
:1005B4001306100093050000375501F8EF000010F2
:1005C4001306100093051000375501F8EF00000FD3
:1005D4001306100093052000375501F8EF00000EB4
:1005E4001306100093053000375501F8EF00000D95
:1005F4001306100093054000375501F8EF00000C76
:100604001306100093055000375501F8EF00000B56
:100614001306000093050000375501F8EF000010A1
:100624001306000093051000375501F8EF00000F82
:100634001306000093052000375501F8EF00000E63
:100644001306000093053000375501F8EF00000D44
:100654001306000093054000375501F8EF00000C25
:100664001306000093055000375501F8EF00000B06
:100674001306100093050000375501F8EF00000A37
:100684003706B0F8B7E4F5059385041037A40700DE
:1006940013050412EFF0DFB1130600009305000008
:1006A400375501F8EF0080073706B0F8938504103A
:1006B40013050412EFF0DFAF6FF09FFB93071000F8
:1006C400B395B7006304F60263080600930720009D
:1006D4006306F602678000008327850093C5F5FF53
:1006E400B3F5F5002324B500678000008327850057
:1006F400B3E5F5002324B5006780000003278500D7
:1007040093C7F5FFB3F7E7002324F50083274500DB
:10071400B3E5F5002322B5006780000003274500F8
:1007240093071000B395B700630AF60093C5F5FF6D
:10073400B3F5E5002322B50067800000B3E5E500CA
:100744002322B50067800000032505003355B5005A
:10075400137515006780000093071000B395B70068
:1007640093072000630CF60263FEC7009307300072
:10077400630AF602930740006310F6022326B502CB
:1007840067800000930710006316F6002320B5026B
:100794006780000067800000678000002322B502A4
:1007A400678000002324B5026780000093071000CF
:1007B400B395B7008327050093C5F5FFB3F7F5009C
:1007C4002320F50283270500B3F7F5002322F50261
:1007D40083270500B3F7F5002324F50283270500DA
:0C07E400B3F5F5002326B5026780000085
:1007F0003031323334353637383941424344454657
:100800000000000030313233343536373839616218
:1008100063646566000000003C466C6F6174696E3D
:100820006720706F696E74207072696E74696E678C
:10083000206E6F7420656E61626C652E20506C6551
:1008400061736520456E61626C6520697420617416
:10085000206273702E682066697273742E2E2E3E8D
:10086000000000002A2A2A5374617274696E67209E
:100870004750494F2044656D6F2A2A2A200D0A00EF
:10088000436F6E666967757265204750494F7320E4
:10089000746F20626C696E6B202E2E200D0A000092
:0A08A000000000000000000000004E
:0400000501000000F6
:00000001FF
