:10100000972100009381011F23A60186732540F1DB
:10101000630E050203A5C186E30E05FE0F00200244
:101020000F10000083A781861305000093050000C0
:10103000130600006780070023A4A1860F0010019B
:101040001305100023A6A186678000001721200049
:10105000130141B2172500001305458A97250000AA
:101060009385C5891386C18163FCC5008322050071
:1010700023A055001305450093854500E3E8C5FE10
:101080001385C181938501986378B50023200500FD
:1010900013054500E36CB5FEEF000001EF00D02F13
:0810A0006F00000067800000F2
:1010A800130101FF232481002320210117240000BC
:1010B80013044484172900001309C983330989409C
:1010C800232611002322910013592940630E090099
:1010D800930400008327040093841400130444003D
:1010E800E7800700E31899FE1724000013048480A2
:1010F8001729000013090980330989401359294029
:10110800630E0900930400008327040093841400ED
:1011180013044400E7800700E31899FE8320C10008
:1011280003248100832441000329010013010101E4
:1011380067800000B7470F0093870724B3D5F502EF
:10114800B7C70000938787FF3306F600832706009A
:101158003385A5023305F50083270600B307F5405C
:10116800E3DC07FE67800000930700001307000018
:101178009306900B63E0F602B306F50083C64601BA
:101188003387E6001377F70F9387170093F7F70F66
:101198006FF01FFE3307E0402306E50C6780000070
:1011A800130101FF232611002316D5002317E5009C
:1011B80023280500A307050C2307050C9305000049
:1011C80013051000EF10803F378501001305056AED
:1011D800EF1080468320C1001301010167800000E1
:1011E8002328B50067800000130101FF23261100A2
:1011F8002324810013040500EFF01FF703450400C2
:10120800EF10004813050008EF10C04B1305F00F4E
:10121800EF10404B0345C40CEF10C04AEF10405488
:1012280003450400EF10C04513051008EF1080496E
:1012380013050000EF10004913051000EF10804857
:10124800EF1000528320C100032481001301010123
:1012580067800000130101FF23261100A30AB500CF
:1012680093D58500230BB500A30BC5001356860044
:10127800230CC500EFF05FF78320C10013010101C3
:1012880067800000130101FF232611002324810039
:101298002322910023202101930405003706B0F88A
:1012A80037E4F5059305041037250000130505718B
:1012B800EFF05FE83706B0F8930504101305803E99
:1012C800EFF05FE73706B0F8930504103715000014
:1012D80013058538EFF01FE63706B0F893050410BC
:1012E80037C9000013050935EFF0DFE43706B0F819
:1012F8009305041013050935EFF0DFE303C5040077
:10130800EF10003813050008EF10C03B13057004F8
:10131800EF10403BEF10C0449305A00B03C5040039
:10132800EF10C045130400009307900B63EE87008D
:10133800EF10404FB3878400238AA70013041400DA
:101348001374F40F6FF05FFE03D6E40083D5C40076
:1013580013850400EFF01FF08320C10003248100EF
:101368008324410003290100130101016780000063
:10137800130101FF232611002300B500EFF09FF0B1
:101388008320C1001301010167800000130101FFE0
:1013980083C705002300F10083C7150003C7250094
:1013A80013178700B387E7009397070193D70701BF
:1013B8002311F10003C7350083C6450093968600C4
:1013C8003307D70013170701135707012312E1004A
:1013D80083C6550003C6650013168600B386C6008B
:1013E8002313D1008326050113061000638AC6065D
:1013F800638A060413063000638EC60603270100BD
:10140800832741001315070113550501B70501008E
:101418009385F5FF13570701131707013375B500B7
:101428009396070193D6060193D70701939707016F
:10143800B3F5B6003365E500B3E5F5001301010126
:10144800678000008356C500B387F6402311F1007A
:101458008357E5003387E7402312E1006FF01FFA56
:101468008356C5003387E6402311E1002312F100BB
:101478006FF0DFF82311E1000357E500B307F740E9
:101488002312F1006FF09FF7130101FE232E1100C4
:10149800232C8100232A910023282101930405008D
:1014A80003450500EF10C01D13051008EF1080213B
:1014B8001305E004EF100021EF10802A93051000B7
:1014C80003C50400EF10802BEF10C0351375F50F1E
:1014D800135775009357650093F717002388F40C8A
:1014E8001375F5002387A40C3335A000A387A40C3B
:1014F800630407006312050E03C50400EF104018CB
:1015080013051008EF10001C1305E004EF10801BF2
:1015180013050000EF10001BEF1080248320C10189
:1015280003248101832441010329010113010102DC
:10153800678000001304A901131434003384840065
:101548009305810013850400EFF05FE42311A400E4
:10155800135505012312A4002313B40093D50501E4
:101568002314B400130919001379F90F83C7E40C85
:10157800E374F9F813143900B787FFFF9387F7145A
:101588003304F400131404011354040103C50400C4
:10159800EF10000F13558400EF10C0121375F40FED
:1015A800EF104012EF10C01B9305700003C5040034
:1015B800EF10C01C1304000093076000E3CC87F60B
:1015C800EF10402693070101B3878700238CA7FEFD
:1015D800130414006FF05FFE130900006FF01FF989
:1015E80003254500135505011375F50F67800000A5
:1015F800130101FF232611002324810023229100D7
:10160800130405009384050013050400EFF05FFD43
:10161800E30C05FE232094008320C10003248100ED
:10162800832441001301010167800000B7470F00C0
:1016380093870724B3D5F502B7C70000938787FFC0
:101648003306F600832706003385A5023305F50027
:1016580083270600B307F540E3DC07FE6780000038
:10166800130101FF2326110093050500370501F832
:10167800EFF01FF88320C10013010101678000000B
:10168800130101FF23261100232481001304050000
:10169800034504006308050013041400EFF05FFC21
:1016A8006FF01FFF8320C100032481001301010193
:1016B80067800000130101FF232611002324810005
:1016C80023229100930405001304C0016F00400217
:1016D800B3D7840013F7F700B73700009387878FD5
:1016E800B387E70003C50700EFF09FF71304C4FFB3
:1016F800E35004FE8320C1000324810083244100B9
:101708001301010167800000130101FF2326110066
:101718002324810023229100930405001304C001AF
:101728006F004002B3D7840013F7F700B737000003
:101738009387C790B387E70003C50700EFF05FF210
:101748001304C4FFE35004FE8320C1000324810076
:10175800832441001301010167800000130101FF88
:10176800232611001375F50FEFF09FEF8320C100BA
:101778001301010167800000130101FF23261100F6
:10178800EFF01FF08320C100130101016780000002
:10179800130101FD23261102232481022322910231
:1017A8009304050063460500130401006F00C0029E
:1017B8001305D002EFF09FFAB30490406FF0DFFEFC
:1017C8001307A000B3E7E402938707032300F4009C
:1017D800B3C4E40213041400E39404FE9307010065
:1017E800E300F4FE6F0000011304F4FF0345040056
:1017F800EFF0DFF693070100E318F4FE8320C1023F
:10180800032481028324410213010103678000003D
:10181800130101FF2326110013070000930770002E
:1018280063C0E70293162700930700FFB397D7001A
:10183800B377F50063860700130717006FF01FFEE4
:10184800EFF09FEC8320C1001301010167800000C5
:10185800130101FF232611001307000093077000EE
:1018680063C0E70293162700930700FFB397D700DA
:10187800B377F50063860700130717006FF01FFEA4
:10188800EFF05FE38320C1001301010167800000CE
:1018980093952500B385A50023A0C50067800000A7
:1018A800939575003385A5009355560093952500AB
:1018B8003305B500B72500003305B50093071000C0
:1018C800B397C700638A060003260500B3E7C7007D
:1018D8002320F500678000000326050093C7F7FF63
:1018E800B3F7C7002320F500678000009395C50073
:1018F800B385A50037052000B385A50023A0C50042
:10190800678000009395C500B385A50037052000C2
:1019180013054500B385A50003A5050067800000F1
:101928009395C500B385A50037052000130545002C
:10193800B385A50023A0C50067800000130101FC42
:10194800232E1100232C8100232A910093040500E3
:101958002322B1022324C1022326D1022328E10233
:10196800232AF102232C0103232E1103930741029A
:101978002326F100130400006F00C0018327C10073
:10198800138747002326E10003A50700EFF01FDDBA
:1019980013041400B387840003C507006302050C11
:1019A800930750026306F506EFF05FDB6FF05FFE0A
:1019B8008327C100138747002326E10003A50700FA
:1019C800EFF09FDB6FF0DFFC8327C1001387470030
:1019D8002326E10003A50700EFF09FDB6FF05FFB14
:1019E8008327C100138747002326E10003A50700CA
:1019F800EFF01FE66FF0DFF98327C1001387470078
:101A08002326E10003A50700EFF09FE06FF05FF8E1
:101A180013041400B387840083C70700E38A07F61A
:101A280013073006E38CE7F413073007E382E7F87F
:101A380013074006E38AE7F813078005E382E7FA0D
:101A480013078007E38AE7FA13076006E392E7FCC7
:101A58003735000013050592EFF01FD26FF05FF3E2
:101A68008320C1010324810183244101130101045E
:101A780067800000130101FF2326110013060000F0
:101A8800930500003705C0F8EFF05FE693061000F5
:101A98001306C000930500003705C0F8EFF05FE0BB
:101AA800130610009305C0003705C0F8EFF05FDE9D
:101AB800B73700009387878673905730B7170000B1
:101AC8009387078073A04730F3270030372700003B
:101AD80013078780B3E7E700739007308320C100BE
:101AE8001301010167800000130101FF2326110083
:101AF800373500001305C596EFF05FE46F0000006E
:101B0800130101FF232611002324810093050000FF
:101B18003705C0F8EFF01FDF13040500630805025E
:101B28009307C0006312F4023735000013050598C7
:101B3800EFF0DFE013060400930500003705C0F856
:101B4800EFF01FDE6FF09FFCEFF01FFA8320C1005B
:101B5800032481001301010167800000130101FFC4
:101B680023261100F327203463D2070213F7F70066
:101B78009307B000631AF700EFF09FF88320C100C5
:101B88001301010167800000EFF01FF6EFF0DFF5A9
:101B9800130101FF23261100232481002322910031
:101BA800373500001305C599EFF05FD9130610000B
:101BB80093050000375501F8EF00000F13061000D9
:101BC80093051000375501F8EF00000E13061000BA
:101BD80093052000375501F8EF00000D130610009B
:101BE80093053000375501F8EF00000C130600008C
:101BF80093050000375501F8EF00001113060000A7
:101C080093051000375501F8EF0000101306000087
:101C180093052000375501F8EF00000F1306000068
:101C280093053000375501F8EF00000E3706B0F87D
:101C3800B7E4F5059385041037A4070013050412CB
:101C4800EFF0DF9E1306000093050000375501F8FA
:101C5800EF00800B1306000093051000375501F8BC
:101C6800EF00800A1306000093052000375501F89D
:101C7800EF0080091306000093053000375501F87E
:101C8800EF0080083706B0F8938504101305041296
:101C9800EFF0DF998320C1000324810083244100F1
:101CA800130101016780000093071000B395B70086
:101CB8006304F60263080600930720006306F60231
:101CC800678000008327850093C5F5FFB3F5F5000D
:101CD8002324B5006780000083278500B3E5F5005D
:101CE8002324B500678000000327850093C7F5FF0C
:101CF800B3F7E7002324F50083274500B3E5F50093
:101D08002322B500678000000327450093071000D1
:101D1800B395B700630AF60093C5F5FFB3F5E50080
:101D28002322B50067800000B3E5E5002322B50053
:101D380067800000032505003355B50013751500AD
:101D48006780000093071000B395B7009307200041
:101D5800630CF60263FEC70093073000630AF602BD
:101D6800930740006310F6022326B502678000003F
:101D7800930710006316F6002320B5026780000061
:101D880067800000678000002322B502678000009A
:101D98002324B5026780000093071000B395B700AD
:101DA8008327050093C5F5FFB3F7F5002320F50257
:101DB80083270500B3F7F5002322F50283270500E2
:101DC800B3F7F5002324F50283270500B3F5F500E2
:101DD8002326B50267800000032545001355050139
:101DE8001375F50F67800000130101FF232611000A
:101DF8002324810023229100130405009384050005
:101E080013050400EFF05FFDE30C05FE23209400AA
:101E18008320C100032481008324410013010101B0
:101E280067800000B7470F0093870724B3D5F502F2
:101E3800B7C70000938787FF3306F600832706009D
:101E48003385A5023305F50083270600B307F5405F
:101E5800E3DC07FE67800000130101FF2326110061
:101E680093050500370501F8EFF01FF88320C1003E
:101E78001301010167800000130101FF23261100EF
:101E880023248100130405000345040063080500AA
:101E980013041400EFF05FFC6FF01FFF8320C100F4
:101EA800032481001301010167800000130101FF71
:101EB8002326110023248100232291009304050086
:101EC8001304C0016F004002B3D7840013F7F70072
:101ED800B73700009387878FB387E70003C50700EC
:101EE800EFF09FF71304C4FFE35004FE8320C10002
:101EF800032481008324410013010101678000004D
:101F0800130101FF232611002324810023229100BD
:101F1800930405001304C0016F004002B3D7840086
:101F280013F7F700B73700009387C790B387E70028
:101F380003C50700EFF05FF21304C4FFE35004FE8B
:101F48008320C1000324810083244100130101017F
:101F580067800000130101FF232611001375F50F98
:101F6800EFF09FEF8320C10013010101678000009B
:101F7800130101FF23261100EFF01FF08320C10099
:101F88001301010167800000130101FD23261102DE
:101F9800232481022322910293040500634605004D
:101FA800130401006F00C0021305D002EFF09FFA7E
:101FB800B30490406FF0DFFE1307A000B3E7E4021C
:101FC800938707032300F400B3C4E4021304140046
:101FD800E39404FE93070100E300F4FE6F000001A0
:101FE8001304F4FF03450400EFF0DFF69307010044
:101FF800E318F4FE8320C1020324810283244102F2
:102008001301010367800000130101FF232611005B
:10201800130700009307700063C0E70293162700B8
:10202800930700FFB397D700B377F50063860700DF
:10203800130717006FF01FFEEFF09FEC8320C1001D
:102048001301010167800000130101FF232611001D
:10205800130700009307700063C0E7029316270078
:10206800930700FFB397D700B377F500638607009F
:10207800130717006FF01FFEEFF05FE38320C10026
:102088001301010167800000130101FF23261100DD
:1020980023248100232291001384C1961306100083
:1020A8008325440003250400EFF01FC01306000039
:1020B8008325440003250400EFF01FC53706B0F858
:1020C800B7E4F5059385041003250401EFF09FD5C7
:1020D800130610008325C40003258400EFF0DFC237
:1020E8003706B0F89385041003250401EFF09FD359
:1020F800130610008325440003250400EFF0DFC019
:102108003706B0F89385041003250401EFF09FD13A
:102118008320C100032481008324410013010101AD
:1021280067800000130101FF23261100232481008A
:10213800232291001384C1961306100083254400BE
:1021480003250400EFF05FB6130610008325440052
:1021580003250400EFF05FBB130610008325C400BD
:1021680003258400EFF05FBA3706B0F8B7E4F50549
:102178009385041003250401EFF0DFCA130600005D
:102188008325440003250400EFF01FB83706B0F894
:102198009385041003250401EFF0DFC8130600003F
:1021A8008325C40003258400EFF01FB68320C100F7
:1021B800032481008324410013010101678000008A
:1021C800130101FE232E1100232C8100232A9100E4
:1021D8002328210123263101930405009387C19602
:1021E8001306100083A5470003A50700EFF0DFAB37
:1021F800130900006F00C0069387C19613061000EC
:1022080083A5470003A50700EFF01FB01384C1960C
:102218003706B0F8B7E9F5059385091003250401D9
:10222800EFF05FC0130610008325C4000325840067
:10223800EFF09FAD3706B0F8938509100325040128
:10224800EFF05FBE130600008325C4000325840059
:10225800EFF09FAB9394140093F4F40F1309190053
:102268009307700063C427039397840193D787412A
:10227800E3C407F89387C1961306000083A54700B7
:1022880003A50700EFF05FA86FF05FF81384C1960D
:10229800130600008325440003250400EFF0DFA0A7
:1022A8003706B0F8B7E4F505938504100325040153
:1022B800EFF05FB7130610008325C40003258400E0
:1022C800EFF09FA48325440003250400EFF09FA6A8
:1022D800133915003706B0F8938504100325040157
:1022E800EFF05FB4130600008325C40003258400C3
:1022F800EFF09FA113061000832544000325040076
:10230800EFF09F9A130509008320C101032481017E
:1023180083244101032901018329C100130101021A
:1023280067800000130101FE232E1100232C810079
:10233800232A910023282101232631012324410146
:10234800130A05009387C1961306000083A547006A
:1023580003A50700EFF05F95130900009304000040
:102368006F00C0061384C196130610008325C400AD
:1023780003258400EFF05F993706B0F8B7E9F50553
:102388009385091003250401EFF0DFA98325440094
:1023980003250400EFF01F9A3335A000939414002E
:1023A800B3E4A40093F4F40F130600008325C400DB
:1023B80003258400EFF05F953706B0F89385091080
:1023C80003250401EFF01FA61309190093077000F5
:1023D800E3DA27F99387C1961306100083A547000F
:1023E80003A50700EFF05F8C63020A089387C19684
:1023F8001306000083A5470003A50700EFF0DF9050
:102408001384C1963706B0F837E9F5059305091026
:1024180003250401EFF01FA1130610008325C40053
:1024280003258400EFF05F8E3706B0F89305091096
:1024380003250401EFF01F9F130600008325C40045
:1024480003258400EFF05F8C138504008320C1010D
:102458000324810183244101032901018329C10047
:10246800032A810013010102678000009387C19647
:102478001306100083A5470003A50700EFF0DF88C7
:102488006FF01FF8130101FC232E1100232C81008B
:10249800232A9100930405002322B1022324C102B8
:1024A8002326D1022328E102232AF102232C010347
:1024B800232E1103930741022326F1001304000081
:1024C8006F00C0018327C100138747002326E1005E
:1024D80003A50700EFF01FA813041400B3878400B6
:1024E80003C507006302050C930750026306F5064F
:1024F800EFF05FA66FF05FFE8327C10013874700E8
:102508002326E10003A50700EFF09FA66FF0DFFC8C
:102518008327C100138747002326E10003A507008E
:10252800EFF09FA66FF05FFB8327C100138747007A
:102538002326E10003A50700EFF01FB16FF0DFF9D4
:102548008327C100138747002326E10003A507005E
:10255800EFF09FAB6FF05FF813041400B3878400AB
:1025680083C70700E38A07F613073006E38CE7F40E
:1025780013073007E382E7F813074006E38AE7F812
:1025880013078005E382E7FA13078007E38AE7FA6F
:1025980013076006E392E7FC373500001305059240
:1025A800EFF01F9D6FF05FF38320C10103248101C9
:1025B800832441011301010467800000130101FF16
:1025C80023261100232481001384C196B76701F8DC
:1025D8002320F4002324F4002322A4002326B4009B
:1025E800930750002328F4001306100093050500F4
:1025F800376501F8EFF04FEB130610008325C40090
:1026080003258400EFF04FEA1306100083254400E9
:1026180003250400EFF04FEF130610008325C400D4
:1026280003258400EFF04FEE8320C10003248100CE
:102638001301010167800000B72706009387F7A7F9
:1026480063FAA7009387C1961307100023A8E70031
:1026580067800000B78701009387F76963FAA700CE
:102668009387C1961307500023A8E70067800000EE
:102678009387C1961307A00023A8E700678000008E
:10268800130101FF232611002324810013151500CF
:102698002382A182EFF01FA903C54182EFF05FB248
:1026A800630A05008320C10003248100130101018E
:1026B80067800000373500001305859BEFF09FDC2D
:1026C8006FF05FFE130101FF232611002324810010
:1026D800EFF01FAF630E050013041000130504008C
:1026E8008320C100032481001301010167800000D9
:1026F80013040500373500001305459DEFF09FD8FA
:102708006FF0DFFD130101FF232611002324810050
:102718002322910023202101130905009384050039
:102728001304000063709402B307890003C507000F
:10273800EFF01FA963080500130414001374F40FC5
:102748006FF05FFE130504008320C100032481009D
:10275800832441000329010013010101678000005F
:10276800130101FF23261100EFF01F92130500004B
:102778008320C1001301010167800000130101FFDC
:10278800232611002324810023229100130405002D
:10279800938405009307000463F4B70093040004CE
:1027A800EFF05F9813151400136515001375F50FF6
:1027B800EFF01FA113040500630C05022383918227
:1027C800A382018213040000637E94021385F4FF40
:1027D8003325A400EFF01FB593878182B387870064
:1027E8002380A700130414001374F40F6FF0DFFDA7
:1027F800373500001305459EEFF0DFC8EFF0DF889E
:102808006F00C000EFF05F8803C461821305040005
:102818008320C100032481008324410013010101A6
:102828006780000003C7518283C76182637EF70017
:1028380093061700A382D18293878182B387E7002A
:1028480003C50700678000001305F0FF67800000DC
:1028580003C5518283C761823335F5006780000064
:10286800130101FC232011002322510023246100BD
:10287800232671002328A100232AB100232CC1009C
:10288800232ED1002320E1022322F1022324010375
:10289800232611032328C103232AD103232CE10370
:1028A800232EF103EFF08FAB832001008322410038
:1028B800032381008323C1000325010183254101EE
:1028C800032681018326C1010327010283274102D0
:1028D800032881028328C102032E0103832E4103AA
:1028E800032F8103832FC1031301010473002030D8
:1028F800303132333435363738394142434445462E
:1029080000000000303132333435363738396162EF
:1029180063646566000000003C466C6F6174696E14
:102928006720706F696E74207072696E74696E6763
:10293800206E6F7420656E61626C652E20506C6528
:1029480061736520456E61626C65206974206174ED
:10295800206273702E682066697273742E2E2E3E64
:10296800000000000D0A2A2A2A2043524153482019
:102978002A2A2A0D0A0000006770696F2030206932
:102988006E7465727275707420726F7574696E6595
:10299800200D0A00475439313120546F756368207F
:1029A80044726976657220546573740D0A000000DC
:1029B800493243204E41434B206174206164647264
:1029C8002077726974650D0A0000000049324320BF
:1029D8004E41434B20646174610D0A004932432023
:1029E8004E41434B206174206164647220726561BA
:1029F800640D0A0000000000000000000000000054
:022A08000000CC
:0400000300001000E9
:00000001FF
