:020000021000EC
:1000000097F111009381810B1781CE00130181724A
:1000100017450D001305852497450D00938505248C
:100020001386418A63FCC5008322050023A0550086
:100030001305450093854500E3E8C5FE1385418A15
:100040009785AE009385856E6378B5002320050003
:1000500013054500E36CB5FEEF00003EEF005113C1
:080060006F0000006780000042
:10006800B367B50093F737006392070803A7050045
:10007800B7867F7F9386F6F7B377D700B387D70025
:10008800B3E7E700B3E7D7001306F0FF639EC706A0
:10009800130605001308F0FF130646009385450074
:1000A800232EE6FE03A70500B377D700B387D70052
:1000B800B3E7E700B3E7D700E38007FF83C705008E
:1000C80003C7150083C625002300F600638A0700CE
:1000D800A300E600630607002301D6006394060028
:1000E80067800000A30106006780000093070500F1
:1000F80003C705009387170093851500A38FE7FEB4
:10010800E31807FE67800000130605006FF01FFB69
:10011800130101FF1305600023261100EF1090362C
:1001280013051000EF301D7E9387C18883A7070051
:10013800130101FF13080600232611009308050088
:100148001387050003A5C7001386060097D711007B
:100158009387C710630C08009386080097D5110091
:100168009385C510EF00C01FEFF09FFA97470D0069
:100178009387C70F138807006FF01FFE130101FF55
:10018800930606001306000023261100EFF0DFF99E
:1001980093050500930600001306000013050000F0
:1001A8006F600077130101FD2326110223248102C9
:1001B8002322910223202103232E3101232C4101E4
:1001C800232A5101232861012326710163060604AD
:1001D800138A06006382060413090600930A0500C1
:1001E800138B0500930B07009309000033043901B2
:1001F80013541400B3048A0213850A00B3049B0045
:1002080093850400E7800B0063420504630805003A
:1002180093091400E3EC29FD930400008320C10234
:100228000324810213850400032901028324410267
:100238008329C101032A8101832A4101032B01017A
:10024800832BC10013010103678000001309040018
:10025800E3EE29F96FF05FFC9387C18813860500E8
:100268009305050003A507006F004000B385C5028C
:10027800130101FF2324810023261100EF008026AB
:1002880013040500630805020326C5FF130740028F
:100298001376C6FF1306C6FF6360C70693063001D0
:1002A8009307050063E2C60223A0070023A2070004
:1002B80023A40700130504008320C1000324810040
:1002C8001301010167800000232005002322050097
:1002D8009307B00163F0C704232405002326050013
:1002E80093070501E312E6FC23280500930785011F
:1002F800232A05006FF05FFB93050000EF00D04C48
:10030800130504008320C1000324810013010101A7
:1003180067800000930785006FF01FF99387C188F5
:1003280003A5070067800000130101FC1303C10245
:100338002326D10293060300232E11002328E1026D
:10034800232AF102232C0103232E11032326610003
:10035800EF20804B8320C101130101046780000056
:10036800130101FC2324C10213860500930505002F
:100378001385C18803250500130381022326D102B2
:1003880093060300232E11002328E102232AF102F9
:10039800232C0103232E110323266100EF20C046DE
:1003A8008320C1011301010467800000130101FCCF
:1003B8001303C1022326D10293060300232E110042
:1003C8002328E102232AF102232C0103232E1103FF
:1003D80023266100EF30C07D8320C1011301010491
:1003E80067800000130101FC2324C1021386050065
:1003F800930505001385C1880325050013038102B1
:100408002326D10293060300232E11002328E1029C
:10041800232AF102232C0103232E11032326610032
:10042800EF3000798320C1011301010467800000C7
:10043800130101FF232481002320210117440D000B
:10044800130404DD17490D00130989DC33098940B9
:10045800232611002322910013592940630E090015
:1004680093040000832704009384140013044400B9
:10047800E7800700E31899FE17440D00130444D9D8
:1004880017490D001309C9DC33098940135929405C
:10049800630E09009304000083270400938414006A
:1004A80013044400E7800700E31899FE8320C10085
:1004B8000324810083244100032901001301010161
:1004C800678000009387C1889305050003A507008E
:1004D8006F0040019387C1889305050003A50700B5
:1004E8006F601064130101FD232291022320210370
:1004F8002326110223248102232E3101232C4101BA
:10050800232A510123286101232671012324810113
:10051800232291019384B500930760011309050014
:1005280063E697069307000163ECB722EF00903764
:1005380093040001930780011306200097E9110036
:100548009389C9E0B387F90003A44700138787FF9D
:100558006300E426832744008326C400032684001E
:1005680093F7C7FFB307F40003A747002326D60075
:1005780023A4C600136717001305090023A2E70088
:10058800EF009032130584006F00401E93F484FF3F
:1005980063C8041C63E6B41CEF00D0309307701FD7
:1005A80063FC974A93D79400638C071E1307400097
:1005B8006360F74493D76400138697031385870312
:1005C8009316360097E91100938949D8B386D90064
:1005D80003A44600938686FF638C86028327440023
:1005E8009305F00093F7C7FF3387974063C0E50290
:1005F800635A07380324C400638C860083274400A9
:1006080093F7C7FF33879740E3D4E5FE1306050049
:1006180003A4090117E811001308C8D36308041BD1
:10062800832544001307F00093F5C5FFB387954071
:10063800634AF74417E71100232407D317E711008B
:10064800232E07D163D007429307F01F63E2B73424
:1006580093D53500938715009397370003A5490074
:10066800B387F90083A6070093D525401307100028
:100678003317B7003367A700938587FF2326B40095
:100688002324D40097E5110023A4E5CC23A08700F8
:1006980023A686009357264093061000B396F600CB
:1006A8006360D714B3F7E6006394070293961600C5
:1006B8001376C6FFB3F7E60013064600639A0700F1
:1006C80093961600B3F7E60013064600E38A07FE82
:1006D8001305F00093183600B388190193850800B4
:1006E8001303060003A4C500639A85006F008032D7
:1006F800635C07320324C400638E8530832744007B
:1007080093F7C7FF33879740E354E5FE8326C40079
:100718000326840093E514002322B4002326D60080
:1007280023A4C600B304940097E6110023AA96C236
:1007380097E6110023A496C29366170023A6040126
:1007480023A4040123A2D400B307F400130509006D
:1007580023A0E700EF005015130584006F00000187
:100768009307C0002320F900130500008320C1026D
:100778000324810283244102032901028329C10140
:10078800032A8101832A4101032B0101832BC10024
:10079800032C8100832C41001301010367800000B2
:1007A80093060020130600041305F0036FF09FE181
:1007B80003A4C70013062600E39E87D803A40901F3
:1007C80017E81100130808B9E31C04E503A749005A
:1007D8009357264093061000B396F600E374D7ECBF
:1007E80003A48900832A440093FBCAFF63E89B00A3
:1007F800B3879B401307F0006340F71693878198EF
:10080800138C018983AA070003270C009307F0FFC4
:10081800330A7401B38A5401630EF734B717000022
:100828009387F700B38AFA00B7F7FFFFB3FAFA0025
:1008380093850A0013050900EF1040179307F0FF8E
:10084800130B0500630EF528636A4529978CAE00E3
:10085800938C4CEA83A70C00B387FA001787AE0085
:10086800232AF7E813870700630EAA3A83260C00A9
:100878009307F0FF6386F63CB3074B41B387E70065
:100888001787AE002328F7E6137C7B0063080C303B
:10089800330B8B41B7170000130B8B00138AF7FF3C
:1008A800B30A5B019387870033F74A01B38787410F
:1008B800B387E74033FA470193050A001305090097
:1008C800EF10C00E9307F0FF6306F53C3305654152
:1008D800B30A450183A70C0017E71100232C67A76B
:1008E80093EA1A00B307FA001787AE002324F7E04B
:1008F80023225B01630A34351306F000637A7635E8
:100908008326440013874BFF137787FF93F616005F
:10091800B3E6E6002322D40093055000B306E400B2
:1009280023A2B60023A4B6006360E638832A4B00EE
:1009380013040B0013870198032707006374F7005B
:1009480023A0F1981387419803270700637EF718BF
:1009580023A2F1986F00401913E714002322E40042
:10096800B304940017E711002326979E93E7170016
:100978001305090023A2F400EF0000731305840097
:100988006FF0DFDE8326C400032684006FF09FBD6E
:1009980093D79500130740006378F71213074001B7
:1009A8006368F7229386C7051387B70593963600C1
:1009B800B386D90083A70600938686FF6380F61C5A
:1009C80003A747001377C7FF63F6E50083A78700EF
:1009D800E398F6FE83A6C70003A749002326D400A0
:1009E8002324F40023A4860023A687006FF09FCA5F
:1009F80013074001637CF710130740056368F71E6F
:100A080093D7C4001386F7061385E70693163600B6
:100A18006FF05FBB13031300937733009385850052
:100A2800E39207CC6F004010B307F40003A7470018
:100A38008326C400032684001367170023A2E70057
:100A48002326D6001305090023A4C600EF00C065BD
:100A5800130584006FF09FD113D634009387840068
:100A68006FF0DFADB305B40083A745001305090097
:100A780093E7170023A2F500EF0000631305840035
:100A88006FF0DFCE13E714002322E400B3049400D0
:100A980017E711002326978C17E711002320978C5E
:100AA80013E7170023A6040123A4040123A2E400EA
:100AB800B305B4001305090023A0F500EF00C05EDC
:100AC800130584006FF09FCA93D765009386970338
:100AD80013878703939636006FF09FED63063413F0
:100AE80003A48900832A440093FACAFFB3879A4073
:100AF80063E69A001307F000E340F7E613050900E0
:100B0800EF00805A130500006FF05FC61386C70513
:100B18001385B705931636006FF0DFAA83A7880000
:100B28001306F6FF639C171D93773600938888FF9A
:100B3800E39607FE03A7490093C7F6FFB3F7E7005C
:100B480017E711002326F78093961600E3EAD7C823
:100B5800E38806C833F7F600631A07009396160071
:100B680033F7F60013034300E30A07FE13060300F6
:100B78006FF05FB6938A0A016FF09FCB03A5490017
:100B880093552740130710003317B7003367A700A2
:100B980097D5110023AEE57A6FF05FE4B717000030
:100BA8001387F7FF330A5B01337AEA00B3874741BB
:100BB80033FAE70093050A0013050900EF00105FF8
:100BC8009307F0FFE314F5D0130A00006FF09FD0ED
:100BD800130740056364F70893D7C5009386F706A3
:100BE8001387E706939636006FF09FDC13074015CE
:100BF8006364F70893D7F40013868707138577078C
:100C0800931636006FF01F9C978CAE00938C8CAEB9
:100C180083A70C003387FA009787AE0023ACE7ACB4
:100C28006FF0DFC493164A01E39206C403A4890057
:100C3800B38A5B0193EA1A00232254016FF09FCF15
:100C480023A861896FF05FC413040B006FF09FCE77
:100C5800930710002322FB006FF05FEA130740158B
:100C68006362F70693D7F50093868707138777079C
:100C7800939636006FF0DFD3130740556362F7068B
:100C880093D724011386D7071385C7079316360011
:100C98006FF05F93130C8CFFB38A8A01B38A6A41A1
:100CA800130A00006FF01FC39305840013050900A1
:100CB800EF60006703A4890083A70C00832A44001F
:100CC8006FF05FC7130740556364F70293D7250198
:100CD8009386D7071387C707939636006FF05FCDC3
:100CE8009306803F1306F0071305E0076FF09F8D0A
:100CF8009306803F1307E0076FF09FCB83A7490057
:100D08006FF09FE49307300063F8C702B367B5003C
:100D180093F7370093063000639207060327050010
:100D280083A70500631CF7041306C6FF13054500D7
:100D380093854500E3E4C6FE9307F6FF630C0602BD
:100D48000347050083C60500631ED70213871700F3
:100D5800930715003305E5006F00400103C707003E
:100D680083C6050093871700631ED7009385150077
:100D7800E396A7FE13050000678000009307F6FFBF
:100D88006FF01FFC3305D74067800000B3C7A5008C
:100D980093F73700B308C50063920706930730003E
:100DA80063FEC704937735001307050063980706A9
:100DB80013F6C8FF930706FE636CF708637CC70247
:100DC800938605009307070003A80600938747004A
:100DD8009386460023AE07FFE3E8C7FE9307F6FFB6
:100DE800B387E74093F7C7FF938747003307F700B8
:100DF800B385F500636817016780000013070500D5
:100E0800E37C15FF83C705001307170093851500BA
:100E1800A30FF7FEE36817FF6780000083C605008D
:100E28001307170093773700A30FD7FE9385150094
:100E3800E38007F883C60500130717009377370088
:100E4800A30FD7FE93851500E39A07FC6FF05FF6B2
:100E580083A6050083A2450083AF850003AFC500C4
:100E680083AE050103AE450103A3850103A8C501AF
:100E7800938545022320D70083A6C5FF2322570068
:100E88002324F7012326E7012328D701232AC701B2
:100E9800232C6700232E070113074702232ED7FEB2
:100EA800E368F7FA6FF09FF163F6A502B387C50010
:100EB8006372F5023307C500630A060E9387F7FFCE
:100EC80083C607001307F7FF2300D700E398F5FE52
:100ED800678000009307F00063E8C70293070500E6
:100EE8009306F6FF630C060C93861600B386D700AC
:100EF8009385150003C7F5FF93871700A38FE7FEB7
:100F0800E398D7FE67800000B3E7A50093F73700A2
:100F18006390070A930806FF93F808FF938808016F
:100F2800330815011387050093070500832607007A
:100F3800938707011307070123A8D7FE832647FFD6
:100F480023AAD7FE832687FF23ACD7FE8326C7FFB5
:100F580023AED7FEE31CF8FC1377C600B385150152
:100F68001378F600630E07041387050093880700BB
:100F7800130E3000130747000323C7FF9388480068
:100F8800B306E84023AE68FEB386D500E364DEFE10
:100F98001307C8FF1377C7FF1307470013763600F8
:100FA800B387E700B385E5006FF09FF36780000023
:100FB8009306F6FF930705006FF01FF367800000A4
:100FC800130608006FF0DFF11303F00013070500A4
:100FD800637EC3029377F7006390070A639205085C
:100FE800937606FF1376F600B386E6002320B70053
:100FF8002322B7002324B7002326B70013070701CD
:10100800E366D7FE6314060067800000B306C3409A
:101018009396260097020000B38656006780C600A4
:101028002307B700A306B7002306B700A305B70038
:101038002305B700A304B7002304B700A303B70030
:101048002303B700A302B7002302B700A301B70028
:101058002301B700A300B7002300B7006780000092
:1010680093F5F50F93968500B3E5D50093960501A2
:10107800B3E5D5006FF0DFF69396270097020000DE
:10108800B386560093820000E78006FA9380020038
:10109800938707FF3307F7403306F600E378C3F674
:1010A8006FF0DFF36780000067800000130101FC28
:1010B8002324C1022326D102232AF1022328E10294
:1010C800232C0103232E1103138605008325850095
:1010D8009307810293860700232E11002326F1002F
:1010E800EF20102D8320C101130101046780000047
:1010F8001383C18803230300130101FC2324C102C5
:101108002326D102232AF1022322B1022328E10255
:10111800232C0103232E1103832583009307410207
:10112800130605009386070013050300232E1100FC
:101138002326F100EF20D0278320C10113010104E9
:1011480067800000130101F6B367C5002326310943
:101158002324410923225109232A9107232E110808
:10116800232C8108232A9108232821092320610997
:10117800232E7107232C81072328A1072326B107D3
:1011880093F7370093090500930C0600138A0600AD
:10119800930A200063960700930AC6FFB33A5001EA
:1011A80093D72C002326F10093971C00232E0100CF
:1011B80033049041130D10002324F1003387950365
:1011C800B38799012322F100232AF10093066000D6
:1011D800B387E9002328F10063F0B61C93D7150004
:1011E800B387970333079741930670003389E90063
:1011F800B38DF900638AD50213078002130C090026
:10120800138B09006362B75C93850D0013050B000F
:10121800E7000A0093050C00634C055213850D0086
:10122800E7000A00635AA02263960A2483A60D00E9
:1012380003A7090023A0D90023A0ED0083274101BB
:101248006364F926138B0700338C9701930D09000B
:10125800232CF100930B00009385090013050B0064
:10126800E7000A0093040B006350A00463EA6D07CB
:101278009385090013850D00E7000A00634E0532C7
:101288006310050263900A308326090003A70D0046
:1012980023A0DD002320E90033098900930B100007
:1012A800B38D8D006FF09FFC6314050263940A40B0
:1012B8008327810103260B0003A7070023A0C7008B
:1012C800B38697012320EB00232CD100930B100049
:1012D80093040C00330B9B01330C9C01E3FE9DF639
:1012E80063840B1C832781013388F440338637419C
:1012F8006354C8001306080083270101B3862741F9
:10130800B3859641B307B94163F4B70093850700E5
:10131800631C063C639E05460327010193040800ED
:101328003305F740637CF8001387090093840700AE
:1013380093090500930708001305070063F6FC36B8
:10134800B3D597038327C101130770006366F7427B
:101358001387070013071700232EE10093060106E1
:1013680093973700B387F60023A037FD930905004C
:1013780093066000B3D494033387950323A297FCA4
:10138800B38799012322F100232AF100B387E900EA
:101398002328F100E3E4B6E4032741006378F70863
:1013A8008327410063FAF906938407006F00C001A0
:1013B8000327090083A7040023A0E4002320F900E1
:1013C8009304090063FA290533898400938504008E
:1013D80013050900E7000A006350A004E38A0AFC29
:1013E80003278100930709003306E900638AAA29C5
:1013F80083C6070003C7040093841400938717006B
:10140800A38FD4FEA38FE7FE33079640E342E0FEA6
:1014180093040900E3EA29FB83274100032701011C
:10142800B38797012322F100E3ECE7F68327C10194
:10143800638C07108327C101130701069387F7FF01
:10144800232EF10093973700B307F70083A907FC11
:1014580083A547FC6FF09FD693050C0013050B007E
:10146800E7000A00930D0B00E34005DC930D0C0028
:10147800E38E0ADA138709006384AA4303C60D00C2
:10148800834607008327410113071700938D1D002A
:10149800A30FC7FEA38FDDFEB386E740E340D0FE6F
:1014A80083274101E370F9DA83270101032741010A
:1014B800E37EF7F68327410063FAF9069384070071
:1014C8006F00C0010327090083A7040023A0E400DC
:1014D8002320F9009304090063FA2905338984005D
:1014E8009385040013050900E7000A006350A0046F
:1014F800E38A0AFC03278100930709003306E90001
:10150800638CAA1583C6070003C7040093841400DC
:1015180093871700A38FD4FEA38FE7FE3307964067
:10152800E342E0FE93040900E3EA29FB8327410034
:1015380003270101B38797012322F100E3ECE7F6C3
:101548008327C101E39807EE8320C1090324810999
:1015580083244109032901098329C108032A810831
:10156800832A4108032B0108832BC107032C810719
:10157800832C4107032D0107832DC1061301010A9E
:10158800678000009306090013870D0033859D01CD
:101598006386AA0583C506000346070013071700DC
:1015A80093861600A30FB7FEA38FC6FE3306E54049
:1015B800E342C0FE6FF05FCE63960A0483A60D0077
:1015C80003270B002320DB0023A0ED0093040C006D
:1015D800B38D8D00930B10006FF0DFCF0326C10091
:1015E80003A50600832507001307470093864600D6
:1015F800232EA7FE23AEB6FE1306F6FFE342C0FE77
:101608006FF09FC913870D006384AA030346070080
:1016180083C604009384140013071700A38FC4FE25
:10162800A30FD7FEB3069C40E342D0FE6FF01FFA2B
:101638008326C1008325070003A604009384440081
:101648001307470023AEB4FE232EC7FE9386F6FF8A
:10165800E342D0FE6FF09FF70327C10003A60700FF
:1016680083A60400938444009387470023AEC4FEF6
:1016780023AED7FE1307F7FFE342E0FE6FF09FE5C6
:101688000327C10003A6070083A60400938444002F
:101698009387470023AEC4FE23AED7FE1307F7FF98
:1016A800E342E0FE6FF0DFD1E3F29CD8B3D59403B8
:1016B8006FF0DFB08327810113870700B386970196
:1016C8006388AA1B83C50400034607001307170095
:1016D80093841400A30FB7FEA38FC4FE3386E6409D
:1016E800E342C0FE6FF05FBE130520003387C4409D
:1016F80093860900B388C900639CAA1E03450700A6
:1017080003C606009386160013071700A38FA6FECC
:10171800A30FC7FE3386D840E342C0FEE38E05BE62
:10172800032701013307B740B386B4000345070018
:1017380003C604009384140013071700A38FA4FEA4
:10174800A30FC7FE33869640E342C0FE6FF0DFBCAE
:1017580013850D00E7000A00E34805AC93050C006B
:1017680013050B00E7000A00930D0C00E34E05AAD1
:10177800930D0B006FF05FAB93060A0013860C0005
:10178800EFF05F9CE3F89CCAB3D594036FF01FA3F6
:1017980003270101930620003307B740E386DAF8F0
:1017A80093D625008325070003A6040093844400EC
:1017B8001307470023AEB4FE232EC7FE9386F6FF19
:1017C800E342D0FE6FF05FB593D53500338C9503B7
:1017D80013850900338B890193050B0093171C00AF
:1017E800232CF100B3048B01E7000A009385040061
:1017F800634C050C13050B00E7000A00635AA01898
:10180800B3848D4193850D0013850400B38B8D013E
:10181800E7000A0093850B00634A051213850D0043
:10182800E7000A006358A01493171C00B30BF94093
:10183800338C8B0193050C0013850B00E7000A001D
:10184800930509006340050E13050C00E7000A0024
:10185800E34CA09A9305090013850B00E7000A00E2
:10186800138C0B00E342059A130C09006FF0DF9903
:101878008326C10083A50400032607001307470039
:1018880093844400232EB7FE23AEC4FE9386F6FF4E
:10189800E342D0FE83278101B38697016FF0DFA270
:1018A8008326C10083A50D00032607001307470000
:1018B800938D4D00232EB7FE23AECDFE9386F6FF03
:1018C800E342D0FE6FF09F9713050B00E7000A0074
:1018D800E34805F29385040013850900E7000A0030
:1018E800138B0400E34E05F0138B09006FF05FF1D2
:1018F800135626008328070003A506009386460092
:101908001307470023AE16FF232EA7FE1306F6FF84
:10191800E342C0FEE38205A0032701013307B74075
:101928006FF01FE813050C00E7000A00E34E058C72
:101938009305090013850B00E7000A00130C090042
:10194800E344058C138C0B006FF01F8C13850D007E
:10195800E7000A00E34A05EC93850B0013850400B1
:10196800E7000A00938D0B00E34005EC938D04001B
:101978006FF09FEB93850B0013850400E7000A00C6
:10198800938D0400E34205EA938D0B006FF0DFE9C5
:101998009385040013850900E7000A00138B0900EA
:1019A800E34005E6138B04006FF09FE5130101FF88
:1019B8002324810013040500138505009777AE00E2
:1019C80023AE07D423261100EF204D6F9307F0FFB5
:1019D800630AF5008320C10003248100130101017B
:1019E800678000009777AE00938747D383A70700E7
:1019F800E38207FE2320F4008320C1000324810032
:101A08001301010167800000130101FF930500081D
:101A1800232481002326110013040500EFE09FAC66
:101A2800232EA42C63040502930705082320050030
:101A380013054500E31CF5FE130500008320C100D3
:101A48000324810013010101678000001305F0FFE2
:101A58006FF0DFFE8327C52D63860700130500009E
:101A6800678000006FF05FFA130101FE232C8100EC
:101A7800232E11001307F001130405006368B70251
:101A88008327C52D6384070493952500B385B70084
:101A980083A7050023A0C5008320C1010324810179
:101AA8001385070013010102678000008320C1012C
:101AB80003248101130760012320E5009307F0FF49
:101AC8001385070013010102678000002326C10067
:101AD8002324B100EFF05FF39307F0FFE31E05FA4C
:101AE8008327C42D0326C100832581006FF0DFF909
:101AF8009307F00163E4B70C8327C52D130101FF99
:101B08002324810023229100232611009304050039
:101B1800138405006384070413972500B387E7003F
:101B280003A70700630C070293061000630CD7068F
:101B38009306F0FF6308D7041385050023A0070068
:101B4800E70007008320C1000324810083244100AB
:101B580013050000130101016780000013850400CC
:101B6800EF00801D13060400032481008320C100B8
:101B78009305050013850400832441001301010126
:101B88006F0040158320C100032481009307600182
:101B98002320F500832441001305100013010101DF
:101BA800678000008320C100032481008324410052
:101BB800130500001301010167800000930760010D
:101BC8002320F5001305F0FF678000009307F0015C
:101BD80063E6B70A8327C52D130101FE232C810074
:101BE800232E110013040500638C070413972500A6
:101BF800B387E70003A70700630A07029306F0FF0D
:101C08006306D706930610006308D70413850500FA
:101C180023A00700E7000700130500008320C10187
:101C28000324810113010102678000008320C101A0
:101C380003248101130510001301010267800000CD
:101C48002326B100EFF05FDC631605028327C42D5D
:101C58008325C1006FF09FF98320C101032481010E
:101C680013053000130101026780000013052000EE
:101C78006FF0DFFA1305F0FF6FF05FFA1305F0FF5E
:101C8800678000009387C1889305050003A50700B6
:101C98006FF01FE69387C18813860500930505003A
:101CA80003A507006FF05FDC9387C18803A50700D1
:101CB8008327C52D63860700130500006780000091
:101CC8006FF09FD49387C1889305050003A507008B
:101CD8006FF0DFEF93870500130101FF23248100D4
:101CE8009305060013040500138507002326110039
:101CF8009777AE0023A407A2EF208D389307F0FF53
:101D0800630AF5008320C100032481001301010147
:101D1800678000009777AE00938747A083A70700E6
:101D2800E38207FE2320F4008320C10003248100FE
:101D380013010101678000006F200D32130101FFBC
:101D4800232481002326110093773500130405000E
:101D580063960706032705003706FFFE1306F6EF0E
:101D6800B307C700B78680801347F7FF9386060836
:101D7800B3F7E700B3F7D7006392070413054500EC
:101D880003270500B307C7001347F7FFB3F7E700BA
:101D9800B3F7D7006394070213054500032705002E
:101DA800B307C7001347F7FFB3F7E700B3F7D70048
:101DB800E38607FC6F0080001305150083470500C4
:101DC800E39C07FEEFE0CFA9130504008320C100C0
:101DD8000324810013010101678000003367B50007
:101DE8009303F0FF1377370063100710B7877F7FDF
:101DF8009387F7F70326050083A60500B372F6005C
:101E08003363F600B382F200B3E2620063927210A9
:101E18006316D6080326450083A64500B372F6006C
:101E28003363F600B382F200B3E26200639E720C81
:101E38006316D6060326850083A68500B372F600CE
:101E48003363F600B382F200B3E262006398720C67
:101E58006316D6040326C50083A6C500B372F60030
:101E68003363F600B382F200B3E262006392720C4D
:101E78006316D6020326050183A60501B372F60090
:101E88003363F600B382F200B3E26200639C720A25
:101E98001305450193854501E30ED6F41317060192
:101EA80093970601631EF7001357060193D706019F
:101EB8003305F7409375F50F6390050267800000BE
:101EC8001357070193D707013305F7409375F50FAB
:101ED80063940500678000001377F70F93F7F70FF7
:101EE8003305F740678000000346050083C60500F8
:101EF80013051500938515006314D600E31606FE36
:101F08003305D640678000001305450093854500DA
:101F1800E31CD6FC1305000067800000130585004C
:101F280093858500E312D6FC130500006780000046
:101F38001305C5009385C500E318D6FA13050000FC
:101F4800678000001305050193850501E31ED6F897
:101F5800130500006780000093773500130705001C
:101F6800639C0704B7867F7F9386F6F79305F0FF97
:101F7800130747000326C7FFB377D600B387D700F8
:101F8800B3E7C700B3E7D700E384B7FE8346C7FFCC
:101F9800B307A7400346D7FF0345E7FF638006045E
:101FA800630A06023335A0003305F5001305E5FF83
:101FB80067800000E38806FA8347070013071700C5
:101FC80093763700E39807FE3307A7401305F7FF1A
:101FD800678000001385D7FF678000001385C7FF5F
:101FE80067800000630A060CB367B50093F73700F3
:101FF800639007089307300063FCC7068327050032
:1020080003A70500639EE70A1306C6FF6306060AD0
:102018003703FFFE1303F3EF33876700B788808029
:1020280093C7F7FFB377F70093880808B3F717014A
:1020380063940708130E30006F00C00203270500E1
:1020480083A60500B30767001348F7FFB3F7070136
:10205800B3F717016316D7061306C6FF630E060407
:10206800639C07041305450093854500E368CEFC8F
:102078000347050083C605001306F6FF639AE602C8
:10208800630C0602630A0702930715003306C500AE
:102098006F0000016302F60293871700630E0700C2
:1020A8009385150003C7070083C60500E304D7FE20
:1020B8003305D740678000001305000067800000E3
:1020C8000347050083C605001306F6FFE38CE6FA0E
:1020D8006FF01FFE130101FC232821032322510363
:1020E80023206103232E7101938A0600930B0600B7
:1020F800232E1102232C8102232A91022326310345
:1021080023244103232C8101232A91012328A1019F
:102118002326B101138B05001309050093860500DA
:1021280017B611001306164B6F00800093060400C3
:10213800138416008347F4FF3307F60003470700AC
:1021480013778700E31407FE1307D0026388E71CA0
:102158001307B0026386E70E93840700130D00008F
:1021680063880A0E930700016388FA1C138C0A001F
:1021780093DCFA41631A0D0EB7090080130AF0FFC9
:1021880093C9F9FF13060C0093860C0013050A0087
:1021980093850900EFE04C6C13060C00930D0500C5
:1021A80093860C0013050A0093850900EFB0DB7FC6
:1021B800130E050013860500130700001305000021
:1021C8009305000013089000130390019308F0FF93
:1021D800938704FD6378F8009387F4FB636CF30836
:1021E800938794FC63D0570B630217056366B604A4
:1021F8006394C5006362AE046308AE0EB386AC0296
:1022080013DFF74113071000B3858503B30EAC0243
:10221800B386B600B335AC023385D701B337F500C2
:10222800B386B600B305DF00B385B7001304140006
:102238008344F4FF6FF0DFF91307F0FF6FF01FFF1F
:1022480083440400130D000013842600E39C0AF065
:10225800930700036380F412130CA000930C000092
:10226800930AA000E30A0DF0130A0000B7090080E2
:102278006FF05FF19387F4F96366F300938794FA3C
:10228800E3C457F79307F0FF6308F706630A0D00E6
:102298003305A040B336A000B307B040B385D7409C
:1022A80063860B006314070823A06B018320C10316
:1022B8000324810383244103032901038329C102E1
:1022C800032A8102832A4102032B0102832BC101C5
:1022D800032C8101832C4101032D0101832DC100B1
:1022E8001301010467800000E31AB6F01307F0FF3A
:1022F800E3CEFDF26FF09FF0930720022320F90050
:1023080013050A0093850900E3820BFA130BF4FF07
:1023180013050A00938509006FF01FF98344040030
:10232800130D1000138426006FF09FE3130A0500B5
:10233800938905006FF09FFD93070003639AF400EB
:10234800834704001307800593F7F70D6388E700B8
:10235800130C0001930C00006FF0DFE183441400BC
:10236800130C000113042400930C0000930A0001CD
:102378006FF05FE0834704001307800593F7F70DBC
:10238800E38EE7FC130C8000930C0000930A800096
:102398006FF05FDE6FF01FD49387C1889306060045
:1023A800138605009305050003A507006FF09FD26B
:1023B8009387C188930606001386050093050500D8
:1023C80003A507006FF01FD1130101FD232021038E
:1023D800232E3101232C4101232A5101130A06001F
:1023E8001389060023261102232481022322910245
:1023F80023286101232671012324810123229101CD
:102408002320A10193890500930A050093860500FE
:1024180017B611001306161C6F00800093060400FF
:10242800138416008347F4FF3307F60003470700B9
:1024380013778700E31407FE1307D002638AE71AAD
:102448001307B002638CE70C93840700930C000019
:10245800630E090C930700016304F91A135DF9412F
:102468001306090093060D001305F0FF9305F0FF0E
:10247800EFB09B53130C0500138B050013060900DE
:1024880093060D001305F0FF9305F0FFEFE0CC3C39
:10249800930B090013030500130700001305000040
:1024A800930500001308900093089001938704FD9A
:1024B8006378F8009387F4FB63E0F80A938794FC49
:1024C80063D4270B634807006366BB00639C650100
:1024D800637AAC001307F0FF130414008344F4FF7D
:1024E8006FF0DFFC6300850FB306AD0213DEF74122
:1024F80013071000B38575033386AB02B385B600A6
:10250800B3B6AB023385C700B337F500B385D50042
:10251800B305BE00B385B7006FF01FFC8344040009
:10252800930C000013842600E31609F293070003B6
:102538006388F41097B71100938747D613035000A8
:1025480003AC070003AB4700930BA000130D00007A
:102558001309A0006FF05FF49387F4F963E6F800BD
:10256800938794FAE3C027F763460706638A0C004B
:102578003305A040B336A000B307B040B385D740B9
:1025880063060A006312070623203A018320C1026A
:102598000324810283244102032901028329C10102
:1025A800032A8101832A4101032B0101832BC100E6
:1025B800032C8100832C4100032D0100130101032A
:1025C80067800000E39265F31307F0FFE346F3F03A
:1025D8006FF09FF19307200223A0FA001305F0FF84
:1025E8009305F0FFE3040AFA9309F4FF6FF0DFF9AB
:1025F80083440400930C1000138426006FF05FE5F9
:10260800930700036396F40A8347040013078005C1
:1026180093F7F70D639EE704370B0010834414000B
:102628001303F00013042400130CF0FF130BFBFF3B
:10263800930B0001130D0000130900016FF0DFE593
:10264800834704001307800593F7F70DE386E7FC3B
:10265800370B002013037000130CF0FF130BFBFF64
:10266800930B8000130D0000130980006FF0DFE268
:1026780013060001930600001305F0FF9305F0FF11
:10268800EFB09B32130C0500138B050013060001F5
:10269800930600001305F0FF9305F0FFEFE0CC1B55
:1026A800930B000113030500130D00006FF0DFDE2C
:1026B800370B00101303F000130CF0FF130BFBFF94
:1026C800930B0001130D00006FF01FDD6FF0DFCFDB
:1026D8009387C188930606001386050093050500B5
:1026E80003A507006FF05FCE9387C18893060600A5
:1026F800138605009305050003A507006FF0DFCCDE
:1027080083A74506130101FD232861012326110231
:10271800232481022322910223202103232E310125
:10272800232C4101232A51012326710123248101ED
:1027380013972701130B06006358070A832786009F
:1027480013890500130A0500832B0600930AF0FF7E
:102758006388070803AC4B0003A40B0093592C00B3
:1027680063860906930400006F00C0001304440048
:10277800638C9904832504001306090013050A00D5
:10278800EF40901B93841400E31255FF1305F0FFEC
:102798008320C1020324810223240B0023220B007F
:1027A80083244102032901028329C101032A8101EB
:1027B800832A4101032B0101832BC100032C8100D3
:1027C800130101036780000083278B00137CCCFF73
:1027D800B38787412324FB00938B8B00E39C07F688
:1027E800130500006FF0DFFAEF4010656FF05FFA35
:1027F80003278600630407006FF09FF0232206007A
:102808001305000067800000130101ED2320211348
:10281800232E3111232481112326111223248112FE
:1028280023229112232C4111232A511123286111AB
:1028380023267111232291112320A111232EB10FD8
:102848002326D1009309050013890500130C0600FF
:102858006306050083278503E38207180317C90069
:102868009317070193D707019396270163C60602BA
:1028780083264906B7270000B367F70037E7FFFF4D
:102888001307F7FF33F7E6002316F90093970701BC
:102898002322E90693D7070113F787006308071671
:1028A800032709016304071693F7A7011307A0007C
:1028B8006380E718B787FFFF9304C10493C70783B2
:1028C8002320910423240104232201042328010046
:1028D800232C010023200102232E010023240100C0
:1028E80097BA1100938A0A9C2322F10213840400E8
:1028F800930C0C0083C70C0063840716130750025F
:10290800E384E75C138A0C006F00C0006384E7145B
:10291800130A0D0083471A00130D1A00E39807FEE7
:10292800330C9D41630E0C12032781048327410455
:10293800232094013307EC00938717002322840196
:102948002324E1042322F104930670001304840075
:1029580063D0F602E3060752130601049305090043
:1029680013850900EFF0DFD96318051013840400FC
:102978000327810083471A00330787012324E100D6
:102988006380070E930C1D0003471D00A30D010271
:10299800130CF0FF130A0000930B0000130DA002A4
:1029A800938C1C009306A005930707FE63E0F61EB0
:1029B80093972700B387570183A70700B387570169
:1029C8006780070013850900EF70105C83274500B6
:1029D80013850700232EF100EFF00FD82320A10262
:1029E800130B050013850900EF70105A8327850023
:1029F800232CF100E3140B5603C70C006FF05FFAA9
:102A080093EB0B0203C70C006FF09FF993050900C5
:102A180013850900EF305059630405006F10000654
:102A28008357C9001307A00093F7A701E394E7E8C9
:102A38008317E900E3C007E88326C10013060C00EA
:102A48009305090013850900EF10800A2324A100CB
:102A58006F008003330C9D41E3060CF26FF0DFEC4E
:102A680083278104638A070013060104930509007C
:102A780013850900EFF0DFC88357C90093F70704EF
:102A8800638407006F00907F8320C11203248112A2
:102A98000325810083244112032901128329C111CE
:102AA800032A8111832A4111032B0111832BC110A1
:102AB800032C8110832C4110032D0110832DC10F8D
:102AC800130101136780000097270D009387C782C1
:102AD8002328F10093F70B02638407528327C10070
:102AE8009386770093F686FF83AD060003AE460013
:102AF800938786002326F10093F61B006386060061
:102B0800B3E6CD01E39E064213FDFBBF1307200089
:102B1800A30D01029306F0FF630ADC64B3E6CD015E
:102B2800937BFDF7E39E0620631C0C72E3120736C5
:102B3800937D1D00130B010FE3960D3A130D0C0046
:102B48006354BC01138D0D008347B103B337F00004
:102B5800330DFD006F004005130A0000130607FD42
:102B6800938C1C0093172A0003C7FCFF338A470184
:102B7800131A1A00330A460193079000130607FD3B
:102B8800E3F0C7FE930707FEE3F4F6E2E30A07EC77
:102B98002306E108A30D0102130D1000930D100088
:102BA800130BC108130C000093FF2B0063840F0064
:102BB800130D2D000327410413F84B0883278104C4
:102BC800930617001386060063160800330EAA4101
:102BD800E34CC0178345B10393068400638C050258
:102BE8001307B103938717002320E400130710008D
:102BF8002322E4002324F1042322C10413077000D4
:102C0800E340C710130706001384060013061600D6
:102C180093868600638E0F041307C10393872700EA
:102C28002320E400130720002322E4002324F104D6
:102C38002322C10413077000E35AC70AE38C07264E
:102C4800130601049305090013850900232A0101CD
:102C5800EFF01FABE31205E2032741048327810449
:102C68000328410193064105130617001384040045
:102C780093050008630AB864330CBC416346807549
:102C8800B387FD00232064012322B4012324F10427
:102C98002322C104130770006352C7026384071814
:102CA800130601049305090013850900EFF05FA5D9
:102CB800E31405DC832781049386040093F84B0012
:102CC800638608003304AA41634A80166354AA0144
:102CD800130A0D0003278100330747012324E1006D
:102CE800639E077A23220104138404006FF09FC0B7
:102CF80093F70B0213ED0B01639207548327C1006E
:102D0800138747008327C100130E00002326E10024
:102D180083AD0700130710006FF09FDF93EB0B08DC
:102D280003C70C006FF0DFC78327C100A30D0102A2
:102D380003AB070013874700E3060B389307F0FF40
:102D48002326E100E308FC2413060C009305000089
:102D580013050B00EF7010550327C100E308054E5B
:102D6800B30D6541130C00006FF05FDD93F70B02A4
:102D780093E80B01639A07468327C100138747002E
:102D88008327C100130E00002326E10083AD07004E
:102D98006F00404793F70B0213ED0B01639C074646
:102DA8008327C100138747008327C1002326E1003A
:102DB80083AD070013DEFD4113070E006344073897
:102DC8001307F0FF630AEC0033E7CD01937BFDF7AF
:102DD800E30E070A138D0B00E3180E1E93079000ED
:102DE800E3E4B71F93870D03A307F10E930B0D00C0
:102DF800930D1000130BF10E6FF05FD40327C10081
:102E0800A30D0102130D10008327070013074700C5
:102E18002326E1002306F108930D1000130BC108C7
:102E28006FF05FD82322010493F84B00E386080073
:102E38003304AA41E352800093860400130700017B
:102E480003264104E354874297AE1100938ECE5C6B
:102E5800130C0001930D7000138B0E006F0080019E
:102E6800930526009386860013060700130404FFC3
:102E780063588C04938707011307160023A0660183
:102E880023A286012324F1042322E104E3DAEDFCE2
:102E9800638407421306010493050900138509009A
:102EA800EFF01F86E31A05BC03264104130404FF50
:102EB800832781049386040093051600E34C8CFA5B
:102EC800930E0B00B387870023A0D60123A28600A8
:102ED8002324F1042322B10413077000E358B7DE5A
:102EE800638C077413060104930509001385090010
:102EF800EFF01F81E31205B8832781046FF01FDD0F
:102F08008347B10303C70C00E39C07A8930700029B
:102F1800A30DF1026FF0DFA89307B002A30DF10231
:102F280003C70C006FF0DFA78327C10003C70C009D
:102F380003AA0700938747002326F100E3520AA655
:102F4800330A404193EB4B006FF09FA593EB1B00B6
:102F580003C70C006FF0DFA403C70C0093871C00A5
:102F6800E30EA733938C0700130607FD9307900021
:102F7800130C0000E3EAC7A2938C1C0093172C00E3
:102F880003C7FCFF338C8701131C1C00330CCC00D7
:102F980093079000130607FDE3F0C7FE6FF0DFA06C
:102FA80003C70C0093EB4B006FF09F9F93F70B0246
:102FB800639407288327C10093F60B011387470002
:102FC80083A70700E39E062E93F60B04E38C0610F6
:102FD800939D07012326E10093DD0D01130E0000E8
:102FE800138D0B00130710006FF09FB297170D0099
:102FF8009387472F2328F10093F70B02E39007AE3E
:103008000326C10093F60B0183270600130646002A
:103018002326C100639A066893F60B046382066848
:10302800939D070193DD0D01130E00006FF0DFACD7
:103038008327C10003274102130E000083AD070058
:10304800938747002326F10097170D009387872958
:10305800231EE10213ED2B002328F10013072000A3
:103068006FF01FAB93F70B02639E07168327C1000F
:1030780093F60B011387470083A70700E3960624FE
:1030880093F60B04E3800608939D070193DD0D0179
:10309800130E000093880B002326E1006F008016B2
:1030A8008326C10093F70B02138746006396076CCB
:1030B80093F70B01639C077E93F70B04E3980710C3
:1030C80093F80B206384087E8327C1002326E10040
:1030D8000327810083A707002380E7006FF09F8103
:1030E80003C70C009307C006630AF77A93EB0B013A
:1030F8006FF01F8B03C70C00930780066308F778EF
:1031080093EB0B046FF0DF8993F70B0263920710C0
:103118000327C10093F70B0113074700E39A071A27
:1031280093F70B04638E077E8327C1002326E100F3
:10313800138D0B00839D070013DEFD4113070E005E
:10314800E35007C8B307B0413337F000330EC0412E
:10315800330EEE401307D002A30DE1029306F0FFF1
:10316800938D070013071000E31ADC9A93061000EA
:10317800E304D7C693062000630ED70E9306010F0B
:103188006F00800093060B009317DE0113F77D0094
:1031980093DD3D0013070703B3EDB701135E3E004F
:1031A800A38FE6FEB3E7CD01138BF6FFE39C07FC84
:1031B80093771D00638A070E930700036306F70ED3
:1031C8009386E6FFA30FFBFE9307010FB38DD7404D
:1031D800930B0D00138B06006FF05F96EF30905E37
:1031E8006FF0CFE793880B008327C1001387770020
:1031F800137787FF832D0700032E47009307870067
:103208002326F10013FDF8BF130700006FF05F904D
:10321800138D0B008327C1009387770093F787FFEF
:1032280003A74700938687002326D10083AD0700B4
:10323800130E07006FF09FB8138D0B008327C10092
:1032480013877700137787FF93078700832D07007D
:10325800032E47002326F100130710006FF05F8B41
:1032680093061000630AD77C93062000138D0B0089
:10327800E316D7F083260101130B010F93F7FD0026
:10328800B387F60083C707001317CE0193DD4D00FF
:10329800130BFBFFB36DB701135E4E002300FB0059
:1032A800B3E7CD01E39C07FC9307010FB38D67419A
:1032B800930B0D006FF09F88930510001306000014
:1032C800938604006FF09FBA330EAA41E356C09B61
:1032D8009305000163DAC57B97AE1100938ECE1477
:1032E800232A610123244103130F0001930F700067
:1032F800130A0E00138B0E006F0080019305270040
:103308001304840013870600130A0AFF635C4F0541
:103318009387070193061700232064012322E40101
:103328002324F1042322D104E3DADFFC63840718A1
:10333800130601049305090013850900EFF04FBC3B
:10334800631C05F203274104130F0001130A0AFF47
:10335800832781041384040093051700930F7000DA
:10336800E3484FFB130E0A00930E0B00032A810259
:10337800032B410113058400B387C7012320D4011F
:103388002322C4012324F1042322B104130770006B
:10339800635EB7386380075C130601049305090070
:1033A80013850900EFF0CFB5631805EC0327410436
:1033B800330CBC418327810493064105130617008B
:1033C80013840400E35E808B9305000163DC85575A
:1033D80097AE1100938E4E05232A4101130E00016A
:1033E800130F7000138A0E006F0080011306270068
:1033F8001304840013870600130C0CFF635C8E050E
:103408009387070193061700232044012322C40150
:103418002324F1042322D104E35ADFFC638807063E
:10342800130601049305090013850900EFF04FAD59
:10343800631405E403274104130E0001130C0CFF69
:10344800832781041384040013061700130F7000E8
:10345800E3488EFB930E0A00032A4101930584007A
:10346800B38787012320D401232284012324F10474
:103478002322C10413077000634CC71C13061600EF
:1034880093868500138405006FF08FFF13061000E4
:1034980013070000138404006FF01FF613060104DD
:1034A8009305090013850900EFF08FA5E30C058249
:1034B8006FF08FDC930510001307000013840400DD
:1034C8006FF09FE4639807220347B1036312074E26
:1034D80063800F209307C1032326F104930720007C
:1034E8002328F1041306100093064105130706006C
:1034F8001384060013061600938686006FF04FF7B4
:10350800E38807FC130601049305090013850900E5
:1035180023240103232AF101EFF08F9E631E05D4B3
:1035280003274104832781049306410513061700E6
:103538001384040003288102832F41016FF08FED6B
:10354800138D0B006FF09FC2130600016358C6511C
:1035580097AE1100938E4EEC130604002326410308
:103568009302000193037000232AF101232401032D
:1035780013040E00138A0E006F00C0019305270084
:103588001306860013870600130404FF63DC820415
:10359800930617009387070123204601232256002C
:1035A8002324F1042322D104E3DAD3FC638E070633
:1035B800130601049305090013850900EFF04F94E1
:1035C800631C05CA0327410493020001130404FF86
:1035D8008327810413860400930517009303700062
:1035E800E3C882FA930E0A00832F4101032881025F
:1035F800032AC102130E040013040600B387C7018F
:103608002320D4012322C4012324F1042322B1045A
:1036180013077000E348B7EA130484001386150003
:10362800138705006FF00FDB1307000093051000E8
:10363800138604006FF05FF56354AA01130A0D00A6
:1036480083278100B38747012324F1006FF08FE9B6
:10365800638C0714130601049305090013850900F8
:10366800EFF00F8A631A05C00326410483278104FB
:103678009306410513061600138404006FF04FE00B
:1036880023220104138404006FF08FAE63160C3AF2
:10369800130C0000930D0000130B010F6FF00FCAFD
:1036A80093F60B2063940638938D0700130E0000E1
:1036B8006FF08FC49306410513061000130700002E
:1036C800138404006FF0CFDA138D0C006FF08FAB0A
:1036D8001307000093064105130610001384040025
:1036E8006FF00FD993070003A307F10E130BF10E28
:1036F8006FF0CFC413060104930509001385090070
:1037080023240103232AF101EFE09FFF631605B686
:103718000327410483278104138404001306170038
:1037280003288102832F41016FF0CFCA1386150049
:103738009306850013870500130405006FF0CFD3A7
:103748009306000393EB2B00A30EE102230ED10294
:1037580013FDFBBF130720006FF08FBB8327810188
:1037680003C70C00638E07A283C70700638A07A2FA
:1037780093EB0B406FF0CFA20326810083A70600CE
:103788002326E1009356F64123A0C70023A2D700C1
:103798006FF04F9613050B00EFE00FFC930D05003B
:1037A800130C00006FF08FB91307100093870D00FA
:1037B800232661052328B1052324B1052322E1042A
:1037C800930641056FF08FCF130B010F93770D40D0
:1037D800232A81002324410323263103930B00006D
:1037E80093090B0013840700138B0C00130A0E00B7
:1037F800930C0900032981016F0040021306A00001
:103808009306000013850D0093050A00EFA0DB194D
:1038180063080A22930D0500138A05001306A00009
:103828009306000013850D0093050A00EFD0CC0223
:1038380013050503A38FA9FE938B1B009389F9FF3A
:10384800E30E04FA03470900E31A77FB9307F00F26
:10385800E386FBFA631A0A109307900063E6B71130
:10386800232C21019307010F13890C00930C0B00E3
:10387800138B090003244101032A81028329C10211
:10388800B38D6741930B0D006FF04FAB03C71C005E
:1038980093EB0B20938C1C006FF08F9003C71C00D8
:1038A80093EB0B02938C1C006FF08F8F8327C10062
:1038B80083A707002326E1000327810023A0E70050
:1038C8006FF04F8393076000930D0C0063EE870D34
:1038D800138D0D002326E10017AB1100130B4BB31A
:1038E8006FF04FAC93F60B20638606122326E10097
:1038F80093FDF70F130E0000138D0B001307100034
:103908006FF00FA193F60B20638C060E93FDF70F53
:10391800130E000093880B002326E1006FF09F8EA2
:1039280093F70B206380070C8327C100138D0B00CE
:103938002326E100838D070013DEFD4113070E00E7
:103948006FF0CFC79385060097AE1100938ECEAD6A
:103958006FF01FB19306410513061000130700000E
:10396800138404006FF04FB1832701028325C1013E
:10397800930B0000B389F9401386070013850900EB
:10398800EF809037034719001306A0009306000044
:103998003337E00013850D0093050A003309E90069
:1039A800EFA09B006FF01FE7930D60006FF05FF2D0
:1039B8009307B1032326F104930710002328F10489
:1039C80013061000930641056FF0CFA38327C100AB
:1039D8002326E1000327810083A707002390E7003F
:1039E8006FE05FF18327C100138D0B002326E100F0
:1039F80083AD070013DEFD4113070E006FF00FBC07
:103A0800938D0700130E000093880B002326E10016
:103A18006FF04FFF2326E100938D0700130E00007F
:103A2800138D0B00130710006FF08F8E93FDF70FA7
:103A3800130E00006FF04F8C138D0B006FF08FBAD0
:103A480093079000E3E8B7DD6FF09FE1930D0C005A
:103A58002326E100130C00006FF04F8E93850600BB
:103A680097AE1100938E4E9B6FF05FB993051600C9
:103A780097AE1100938E4E9A6FF0CFC49307F0FF64
:103A88002324F1006FF04F8013850600930506008C
:103A980097AE1100938E4E996FF01F8E0327C100C9
:103AA800032C07009306470063540C00130CF0FF27
:103AB80003C71C002326D100938C07006FE05FEE3C
:103AC800138D0B006FF00FA493880B006FF04FABB2
:103AD800138D0B006FF04FAD9387C18893060600D6
:103AE800138605009305050003A507006FE0DFD1E5
:103AF80083D7C50003AE450603D3E50083A8C501F7
:103B080003A84502130101B893F7D7FF1307004034
:103B1800232C8146231AF10013840500930701071B
:103B280093058100232A914623282147232E1146F5
:103B3800130905002326C107231B61002322110353
:103B4800232601032324F100232CF1002328E1007C
:103B5800232EE10023200102EFE01FCB9304050090
:103B6800635C05028357410193F7070463880700E4
:103B78008357C40093E707042316F4008320C14742
:103B880003248147138504000329014783244147FF
:103B9800130101486780000093058100130509009F
:103BA800EF30C006E30005FC9304F0FF6FF09FFBC5
:103BB800130101E12326111E2324811E2324811DC4
:103BC8002322B100130C06002326D1002322911EC4
:103BD8002320211F232E311D232C411D232A511D53
:103BE8002328611D2326711D2322911D2320A11D39
:103BF800232EB11B13040500232EA100EF60D0383B
:103C080083270500138507002328F102EFE0CFB4CE
:103C18002324A1022328010E232A010E232C010E9E
:103C2800232E010E6306040083278403E3840754CC
:103C3800032641000317C6009317070193D707010E
:103C48009396270163C6060283264606B727000017
:103C5800B367F70037E7FFFF1307F7FF33F7E6000F
:103C68002316F600939707012322E60693D7070148
:103C780013F7870063080716032741000327070186
:103C88006302071693F7A7011307A0006380E718DC
:103C9800930C0C0003C70C009307C1102322F10EEC
:103CA8002326010E2324010E232C010023260102C2
:103CB800232C0102232E01022320010423220104C4
:103CC80023240100930B0001138D0700032AC1016F
:103CD800630E073E930650026314D7006F10C07737
:103CE80013840C006F00C0006386D7141304090006
:103CF8008347140013091400E39807FEB30499419D
:103D08006386043C8326C10E0327810E23209D0170
:103D1800B38696001307170023229D002326D10E91
:103D28002324E10E93067000130D8D0063CAE6107C
:103D38008327810003471400B38797002324F100E9
:103D4800630607381303F0FF93041900034E1900A4
:103D5800A303010C13040000130900009309900049
:103D6800130BA002130C030093841400930A0E0093
:103D78001307A00593870AFE6360F724979611003E
:103D88009386866B93972700B387D70083A707008E
:103D9800B387D7006780070013050A00EF60D01EBD
:103DA80083274500138507002322F104EFE0CF9A0B
:103DB8002320A104930A050013050A00EF60D01C14
:103DC80083278500232EF10263840A006F10C052F6
:103DD80003CE04006FF05FF91369090203CE0400F3
:103DE8006FF09FF8832541000325C101EF20D01B08
:103DF800630405006F204046832741001307A00095
:103E080083D7C70093F7A701E394E7E88327410026
:103E18008397E700E3CE07E68326C10083254100A8
:103E28000325C10113060C00EF20100C2324A10068
:103E38006F008006B3049941E38604F06FF09FECAD
:103E4800832541001306410E13050A00EFE05F9A2F
:103E5800631A0502130DC1106FF09FED8325410011
:103E68001306410E13050A00EFE09F9863020554FC
:103E780083270101638807000325C1019385070093
:103E8800EF30004A8327410083D7C70093F7070420
:103E9800638407006F20403C8320C11E0324811ED9
:103EA800032581008324411E0329011E8329C11D86
:103EB800032A811D832A411D032B011D832BC11C4D
:103EC800032C811C832C411C032D011C832DC11B39
:103ED8001301011F6780000097070D009387874033
:103EE8002326F1029377090213030C00638007105D
:103EF8008327C1009387770093F787FF03AC0700F8
:103F080083AD4700138787002326E10093771900C4
:103F180063880700B367BC01638407006F10003A29
:103F28009379F9BF93072000A303010C1307F0FF4F
:103F3800E30CE30A3367BC0113F9F9F763040700DC
:103F48006F00907DE31E032C639A072213FB190070
:103F5800930C011B63040B006F10003193090B00D5
:103F680063546B00930903000347710C2328010075
:103F78002322010223200102232A010063000734BF
:103F8800938919006F0080331304000093860AFD9B
:103F9800938414009317240083CAF4FFB38787001F
:103FA800939717003384F60093860AFDE3F2D9FE4F
:103FB80093870AFEE374F7DC638A0A102306511517
:103FC800A303010C93091000130B1000930CC114E8
:103FD8006F00802D97070D00938707322326F10283
:103FE8009377090213030C00E39407F00327C10039
:103FF80093770901032C0700130747002326E100E4
:10400800638407006F10C02793770904639407003F
:104018006F108026131C0C01135C0C01930D00001B
:104028006FF0DFEE03CE0400136949006FF0DFD3B1
:1040380083CA04009387140063946A016F20806325
:1040480093860AFD93840700130C0000E3E4D9D299
:104058009384140093172C0083CAF4FFB387870155
:1040680093971700338CD70093860AFDE3F2D9FEA5
:104078006FF05FD08326C10093770902138746004B
:10408800638407006F104025937709016384070054
:104098006F10406593770904638407006F1010243C
:1040A80013790920631409006F10C0638327C100C6
:1040B8002326E1000327810083A70700938C0400CF
:1040C8002380E70003C70C00E31607C08327C10E4F
:1040D800E38A07DA832541000325C1011306410E4F
:1040E800EFE00FF16FF01FDA03CE04009307C0066C
:1040F8006314FE006F10802C136909016FF0DFC68E
:1041080003CE0400930780066314FE006F10002A94
:10411800136909046FF05FC59377090213030C0054
:10412800E39007068327C1001377090193874700A7
:10413800630407006F20C05813770904631407004D
:104148006F1040670327C100930909002326F10077
:10415800031C0700935DFC4113870D006344076649
:104168009307F0FFE30CF308B367BC0113F9F9F701
:10417800E3940708630403006F10905C13030000C6
:10418800130B0000930C011B6FF05FDD1369090826
:1041980003CE04006FF05FBD9377090213030C0090
:1041A80093690901E39407008327C10093874700B7
:1041B8000327C100930D00002326F100032C0700FC
:1041C800930710006FF05FD68327C100A303010C8B
:1041D80013030C0083AC0700138C470063940C0096
:1041E8006F10C01E1307F0FF6314E3006F10805BAD
:1041F800130603009305000013850C0023266100B5
:10420800EF60500A2328A1000323C10063140500AE
:104218006F10507983270101338B97410347710C45
:104228009349FBFF93D9F9412326810123280100F3
:104238002322010223200102232A0100B3793B0132
:1042480013030000E31E07D26F00400793770902AB
:1042580013030C0013690901639C07768327C100C7
:10426800938747000327C100930D00002326F10020
:10427800032C07006F0080771369890003CE0400C0
:104288006FF09FAE0327C100A303010C9309100030
:1042980083270700130747002326E1002306F114AC
:1042A800130B1000930CC114232801001303000002
:1042B8002322010223200102232A0100937F2900DF
:1042C80063840F0093892900937D49080327C10E51
:1042D80063960D0033083441E34400458346710C6E
:1042E800638A06028326810E1306710C2320CD00F3
:1042F8001307170013061000938616002322CD001B
:104308002326E10E2324D10E13067000130D8D0011
:104318006342D60C638A0F028326810E1306810C32
:104328002320CD00130727001306200093861600CC
:104338002322CD002326E10E2324D10E130670007C
:10434800130D8D00E340D65093060008E38CDD067C
:10435800330C6341E34C801793760910639006721F
:104368008327810E3307670123209D019387170058
:1043780023226D012326E10E2324F10E93067000FB
:10438800130D8D00E3C8F62613794900630609006A
:104398003309344163482007635434011384090006
:1043A80083278100B38787002324F100E31807AA35
:1043B800832701012324010E638807008325010157
:1043C80013050A00EF20D075130DC110938C04005B
:1043D8006FF05FCF832541001306410E13050A00D5
:1043E80023246104232AF103EFE08FC0E31205A818
:1043F8000327C10E130DC11003238104832F41032A
:104408006FF05FF18327810E179C1100130C8C1A33
:1044180063D02B07130B7000832A41006F00C00084
:10442800130909FF63D62B051307070193871700A4
:1044380023208D0123227D012326E10E2324F10E62
:10444800130D8D00E35EFBFC1306410E93850A00F5
:1044580013050A00EFE0CFB9E31C05A0130909FF13
:104468000327C10E8327810E130DC110E3CE2BFB4A
:10447800330727019387170023208D0123222D015D
:104488002326E10E2324F10E93067000E3D6F6F0FE
:10449800832541001306410E13050A00EFE04FB5CE
:1044A800E318059C0327C10E6FF01FEF13778900EF
:1044B80013030C00E31A075C8327C1001305010BE3
:1044C800232881019387770093F787FF83A5070047
:1044D80003A64700938787002326F100EFF08C5F3F
:1044E8000327010B032301012328E10E0327410BB6
:1044F800232AE10E0327810B232CE10E0327C10B8E
:10450800232EE10E1305010F23286100EF6000211F
:104518002326A10C13072000032301016314E500DF
:104528006F104014130710006314E5006F10402E3D
:10453800130710066394EA006F10505F1307100406
:104548006394EA006F10406393F7FAFD1307F0FFD6
:104558002324F1046314E3006F10906713077004B9
:104568006394E7006F10D065032BC10F232A210540
:1045780013670910032F010F832D410F832E810F1D
:1045880063540B006F10D027232E01041309070072
:104598002328010003278104930760046314F700AC
:1045A8006F10502F930750046314F7006F10D05109
:1045B800130C010B9307010D1307C10C930603009D
:1045C8001308C10D1306200093050C0013050A00FB
:1045D800232061022328E10B232CE101232CD10B9A
:1045E800232AD101232AB10B232E610BEF40D0637C
:1045F8008327810413077004930C0500832E41015F
:10460800032F8101032301026384E7006F20C00B9D
:104618008327410513F71700630407006F10D0497B
:104628000327C10DB3079741232CF1008327C10C41
:1046380013077004232AF100832781046394E70099
:104648006F10901383278104130760046394E700B5
:104658006F10503E832741019305100493F6FA0F1B
:104668001387F7FF832781042326E10C1306000034
:104678006398B7009386F60093F6F60F13061000BA
:10468800230AD10C9306B002635A0700832741011D
:10469800130710009306D0023307F740A30AD10C82
:1046A8009306900063C4E6006F10905B1308310E08
:1046B800130608001305A000130330066F00C0009E
:1046C8001386050013870600B367A7029305F6FF54
:1046D80093870703A30FF6FEB346A702E342E3FE60
:1046E800138706031377F70F9306E6FFA38FE5FEFC
:1046F80063E406016F10D07A9305610D6F008000A6
:1047080003C706009385150093861600A38FE5FE60
:10471800E39806FF1307510E9307610D3307C7404F
:104728003387E7009306410DB307D740232CF102E6
:10473800832781018326810313071000338BD70059
:104748006344F7006F10D06683278102330BFB00A8
:10475800832741059349FBFF93D9F94113F9F7BF23
:1047680013690910B3793B012322010223200102B6
:10477800232A01008327C105639407006F101007DF
:104788001307D002A303E10C130300009389190057
:104798006FF0DFB29377090213030C0093690901E4
:1047A8006392071E8327C100938747000327C10030
:1047B8002326F100032C0700935DFC4113870D00AD
:1047C800E350079A330C8041B3378001B30DB041F1
:1047D800B38DFD409307D002A303F10C1307F0FF3C
:1047E800930710006318E3F4130710006388E720A9
:1047F800130720006382E7249306011B6F008000E3
:1048080093860C009397DD0113777C00135C3C00C2
:104818001307070333EC870193DD3D00A38FE6FE02
:10482800B367BC01938CF6FFE39C07FC13F61900F1
:10483800630E062213060003630AC7229386E6FF67
:104848009307011BA38FCCFE338BD7401389090034
:10485800938C06006FF08FF00327C100B787FFFF26
:1048680093C707832314F10C930747002326F1000D
:1048780097070D00938707A713030C002326F1025F
:10488800032C0700930D000093692900930720006B
:10489800930A80076FF04FE98347710C03CE040039
:1048A800639407CC93070002A303F10C6FF0CFCBFE
:1048B8009307B002A303F10C03CE04006FF0CFCA34
:1048C8008327C10003CE040003A407009387470091
:1048D8002326F100635A04C8330480401369490051
:1048E8006FF08FC81369190003CE04006FF0CFC7AB
:1048F8009377090213030C00639C070C8326C100FD
:10490800137709019387460003AC0600E31C07945C
:1049180013770904E302076C131C0C01135C0C01E8
:10492800930D00002326F1006F00400C93770902D5
:1049380013030C00639A07068326C1001377090145
:104948009387460003AC0600630407006F10D05439
:1049580013770904E30E0768131C0C012326F100E2
:10496800135C0C01930D00009309090093071000D4
:104978006FF08FDB0325C101EF20C0646FF04FABF0
:10498800930909008327C1009387770093F787FF6E
:1049980003A74700938687002326D10003AC0700AE
:1049A800930D07006FF08FFB930909008327C1005F
:1049B8009387770093F787FF1387870003AC070077
:1049C80083AD47002326E100930710006FF0CFD591
:1049D8008327C1009387770093F787FF03AC07000D
:1049E80083AD4700138787002326E1009379F9BF39
:1049F800930700006FF04FD393090900E3900D3639
:104A080093079000E3EC8735130C0C03A307811B75
:104A180013890900130B1000930CF11A6FF00FD4CF
:104A2800130710006394E7006F10805113072000EC
:104A380093090900E392E7DC8326C102930C011B6A
:104A48009377FC00B387F60083C707001397CD015F
:104A5800135C4C00938CFCFF336C870193DD4D0095
:104A68002380FC00B367BC01E39C07FC9307011B90
:104A7800338B9741138909006FF04FCE9306500688
:104A880063DA56398326010F9305010A1305010BD2
:104A98002328D10A8326410F232AE1022320010A71
:104AA800232AD10A8326810F2322010A2324010AFB
:104AB800232CD10A8326C10F2326010A232ED10ACB
:104AC800EFC0CC24032741036314055A8327810EC2
:104AD800972611009386464B130717002320DD0005
:104AE80093871700930610002322DD002326E10E8A
:104AF8002324F10E13077000130D8D00E348F732DD
:104B08008327C10C0327810163CAE7009377190043
:104B1800639607000327C10E6FF01F8783270103E1
:104B2800832681020327C10E2320FD008327810EDF
:104B38003387E6002322DD00938717002326E10E42
:104B48002324F10E93067000130D8D00E3CEF602B8
:104B580083278101138BF7FFE35860838327810E36
:104B6800E3D66B2F130C7000832A41006F00C0003E
:104B7800130B0BFFE3DC6B2D13070701938717005B
:104B880097961100938606A42320DD0023227D0139
:104B98002326E10E2324F10E130D8D00E35AFCFCAD
:104BA8001306410E93850A0013050A00EFD05FC46F
:104BB800631005AC0327C10E8327810E130DC110A6
:104BC8006FF01FFB330C3441635480F98326810E48
:104BD80063D48B0B232A910293070D0093040C00D6
:104BE800138D0C00138C0900930C0B00930904001F
:104BF800930D700003244100130B03006F00C000E5
:104C0800938404FF63DA9B04130707019386160055
:104C1800179611001306069B23A0C70023A277014D
:104C28002326E10E2324D10E93878700E3DADDFCE7
:104C38001306410E9305040013050A00EFD05FBB6D
:104C4800631805A2938404FF0327C10E8326810EEF
:104C58009307C110E3CA9BFA1384090093090C0057
:104C6800138C04008324410313030B00138B0C00E3
:104C7800930C0D00138D07003307870193861600E8
:104C880097971100938707942320FD0023228D0115
:104C98002326E10E2324D10E13067000130D8D0078
:104CA8006358D6EA832541001306410E13050A000E
:104CB800232A6102EFD0DFB3631C059A0327C10ED4
:104CC800130DC110032341036FF08FE88326810E73
:104CD80063D88B09232A9102930D700093040C006A
:104CE800130C0B00138B09009309040003244100E3
:104CF8006F00C000938404FF63DA9B041307070165
:104D080093861600979711009387C78B2320FD0081
:104D180023227D012326E10E2324D10E130D8D00BD
:104D2800E3DADDFC1306410E9305040013050A00BF
:104D3800EFD01FAC631E0592938404FF0327C10EB6
:104D48008326810E130DC110E3CA9BFA1384090050
:104D580093090B00130B0C00138C040083244103EC
:104D680033078701938616009797110093878785E5
:104D78002320FD0023228D012326E10E2324D10EBA
:104D880013067000130D8D006358D6DC832541008F
:104D98001306410E13050A00EFD09FA5631A058C70
:104DA8000327C10E130DC1106FF00FDB93751900A7
:104DB800639205082322DD002326E10E2324610FD8
:104DC8009307700063CA6759930A2600130D0D01F3
:104DD800832681039307410D2320FC003387E600D7
:104DE8002322DC002326E10E2324510F93077000B1
:104DF80063DC57D9832541001306410E13050A00C9
:104E0800EFD01F9F631605860327C10E130DC1102F
:104E18006FF08FD70326810E832781019306100038
:104E280023209D0113071700130B1600130C8D0088
:104E3800E3DEF6F6930610002322DD002326E10EBA
:104E48002324610F9306700063CC66618327810277
:104E580083260103130B1B003307F7002320DC0014
:104E68002322FC002326E10E2324610F9306700001
:104E7800130C8C0063CA66618326010F83278101A6
:104E880013081B002328D10A8326410F9305010A22
:104E98001305010B232AD10A8326810F2322E1025D
:104EA800930A0800232CD10A8326C10F232001036B
:104EB8002320010A232ED10A9386F7FF232AD10043
:104EC8002322010A2324010A2326010AEFB01C64C5
:104ED800130D8C0083264101032801020327410298
:104EE8006308053093871C003307D7002320FC0094
:104EF8002322DC002326E10E2324510F93077000A0
:104F080063CC574593070C01930A2B00130C0D0033
:104F1800138D07006FF0DFEB930909006FF0DF8C4A
:104F28008326810E178C1100130CCC6863D00B0DEF
:104F3800232491042326210593070D0013090C004F
:104F4800138D0C00138C0900930C0B0093090400BB
:104F580093027000232AF10383244100130B0300FA
:104F6800130408006F00C000130404FF63DA8B0405
:104F7800130707019386160023A0270123A27701B0
:104F88002326E10E2324D10E93878700E3DED2FC8B
:104F98001306410E9385040013050A00EFD05F85C0
:104FA800630405006FE0DFEC130404FF0327C10E60
:104FB8008326810E9307C11093027000E3CA8BFA0F
:104FC80013080400832F41031384090083248104F8
:104FD80093090C00130C09000329C10413030B00E7
:104FE800138B0C00930C0D00138D0700330707017A
:104FF8009386160023208D0123220D012326E10E1E
:105008002324D10E13067000130D8D006358D6ACFF
:10501800832541001306410E13050A002324610469
:10502800232AF103EFD0CFFC630405006FE05FE4AF
:105038000327C10E130DC11003238104832F4103DD
:105048006FF0CFA9832541001306410E13050A000E
:10505800232A6102EFD0CFF9630405006FE05FE116
:105068000327C10E130DC110032341036FF0CFAD09
:105078000326C10C635EC042832781018326410158
:10508800138B070063CCF628635660038326810ED2
:105098003307670123209D019386160023226D01A3
:1050A8002326E10E2324D10E13067000130D8D0064
:1050B800E342D61E9346FBFF8327410193D6F64170
:1050C800337BDB00338B67416342603383274101C5
:1050D80093760940B38AFC00639C067A032BC10CC3
:1050E800832781016346FB0093761900E38A061C37
:1050F8008326010383278102130670002320DD0025
:105108008326810E3307F7002322FD0093861600BD
:105118002326E10E2324D10E130D8D006354D600EF
:105128006F10C00583268101B387DC00338B66418D
:10513800B3875741130C0B0063D46701138C070026
:10514800635880038327810E3307870123205D017D
:105158009387170023228D012326E10E2324F10EC5
:1051680093067000130D8D0063D4F6006F1080094C
:105178009347FCFF93D7F741337CFC00330B8B41FB
:10518800635460A18327810E63D26B4D130C7000AA
:10519800832A41006F00C000130B0BFF63D86B4BD1
:1051A8001307070193871700978611009386864196
:1051B8002320DD0023227D012326E10E2324F10E86
:1051C800130D8D00E35AFCFC1306410E93850A006B
:1051D80013050A00EFD0CFE1630405006FE05FC953
:1051E8000327C10E8327810E130DC1106FF0DFFA5C
:1051F800E350D0BE63C4DB006F104047930A7000D1
:10520800138D0600832C4100130B08006F0000016A
:10521800130D0DFF63DAAB11130B1B001307070106
:10522800978711009387073A2320FC0023227C01EB
:105238002326E10E2324610F130C8C00E3DA6AFDA8
:105248001306410E93850C0013050A00EFD04FDAC0
:10525800630405006FE0DFC10327C10E032B810E35
:10526800130CC1106FF0DFFA93070003A307F11ABC
:10527800930CF11A6FE09FCE93770920E39C070AFD
:10528800930D00006FE09FC88327C10003A70700A4
:10529800938747002326F10083250700032647004C
:1052A800832687000327C7002328B10E232AC10EAF
:1052B800232CD10E232EE10E6FF0CFA49307000309
:1052C800136929002304F10CA304510D9379F9BF44
:1052D800930720006FE05FC50326810083A70600BF
:1052E8002326E1009356F64123A0C70023A2D70046
:1052F800938C04006FE01FDD8327C10303CE0400F5
:10530800639407006FE05FA683C7070063940700F4
:105318006FE09FA5136909406FE01FA5138B060076
:10532800E34660D76FF01FD993060D00930A1B0060
:1053380093078C003307D7001786110013068628B9
:105348002322DC002320CC002326E10E2324510F46
:105358009306700063DE566F832541001306410EE5
:1053680013050A00EFD0CFC8630405006FE05FB0F3
:105378000326810E0327C10E130D4111930A16004F
:10538800130CC1106FF0DFA4832541001306410EF2
:1053980013050A00EFD0CFC5630405006FE05FADC9
:1053A8000327C10E130DC1106FF08FFA03CE14003E
:1053B80013690920938414006FE01F9B03CE140027
:1053C80013690902938414006FE01F9A9307600021
:1053D800130B030063E2676E93090B002326810118
:1053E800978C1100938CCC026FE01FEC8326810E02
:1053F80063D86B45930A7000032C41006F00C0000E
:10540800130B0BFF63DE6B4313070701938616002C
:10541800978711009387071B2320FD0023227D0116
:105428002326E10E2324D10E130D8D00E3DADAFCD6
:105438001306410E93050C0013050A00EFD04FBB6D
:10544800630405006FE0DFA20327C10E8326810EE7
:10545800130DC1106FF0DFFA13890C006FE09F8EF7
:10546800832541001306410E13050A00EFD04FB8FB
:10547800630405006FE0DF9F0327C10E032B810E35
:10548800130CC1106FF09F9C832541001306410E39
:1054980013050A00EFD0CFB5630405006FE05F9DE8
:1054A8000327C10E032B810E130CC1106FF0DF9C74
:1054B8008326810E97251100938505AD2320BD0015
:1054C8001307170093051000938616002322BD00CA
:1054D8002326E10E2324D10E93057000130D8D00B1
:1054E80063C0D558631E062083278101937619006F
:1054F800B3E6F600639406006FE01FE98326010314
:1055080083278102130670002320DD008326810E85
:105518003387E7002322FD00938616002326E10E39
:105528002324D10E93088D006340D662832781011E
:105538009386160023A098013387E70023A2F8007A
:105548002326E10E2324D10E93077000138D8800C3
:1055580063C4D7006FE05FE36FF0DF89930C011B32
:105568009307000013F9094023289100232A3101E9
:10557800130BF00F93890C0023206102930C0A008F
:105588008324C103138A0D00930D0D00130D04002D
:10559800138407006F0040021306A0009306000062
:1055A80013050C0093050A00EF801B40E30E0A2C3C
:1055B800130C0500138A05001306A00093060000CB
:1055C80013050C0093050A00EFB00C291305050319
:1055D800A38FA9FE130414009389F9FFE30E09FAB7
:1055E80083C60400E31AD4FAE30864FBE31E0A2422
:1055F80093079000E3EA8725138A0C00938C09002F
:10560800832941019307011B232C8100232E91023A
:1056180013040D000323010283240101138D0D00DF
:10562800338B9741138909006FE05F93832541000D
:105638001306410E13050A00EFD08F9B6304050083
:105648006FE01F83130DC1106FF08FCB9786110089
:10565800938646F733076701938717002320DD00F9
:105668006FE01FD18327010F9305010A1305010B72
:105678002328F10A8327410F2320010A2322010A44
:10568800232AF10A8327810F2324010A2326010AEA
:10569800232CF10A8327C10F232EF10AEFB01C0B2C
:1056A800E346052C0347710C93067004978C110090
:1056B800938C4CEF63CA563D232801002322010234
:1056C80023200102232A01001379F9F793093000F6
:1056D800130B300013030000630407006FE05F8AB8
:1056E8006FE0DFBD8327C100938C040083A7070008
:1056F8002326E1000327810023A0E7006FE09F9C99
:105708008326010383278102930570002320DD008F
:105718008326810E3387E7002322FD009386160037
:105728002326E10E2324D10E93088D0063CED540A5
:10573800E35E06DE930500FF330BC040E354B63248
:10574800130C7000832A41006F00C000130B0BFF7D
:10575800E3DA6B3113070701938616009787110068
:10576800938747E623A0F80023A278012326E10EB9
:105778002324D10E93888800E35ADCFC1306410EDB
:1057880093850A0013050A00EFD08F86630405008D
:105798006FE00FEE0327C10E8326810E9308C11018
:1057A8006FF0DFFA13850C00EFC00FFB130B050039
:1057B8006FE0DFA613770920630007360327C100CF
:1057C800930909002326F100030C0700935DFC41AF
:1057D80013870D006FE09F9813770920630807323D
:1057E800137CFC0F930D00002326F1006FF00FA02F
:1057F80013770920630207302326F100137CFC0F7E
:10580800930D000093090900930710006FE0CFF192
:105818008327C10F63D607329307D002A303F10C85
:105828001307D00293067004978C1100938C0CD840
:10583800E3D456E9978C1100938C8CD76FF0DFE78F
:10584800330767019386160097871100938787D7D8
:105858002320FD0023226D012326E10E2324D10EEF
:1058680013067000130D8D00E352D6868325410080
:105878001306410E13050A00EFC09FF763040500E5
:105888006FE00FDF0327C10E130DC1106FF01F84E7
:1058980083278101032C0102232A9100232A210353
:1058A80023248104832441022320310323229103EA
:1058B800B38DFC00130B7000032901040324C103FA
:1058C80093060D0083294100832C410463080C08CA
:1058D800639804081304F4FF130CFCFF8327810E5C
:1058E8003307270123A096019387170023A22601D7
:1058F8002326E10E2324F10E938686006344FB10D1
:1059080003460400B3855D41130D060063D4C5004A
:10591800138D05006356A0030326810E3307A701E4
:1059280023A056011306160023A2A6012326E10E82
:105938002324C10E634ACB0E0346040093868600D7
:105948009345FDFF93D5F541B377BD00330DF64080
:10595800634CA001B38ACA00E31C0CF66386045E9C
:105968009384F4FF6FF09FF70326810E63C8AB01A1
:105978006F000006130D0DFF63DCAB05130707016D
:1059880013061600978711009387C7C323A0F60054
:1059980023A276012326E10E2324C10E93868600D6
:1059A800E35ACBFC1306410E9385090013050A0040
:1059B800EFC01FE4630405006FE08FCB130D0DFFEC
:1059C8000327C10E0326810E9306C110E3C8ABFB63
:1059D8003307A7011306160097871100938787BE20
:1059E80023A0F60023A2A6012326E10E2324C10E3C
:1059F8006346CB620346040093868600B38ACA00D6
:105A08006FF09FF51306410E9385090013050A00F0
:105A1800EFC01FDE630405006FE08FC50327C10ECA
:105A28009306C1106FF0DFED1306410E9385090050
:105A380013050A00EFC0DFDB630405006FE04FC306
:105A4800034604000327C10E9306C1106FF05FEFF1
:105A5800938A1A00138D8700138C07006FF04FB7D5
:105A6800832541001306410E13050A00EFC05FD8D5
:105A7800630405006FE0CFBF0326C10C0327C10EE6
:105A8800130DC1106FF01FA6978C1100938CCCB129
:105A98006FF09FC2832541001306410E13050A00CB
:105AA800EFC01FD5630405006FE08FBC0327C10E4C
:105AB800130DC1106FF00FE0130B60006FF0DF9152
:105AC80083268101B387DC00338B6641338C5741D1
