:02000004F90001
:10000000972100009381811C1381819217150000B4
:100010001305855F971500009385055F1386C181E1
:1000200063FCC5008322050023A05500130545008D
:1000300093854500E3E8C5FE1385C1819385018260
:100040006378B5002320050013054500E36CB5FE79
:10005000EF104044EF1040376F0000006780000051
:1000600003254500135505011375F50F6780000042
:10007000130101FF23261100232481002322910074
:10008000130405009384050013050400EFF05FFDE1
:10009000E30C05FE232094008320C100032481008B
:1000A000832441001301010167800000130101FF57
:1000B0002326110093050500370501F8EFF05FFBDB
:1000C0008320C1001301010167800000130101FFBB
:1000D0002326110023248100130405000345040096
:1000E0006308050013041400EFF05FFC6FF01FFFBE
:1000F0008320C100032481001301010167800000F7
:10010000130101FF232611002324810023229100E3
:10011000930405001304C0016F004002B3D78400AC
:1001200013F7F700B71700F993878779B387E700CC
:1001300003C50700EFF09FF71304C4FFE35004FE6C
:100140008320C100032481008324410013010101A5
:1001500067800000130101FF232611002324810082
:1001600023229100930405001304C0016F00400294
:10017000B3D7840013F7F700B71700F99387C77A4E
:10018000B387E70003C50700EFF05FF21304C4FF75
:10019000E35004FE8320C100032481008324410036
:1001A00013010101678000006780000063140500EF
:1001B00067800000130101FF23261100EFF01FEFFD
:1001C0008320C10013010101678000009307000034
:1001D0008326050003C70600130707FD1377F70FF3
:1001E000130690006364E60213972700B307F70035
:1001F00013971700938716002320F50083C7060086
:10020000B387E700938707FD6FF09FFC1385070016
:1002100067800000130101FD2326110223248102BF
:100220002322910223202103232E3101232C41017B
:10023000232A5101232861012326710123248101EE
:10024000232291019304050013890500930B0600F6
:1002500093890600130B070013840700930A080014
:10026000138C080093F738006386070263080404C0
:100270001304F4FFB3078B00130A160093860900DA
:100280009305090003C50700E780040013060A0070
:100290006FF0DFFD130A0400E37A5AFD930C160099
:1002A000938609009305090013050002E780040006
:1002B000130A1A0013860C006FF01FFE137C2C002B
:1002C000631E0C02130506008320C1020324810271
:1002D00083244102032901028329C101032A8101E8
:1002E000832A4101032B0101832BC100032C8100D0
:1002F000832C41001301010367800000B30776419E
:10030000E3F257FD130416009386090093050900D4
:1003100013050002E7800400130604006FF01FFEBF
:10032000130101FF23261100930F0800138F08000B
:10033000832E0101032841018328810113F3280042
:1003400063120306630E080013F31800630A030028
:1003500063960F0013F3C800630403001308F8FF4B
:1003600063F8D7031303F0016364F3023303F70068
:10037000130E00032300C301938717006FF05FFE85
:100380003303F700130E00032300C3019387170004
:1003900013F318006308030063F607011303F00169
:1003A000E370F3FE13F308016304030413F308403E
:1003B00063180300638607006382D707638007071B
:1003C0001303000163006F0813030001630E6F083D
:1003D00013032000630C6F0A1303F001636AF30038
:1003E0003303F700130E00032300C30193871700A4
:1003F0001303F001636CF30063880F0A3303F70003
:10040000130ED0022300C30193871700EFF09FE083
:100410008320C10013010101678000001383F7FFEF
:10042000630E0300130E00016306CF019307030060
:100430006FF01FF99387E7FF6FF09FF893070300B2
:100440006FF01FF813F30802E31003F81303F00131
:10045000E36CF3F63303F700130E80072300C301A8
:10046000938717006FF05FF713F30802E30203F6B8
:100470001303F001E36EF3F43303F700130E80056A
:100480002300C301938717006FF01FF51303F001DA
:10049000E364F3F43303F700130E20062300C301D3
:1004A000938717006FF05FF313F34800630C0300AA
:1004B0003303F700130EB0022300C3019387170024
:1004C0006FF0DFF413F38800E30203F43303F70063
:1004D000130E00022300C301938717006FF01FF370
:1004E000130101FC232E1102938F0700032F4104F7
:1004F00063140700137FFFFE937E0F40638A0E0490
:10050000630A0706930E00006F00800413730F0246
:10051000630E0304130310043303C3011373F30FB7
:10052000130363FF1373F30F93871E00130E01036E
:10053000B30EDE0123806EFE33530703636E0703A1
:100540001307F001636AF702938E07001307030095
:1005500033730703137EF30F13039000E368C3FBA9
:1005600013030E031373F30F6FF01FFC1303100636
:100570006FF09FFA930707002324E101032701048A
:100580002322E100232011019308080013880F00A3
:1005900013070101EFF0DFD88320C1031301010429
:1005A00067800000130101FA232E1104232C81041B
:1005B000232A9104232821052326310523244105DC
:1005C0002322510523206105232E7103232C81034F
:1005D000232A91032328A1032326B103130A05002C
:1005E0009389050013090600232ED100232CE10076
:1005F000E3860500130400008327C10103C507003B
:10060000E3040500130750026306E5029304140097
:10061000930609001306040093850900E7000A0009
:100620008327C10193871700232EF1001384040050
:100630006FF09FFC93871700232EF10093040000B6
:100640006F004007930706FD93F7F70F130790001D
:10065000637AF70C9307A002630EF60C130B0000ED
:100660008327C10183C607001307E002638CE60EEF
:10067000930A00000327C101834707009306A006E1
:10068000638CD71A63F6F6149306C0066386D716F2
:100690009306A0076398D71A93E404101307170072
:1006A000232EE1006F00001A93E4140013071700D3
:1006B000232EE1000327C10103460700930706FE2E
:1006C00093F5F70F93060001E3EEB6F69397250036
:1006D000B71600F993864660B387D70083A7070053
:1006E0006780070093E4240013071700232EE1001E
:1006F0006FF05FFC93E4440013071700232EE10022
:100700006FF05FFB93E4840013071700232EE100D2
:100710006FF05FFA93E4040113071700232EE10042
:100720006FF05FF91305C101EFF05FAA130B05002D
:100730006FF01FF38327810113874700232CE1000B
:1007400003AB0700634A0B008327C101938717009F
:10075000232EF1006FF0DFF093E42400330B6041AF
:100760006FF09FFE93E4044013871700232EE100EF
:1007700003C71700930707FD93F7F70F9306900041
:1007800063FAF6009307A002630EF700930A0000D5
:100790006FF05FEE1305C101EFF05FA3930A050050
:1007A0006FF05FED8327810113874700232CE10061
:1007B00083AA070063CA0A008327C1019387170031
:1007C000232EF1006FF01FEB930A00006FF0DFFEA5
:1007D000930680066398D70613E60408930717006C
:1007E000232EF1008346170013078006638EE6026E
:1007F000930406006F00000513E60410930717002A
:10080000232EF100834617001307C0066386E60017
:10081000930406006F00000393E4043093871700ED
:10082000232EF1006F00000293E4040C938717005D
:10083000232EF1006F00000193E40420130717003A
:10084000232EE1008327C10103C507009307B5FDEF
:1008500093F6F70F13073005636ED756939726006C
:10086000371700F913078764B387E70083A70700EA
:1008700067800700930780076304F50293078005EC
:100880006308F50A9307F0066308F50A9307200644
:100890006308F50A93F4F4FE1308A0006F008000CB
:1008A00013080001930780056300F50A930790067B
:1008B0006308F500930740066304F50093F434FFE2
:1008C00093F704406384070093F4E4FF93079006D2
:1008D0006300F50893074006630CF50693F70420C0
:1008E0006396070C93F704106396071493F70404B8
:1008F000638007188327810113874700232CE100B9
:1009000003C70700232291002320610193880A0076
:10091000930700009306090013060400938509005D
:1009200013050A00EFF0DFBB130405006F00000899
:10093000130800016FF01FF7130880006FF09FF697
:10094000130820006FF01FF693E404026FF01FF607
:1009500093F70420639C070493F704106390070641
:1009600093F704046380070A8327810113874700F4
:10097000232CE10083C7070013D7F741B346F700E4
:10098000232291002320610193880A0093D7F70165
:100990003387E64093060900130604009385090097
:1009A00013050A00EFF0DFB3130405008327C1012C
:1009B00093871700232EF1006FF01FC48327810156
:1009C00013874700232CE10083A7070013D7F741C3
:1009D000B346F700232291002320610193880A0087
:1009E00093D7F7013387E640930609001306040006
:1009F0009385090013050A00EFF09FAE130405006C
:100A00006FF0DFFA93F70408638C070083278101F6
:100A100013874700232CE100839707006FF0DFF571
:100A20008327810113874700232CE10083A7070058
:100A30006FF09FF48327810113874700232CE10087
:100A400003A70700232291002320610193880A0055
:100A5000930700009306090013060400938509001C
:100A600013050A00EFF0DFA7130405006FF01FF471
:100A700093F70408638C07008327810113874700DD
:100A8000232CE10003D707006FF0DFE78327810104
:100A900013874700232CE10003A707006FF09FE6B0
:100AA000639E0A041307F0FFB71700F99387077CCA
:100AB0006F00C000938717001387060083C60700E6
:100AC000638606009306F7FFE31607FE371700F963
:100AD0001307077CB387E74093FB044063860B0052
:100AE00063F4FA0093870A0093F42400638C0402F1
:100AF000B71400F99384047C6F00800513870A0003
:100B00006FF09FFA130C14009306090013060400FB
:100B10009385090013050002E7000A00938704008B
:100B200013040C0093841700E3EE67FD6FF05FFC85
:100B3000938A070093841400130B14009306090092
:100B40001306040093850900E7000A0013040B0054
:100B500003C5040063080500E38E0BFC9387FAFFCE
:100B6000E3980AFC9304140093060900130604009A
:100B7000938509008327C10103C50700E7000A0028
:100B800093060900138604001304240093850900CA
:100B90001305E003E7000A008327C10193871700CC
:100BA000232EF1006FF05FA593F424006388040600
:100BB000930A10008327810113874700232CE1004B
:100BC000930B140093060900130604009385090093
:100BD00003C50700E7000A00639604068327C101E6
:100BE00093871700232EF10013840B006FF0DFA012
:100BF000930B140093060900130604009385090063
:100C000013050002E7000A0093870A0013840B0013
:100C1000938A1700E3EE67FD6FF0DFF9930710008A
:100C20006FF01FFF93841B009306090013860B00CF
:100C30009385090013050002E7000A00930A0400E7
:100C4000938B040013841A00E3EE6AFD6FF01FF922
:100C50008327810113874700232CE10003AC0700A1
:100C600063940A041307F0FF93070C006F00C000A1
:100C7000938717001387060083C607006386060064
:100C80009306F7FFE31607FEB38B874193FC0440FE
:100C900063860C0063F47A01938B0A0013FD240031
:100CA00063100D066F00C00213870A006FF0DFFBB0
:100CB000930D1400930609001306040093850900A0
:100CC00013050002E7000A00938B040013840D0053
:100CD00093841B00E3EE6BFD938B04006F004002D6
:100CE000938A0700130C1C00930414009306090058
:100CF0001306040093850900E7000A00138404002A
:100D000003450C0063080500E38E0CFC9387FAFF93
:100D1000E3980AFC631A0D028327C1019387170029
:100D2000232EF1006FF05F8D930A140093060900E3
:100D3000130604009385090013050002E7000A006A
:100D4000938B040013840A0093841B00E3EE6BFD75
:100D50006FF09FFC93E414028327810113874700FF
:100D6000232CE10003A707002322910093078000B2
:100D70002320F10093880A00130800019307000064
:100D800093060900130604009385090013050A0061
:100D9000EFF00FF5130405008327C10193871700B7
:100DA000232EF1006FF05F85930414009306090071
:100DB000130604009385090013055002E7000A009A
:100DC0008327C10193871700232EF10013840400A9
:100DD0006FF09F8293041400930609001306040029
:100DE00093850900E7000A008327C1019387170054
:100DF000232EF100138404006FF01F80370A00F9DE
:100E0000130A8A1A6FF00FFF636C24051306F9FFAB
:100E1000930609009385090013050000E7000A0006
:100E2000130504008320C1050324810583244105A3
:100E3000032901058329C104032A8104832A41046B
:100E4000032B0104832BC103032C8103832C410357
:100E5000032D0103832DC1021301010667800000E9
:100E6000130604006FF0DFFA130101FF23261100BF
:100E70001375F50FEFF08FA38320C100130101015B
:100E800067800000130101FF23261100EFF00FA47B
:100E90008320C1001301010167800000130101FDDF
:100EA00023261102232481022322910293040500A8
:100EB00063460500130401006F00C0021305D00251
:100EC000EFF09FFAB30490406FF0DFFE1307A0002D
:100ED000B3E7E402938707032300F400B3C4E402FA
:100EE00013041400E39404FE93070100E300F4FEEE
:100EF0006F0000011304F4FF03450400EFF0DFF678
:100F000093070100E318F4FE8320C1020324810249
:100F1000832441021301010367800000130101FFD4
:100F200023261100130700009307700063C0E70237
:100F300093162700930700FFB397D700B377F50008
:100F400063860700130717006FF01FFEEFF08FA0F6
:100F50008320C1001301010167800000130101FF1C
:100F600023261100130700009307700063C0E702F7
:100F700093162700930700FFB397D700B377F500C8
:100F800063860700130717006FF01FFEEFF04F97FF
:100F90008320C10013010101678000000F50000091
:100FA00067800000130101FC232E11002322B102EF
:100FB0002324C1022326D1022328E102232AF1029D
:100FC000232C0103232E1103130741022326E100E2
:100FD000930605001306F0FF93058100370500F91D
:100FE0001305C51AEFF00FDC8320C10113010104C2
:100FF00067800000130101FC232E1100232C8100C7
:10100000232A9100930405002322B1022324C10264
:101010002326D1022328E102232AF102232C0103F3
:10102000232E1103930741022326F100130400002D
:101030006F00C0018327C100138747002326E1000A
:1010400003A50700EFF05FE213041400B3878400E8
:1010500003C507006302050C930750026306F506FB
:10106000EFF09FE06FF05FFE8327C100138747001A
:101070002326E10003A50700EFF0DFE06FF0DFFCBF
:101080008327C100138747002326E10003A507003B
:10109000EFF0DFE06FF05FFB8327C10013874700AD
:1010A0002326E10003A50700EFF05FEB6FF0DFF907
:1010B0008327C100138747002326E10003A507000B
:1010C000EFF0DFE56FF05FF813041400B3878400DE
:1010D00083C70700E38A07F613073006E38CE7F4BB
:1010E00013073007E382E7F813074006E38AE7F8BF
:1010F00013078005E382E7FA13078007E38AE7FA1C
:1011000013076006E392E7FC372500F91305858194
:10111000EFF05FD76FF05FF38320C10103248101FB
:10112000832441011301010467800000130101FEC3
:10113000232E1100232C8100232A91002328210132
:101140002326310123244101130405009384050063
:1011500013090600938906006382060293070000C4
:101160001387040063F297063307F40093F6F70F32
:101170002300D700938717006FF09FFE138A0500A6
:101180001386050093050900EF00003AEFF01FE118
:101190009307000063F0470BB305F40003C7050095
:1011A0001377F70F63162701938717006FF09FFEE1
:1011B00083C6050013060900372500F91305458687
:1011C000EFF05FDE6F008003130600006374E60635
:1011D000B305C40083C7050093F7F70F6396C700F4
:1011E000130616006FF09FFE83C605001376F60FF8
:1011F000372500F91305C587EFF0DFDA93060900FC
:101200003306940093050400372500F91305058E75
:10121000EFF05FD98320C1010324810183244101C0
:10122000032901018329C100032A8100130101025E
:10123000678000006390090293060900330694005A
:1012400093050400372500F913054589EFF09FD574
:101250006FF05FFC3306940093050400372500F916
:101260001305C58BEFF01FD46FF0DFFA130101FFF8
:101270002326110023248100232291002320210111
:10128000130405009384050013090600638C06020D
:101290001307000093D7F44193F73700B387970003
:1012A00093D727406378F70A131647003306C40024
:1012B00093172700B307F40023A0C70013071700F4
:1012C0006FF05FFD1307000093D7F44193F73700E9
:1012D000B387970093D72740635CF70093172700E5
:1012E000B307F40023A02701130717006FF0DFFDF9
:1012F00013070000635EF70893152700B305B400D9
:1013000003A6050063162601130717006FF09FFE62
:1013100083A6050013060900372500F91305C587C4
:10132000EFF05FC8930609003306940093050400AC
:10133000372500F913050593EFF0DFC68320C100C0
:1013400003248100832441000329010013010101CA
:101350006780000013070000637CF7021316470044
:101360003306C40093152700B305B40003A5050098
:101370006316C500130717006FF01FFE9386050064
:10138000372500F91305C587EFF0DFC16FF09FF92E
:101390006390060293060900330694009305040047
:1013A000372500F913058590EFF0DFBF6FF01FF9C7
:1013B0003306940093050400372500F91305C58B07
:1013C000EFF05FBE6FF09FF7130101FF23261100BE
:1013D000232481001307803E930600013706400155
:1013E000B7054000372500F913058595EFF09FBB41
:1013F000130400009307703E63C087089305040040
:10140000372500F91305C598EFF0DFBE93060000FD
:1014100013060000B705000137054000EFF01FD1AB
:101420009306000013061000B705000137054000C1
:10143000EFF0DFCF9306000013065000B705000160
:1014400037054000EFF09FCE930600001306A00082
:10145000B705000137054000EFF05FCD930610009F
:1014600013060000B705000137054000EFF01FE04C
:10147000130414006FF01FF8372500F91305059CBD
:10148000EFF05FB28320C10003248100130101014A
:1014900067800000130101FF232481002320210124
:1014A0001704000013044416170900001309C91596
:1014B0003309894023261100232291001359294022
:1014C000630E090093040000832704009384140032
:1014D00013044400E7800700E31899FE1704000096
:1014E00013048412170900001309091233098940F3
:1014F00013592940630E0900930400008327040058
:101500009384140013044400E7800700E31899FE55
:101510008320C100032481008324410003290100AA
:1015200013010101678000001303F0001307050099
:10153000637EC3029377F7006390070A63920508FE
:10154000937606FF1376F600B386E6002320B700F5
:101550002322B7002324B7002326B700130707016F
:10156000E366D7FE6314060067800000B306C3403D
:101570009396260097020000B38656006780C60047
:101580002307B700A306B7002306B700A305B700DB
:101590002305B700A304B7002304B700A303B700D3
:1015A0002303B700A302B7002302B700A301B700CB
:1015B0002301B700A300B7002300B7006780000035
:1015C00093F5F50F93968500B3E5D5009396050145
:1015D000B3E5D5006FF0DFF6939627009702000081
:1015E000B386560093820000E78006FA93800200DB
:1015F000938707FF3307F7403306F600E378C3F617
:041600006FF0DFF3B5
:10160400040700F9440600F9440600F9140700F938
:10161400440600F9440600F9440600F9440600F9BA
:10162400440600F9440600F9440600F9F40600F9FA
:10163400440600F9E40600F9440600F9440600F9FA
:10164400A80600F9A80D00F9D40D00F9D40D00F98D
:10165400D40D00F9D40D00F9D40D00F9D40D00F91E
:10166400D40D00F9D40D00F9D40D00F9D40D00F90E
:10167400D40D00F9D40D00F9D40D00F9D40D00F9FE
:10168400D40D00F9D40D00F9D40D00F9D40D00F9EE
:10169400D40D00F9D40D00F9D40D00F9D40D00F9DE
:1016A400D40D00F9D40D00F9D40D00F9D40D00F9CE
:1016B400D40D00F9D40D00F9D40D00F9D40D00F9BE
:1016C400D40D00F9D40D00F9A00A00F9D40D00F9E5
:1016D400D40D00F9D40D00F9D40D00F9D40D00F99E
:1016E400D40D00F9D40D00F9D40D00F9D40D00F98E
:1016F400D40D00F9D40D00F9D40D00F9D40D00F97E
:10170400D40D00F9D40D00F9D40D00F9D40D00F96D
:10171400740800F9D40D00F9D40D00F9D40D00F9C2
:10172400D40D00F9D40D00F9D40D00F9D40D00F94D
:10173400D40D00F9D40D00F9740800F9A80B00F9D0
:10174400740800F9D40D00F9A00A00F9D40D00F9C9
:10175400D40D00F9740800F9D40D00F9D40D00F982
:10176400D40D00F9D40D00F9D40D00F9740800F972
:10177400540D00F9D40D00F9D40D00F9500C00F902
:10178400D40D00F9740800F9D40D00F9D40D00F952
:10179400740800F930313233343536373839414240
:1017A4004344454600000000303132333435363787
:1017B4003839616263646566000000003C576172F9
:1017C4006E696E672C20756E737570706F727465B8
:1017D40064207370656369666965722075736564F6
:1017E4002C20706C6561736520656E61626C652088
:1017F400666C6F6174696E6720706F696E742073B4
:101804007570706F727420696E206273702E682018
:10181400250000003C466C6F6174696E6720706F30
:10182400696E74207072696E74696E67206E6F746D
:1018340020656E61626C652E20506C656173652055
:10184400456E61626C6520697420617420627370F6
:101854002E682066697273742E2E2E3E00000000DE
:101864004572726F723A2025703A20257820213D06
:101874002025780A0D0000004572726F723A2030FC
:101884007825703A20257820213D2025780A0D00FE
:10189400746573742028307825702C203078257076
:1018A40029203D203078252E3258207375636365D6
:1018B4007373210A0D000000746573742028307856
:1018C40025702C203078257029203D2073656C66A6
:1018D4002073756363657373210A0D0074657374F3
:1018E4002028307825702C203078257029203D2040
:1018F4003078252E3258206661696C6564210A0DA2
:1019040000000000746573742028307825702C2042
:101914003078257029203D203078252E38582073C2
:10192400756363657373210A0D0000007465737435
:101934002028307825702C203078257029203D20EF
:101944003078252E3858206661696C6564210A0D4B
:10195400000000004D454D4F52592054455354202A
:10196400424547494E20282570202D3E20257029C8
:101974003A2025644D422C20524F554E44533A2070
:1019840025640A0D000000003D3D3D3D3D3D3D3DCB
:101994003D3D3D3D3D3D3D3D3D20726F756E643A9C
:1019A400202564203D3D3D3D3D3D3D3D3D3D3D3D8E
:1019B4003D3D3D3D3D3D3D0A0D0000004D454D4F33
:1019C400525920544553542046494E495348210AFC
:0E19D4000D00000000000000000000000000F8
:04000005F9000000FE
:00000001FF
